{
	"contracts/CryptoKids.sol": {
		"CryptoKids": {
			"abi": [
				{
					"inputs": [],
					"stateMutability": "nonpayable",
					"type": "constructor"
				},
				{
					"inputs": [
						{
							"internalType": "address payable",
							"name": "walletAddress",
							"type": "address"
						},
						{
							"internalType": "string",
							"name": "firstName",
							"type": "string"
						},
						{
							"internalType": "string",
							"name": "lasName",
							"type": "string"
						},
						{
							"internalType": "uint256",
							"name": "releaseTime",
							"type": "uint256"
						},
						{
							"internalType": "uint256",
							"name": "amount",
							"type": "uint256"
						},
						{
							"internalType": "bool",
							"name": "canWithdraw",
							"type": "bool"
						}
					],
					"name": "addKid",
					"outputs": [],
					"stateMutability": "nonpayable",
					"type": "function"
				},
				{
					"inputs": [
						{
							"internalType": "address",
							"name": "walletAddress",
							"type": "address"
						}
					],
					"name": "availableToWithdraw",
					"outputs": [
						{
							"internalType": "bool",
							"name": "",
							"type": "bool"
						}
					],
					"stateMutability": "nonpayable",
					"type": "function"
				},
				{
					"inputs": [],
					"name": "balanceOf",
					"outputs": [
						{
							"internalType": "uint256",
							"name": "",
							"type": "uint256"
						}
					],
					"stateMutability": "view",
					"type": "function"
				},
				{
					"inputs": [
						{
							"internalType": "address",
							"name": "walletAddress",
							"type": "address"
						}
					],
					"name": "deposit",
					"outputs": [],
					"stateMutability": "payable",
					"type": "function"
				},
				{
					"inputs": [
						{
							"internalType": "uint256",
							"name": "",
							"type": "uint256"
						}
					],
					"name": "kids",
					"outputs": [
						{
							"internalType": "address payable",
							"name": "walletAddress",
							"type": "address"
						},
						{
							"internalType": "string",
							"name": "firstName",
							"type": "string"
						},
						{
							"internalType": "string",
							"name": "lasName",
							"type": "string"
						},
						{
							"internalType": "uint256",
							"name": "releaseTime",
							"type": "uint256"
						},
						{
							"internalType": "uint256",
							"name": "amount",
							"type": "uint256"
						},
						{
							"internalType": "bool",
							"name": "canWithdraw",
							"type": "bool"
						}
					],
					"stateMutability": "view",
					"type": "function"
				},
				{
					"inputs": [
						{
							"internalType": "address payable",
							"name": "walletAddress",
							"type": "address"
						}
					],
					"name": "withdraw",
					"outputs": [],
					"stateMutability": "payable",
					"type": "function"
				}
			],
			"devdoc": {
				"kind": "dev",
				"methods": {},
				"version": 1
			},
			"evm": {
				"assembly": "    /* \"contracts/CryptoKids.sol\":64:1895  contract CryptoKids {... */\n  mstore(0x40, 0x80)\n    /* \"contracts/CryptoKids.sol\":124:172  constructor(){... */\n  callvalue\n  dup1\n  iszero\n  tag_1\n  jumpi\n  0x00\n  dup1\n  revert\ntag_1:\n  pop\n    /* \"contracts/CryptoKids.sol\":155:165  msg.sender */\n  caller\n    /* \"contracts/CryptoKids.sol\":147:152  owner */\n  0x00\n  dup1\n    /* \"contracts/CryptoKids.sol\":147:165  owner = msg.sender */\n  0x0100\n  exp\n  dup2\n  sload\n  dup2\n  0xffffffffffffffffffffffffffffffffffffffff\n  mul\n  not\n  and\n  swap1\n  dup4\n  0xffffffffffffffffffffffffffffffffffffffff\n  and\n  mul\n  or\n  swap1\n  sstore\n  pop\n    /* \"contracts/CryptoKids.sol\":64:1895  contract CryptoKids {... */\n  dataSize(sub_0)\n  dup1\n  dataOffset(sub_0)\n  0x00\n  codecopy\n  0x00\n  return\nstop\n\nsub_0: assembly {\n        /* \"contracts/CryptoKids.sol\":64:1895  contract CryptoKids {... */\n      mstore(0x40, 0x80)\n      jumpi(tag_1, lt(calldatasize, 0x04))\n      shr(0xe0, calldataload(0x00))\n      dup1\n      0x31d575c5\n      eq\n      tag_2\n      jumpi\n      dup1\n      0x51cff8d9\n      eq\n      tag_3\n      jumpi\n      dup1\n      0x722713f7\n      eq\n      tag_4\n      jumpi\n      dup1\n      0x7285fd3a\n      eq\n      tag_5\n      jumpi\n      dup1\n      0xa25db8ce\n      eq\n      tag_6\n      jumpi\n      dup1\n      0xf340fa01\n      eq\n      tag_7\n      jumpi\n    tag_1:\n      0x00\n      dup1\n      revert\n        /* \"contracts/CryptoKids.sol\":388:721  function addKid(address payable walletAddress, string memory firstName, string memory lasName, uint releaseTime, uint amount, bool canWithdraw) public {... */\n    tag_2:\n      callvalue\n      dup1\n      iszero\n      tag_8\n      jumpi\n      0x00\n      dup1\n      revert\n    tag_8:\n      pop\n      tag_9\n      0x04\n      dup1\n      calldatasize\n      sub\n      dup2\n      add\n      swap1\n      tag_10\n      swap2\n      swap1\n      tag_11\n      jump\t// in\n    tag_10:\n      tag_12\n      jump\t// in\n    tag_9:\n      stop\n        /* \"contracts/CryptoKids.sol\":1724:1892  function withdraw(address payable walletAddress) payable public{... */\n    tag_3:\n      tag_13\n      0x04\n      dup1\n      calldatasize\n      sub\n      dup2\n      add\n      swap1\n      tag_14\n      swap2\n      swap1\n      tag_15\n      jump\t// in\n    tag_14:\n      tag_16\n      jump\t// in\n    tag_13:\n      stop\n        /* \"contracts/CryptoKids.sol\":727:818  function balanceOf() public view returns(uint){... */\n    tag_4:\n      callvalue\n      dup1\n      iszero\n      tag_17\n      jumpi\n      0x00\n      dup1\n      revert\n    tag_17:\n      pop\n      tag_18\n      tag_19\n      jump\t// in\n    tag_18:\n      mload(0x40)\n      tag_20\n      swap2\n      swap1\n      tag_21\n      jump\t// in\n    tag_20:\n      mload(0x40)\n      dup1\n      swap2\n      sub\n      swap1\n      return\n        /* \"contracts/CryptoKids.sol\":364:381  Kid[] public kids */\n    tag_5:\n      callvalue\n      dup1\n      iszero\n      tag_22\n      jumpi\n      0x00\n      dup1\n      revert\n    tag_22:\n      pop\n      tag_23\n      0x04\n      dup1\n      calldatasize\n      sub\n      dup2\n      add\n      swap1\n      tag_24\n      swap2\n      swap1\n      tag_25\n      jump\t// in\n    tag_24:\n      tag_26\n      jump\t// in\n    tag_23:\n      mload(0x40)\n      tag_27\n      swap7\n      swap6\n      swap5\n      swap4\n      swap3\n      swap2\n      swap1\n      tag_28\n      jump\t// in\n    tag_27:\n      mload(0x40)\n      dup1\n      swap2\n      sub\n      swap1\n      return\n        /* \"contracts/CryptoKids.sol\":1423:1718  function availableToWithdraw(address walletAddress) public returns(bool){... */\n    tag_6:\n      callvalue\n      dup1\n      iszero\n      tag_29\n      jumpi\n      0x00\n      dup1\n      revert\n    tag_29:\n      pop\n      tag_30\n      0x04\n      dup1\n      calldatasize\n      sub\n      dup2\n      add\n      swap1\n      tag_31\n      swap2\n      swap1\n      tag_32\n      jump\t// in\n    tag_31:\n      tag_33\n      jump\t// in\n    tag_30:\n      mload(0x40)\n      tag_34\n      swap2\n      swap1\n      tag_35\n      jump\t// in\n    tag_34:\n      mload(0x40)\n      dup1\n      swap2\n      sub\n      swap1\n      return\n        /* \"contracts/CryptoKids.sol\":824:926  function deposit(address walletAddress) payable public{... */\n    tag_7:\n      tag_36\n      0x04\n      dup1\n      calldatasize\n      sub\n      dup2\n      add\n      swap1\n      tag_37\n      swap2\n      swap1\n      tag_32\n      jump\t// in\n    tag_37:\n      tag_38\n      jump\t// in\n    tag_36:\n      stop\n        /* \"contracts/CryptoKids.sol\":388:721  function addKid(address payable walletAddress, string memory firstName, string memory lasName, uint releaseTime, uint amount, bool canWithdraw) public {... */\n    tag_12:\n        /* \"contracts/CryptoKids.sol\":549:553  kids */\n      0x01\n        /* \"contracts/CryptoKids.sol\":559:713  Kid(... */\n      mload(0x40)\n      dup1\n      0xc0\n      add\n      0x40\n      mstore\n      dup1\n        /* \"contracts/CryptoKids.sol\":576:589  walletAddress */\n      dup9\n        /* \"contracts/CryptoKids.sol\":559:713  Kid(... */\n      0xffffffffffffffffffffffffffffffffffffffff\n      and\n      dup2\n      mstore\n      0x20\n      add\n        /* \"contracts/CryptoKids.sol\":603:612  firstName */\n      dup8\n        /* \"contracts/CryptoKids.sol\":559:713  Kid(... */\n      dup2\n      mstore\n      0x20\n      add\n        /* \"contracts/CryptoKids.sol\":626:633  lasName */\n      dup7\n        /* \"contracts/CryptoKids.sol\":559:713  Kid(... */\n      dup2\n      mstore\n      0x20\n      add\n        /* \"contracts/CryptoKids.sol\":647:658  releaseTime */\n      dup6\n        /* \"contracts/CryptoKids.sol\":559:713  Kid(... */\n      dup2\n      mstore\n      0x20\n      add\n        /* \"contracts/CryptoKids.sol\":672:678  amount */\n      dup5\n        /* \"contracts/CryptoKids.sol\":559:713  Kid(... */\n      dup2\n      mstore\n      0x20\n      add\n        /* \"contracts/CryptoKids.sol\":692:703  canWithdraw */\n      dup4\n        /* \"contracts/CryptoKids.sol\":559:713  Kid(... */\n      iszero\n      iszero\n      dup2\n      mstore\n      pop\n        /* \"contracts/CryptoKids.sol\":549:714  kids.push(Kid(... */\n      swap1\n      dup1\n      0x01\n      dup2\n      sload\n      add\n      dup1\n      dup3\n      sstore\n      dup1\n      swap2\n      pop\n      pop\n      0x01\n      swap1\n      sub\n      swap1\n      0x00\n      mstore\n      keccak256(0x00, 0x20)\n      swap1\n      0x06\n      mul\n      add\n      0x00\n      swap1\n      swap2\n      swap1\n      swap2\n      swap1\n      swap2\n      pop\n      0x00\n      dup3\n      add\n      mload\n      dup2\n      0x00\n      add\n      exp(0x0100, 0x00)\n      dup2\n      sload\n      dup2\n      0xffffffffffffffffffffffffffffffffffffffff\n      mul\n      not\n      and\n      swap1\n      dup4\n      0xffffffffffffffffffffffffffffffffffffffff\n      and\n      mul\n      or\n      swap1\n      sstore\n      pop\n      0x20\n      dup3\n      add\n      mload\n      dup2\n      0x01\n      add\n      swap1\n      dup1\n      mload\n      swap1\n      0x20\n      add\n      swap1\n      tag_41\n      swap3\n      swap2\n      swap1\n      tag_42\n      jump\t// in\n    tag_41:\n      pop\n      0x40\n      dup3\n      add\n      mload\n      dup2\n      0x02\n      add\n      swap1\n      dup1\n      mload\n      swap1\n      0x20\n      add\n      swap1\n      tag_43\n      swap3\n      swap2\n      swap1\n      tag_42\n      jump\t// in\n    tag_43:\n      pop\n      0x60\n      dup3\n      add\n      mload\n      dup2\n      0x03\n      add\n      sstore\n      0x80\n      dup3\n      add\n      mload\n      dup2\n      0x04\n      add\n      sstore\n      0xa0\n      dup3\n      add\n      mload\n      dup2\n      0x05\n      add\n      exp(0x0100, 0x00)\n      dup2\n      sload\n      dup2\n      0xff\n      mul\n      not\n      and\n      swap1\n      dup4\n      iszero\n      iszero\n      mul\n      or\n      swap1\n      sstore\n      pop\n      pop\n      pop\n        /* \"contracts/CryptoKids.sol\":388:721  function addKid(address payable walletAddress, string memory firstName, string memory lasName, uint releaseTime, uint amount, bool canWithdraw) public {... */\n      pop\n      pop\n      pop\n      pop\n      pop\n      pop\n      jump\t// out\n        /* \"contracts/CryptoKids.sol\":1724:1892  function withdraw(address payable walletAddress) payable public{... */\n    tag_16:\n        /* \"contracts/CryptoKids.sol\":1797:1803  uint i */\n      0x00\n        /* \"contracts/CryptoKids.sol\":1806:1829  getIndex(walletAddress) */\n      tag_45\n        /* \"contracts/CryptoKids.sol\":1815:1828  walletAddress */\n      dup3\n        /* \"contracts/CryptoKids.sol\":1806:1814  getIndex */\n      tag_46\n        /* \"contracts/CryptoKids.sol\":1806:1829  getIndex(walletAddress) */\n      jump\t// in\n    tag_45:\n        /* \"contracts/CryptoKids.sol\":1797:1829  uint i = getIndex(walletAddress) */\n      swap1\n      pop\n        /* \"contracts/CryptoKids.sol\":1839:1843  kids */\n      0x01\n        /* \"contracts/CryptoKids.sol\":1844:1845  i */\n      dup2\n        /* \"contracts/CryptoKids.sol\":1839:1846  kids[i] */\n      dup2\n      sload\n      dup2\n      lt\n      tag_47\n      jumpi\n      tag_48\n      tag_49\n      jump\t// in\n    tag_48:\n    tag_47:\n      swap1\n      0x00\n      mstore\n      keccak256(0x00, 0x20)\n      swap1\n      0x06\n      mul\n      add\n        /* \"contracts/CryptoKids.sol\":1839:1860  kids[i].walletAddress */\n      0x00\n      add\n      0x00\n      swap1\n      sload\n      swap1\n      0x0100\n      exp\n      swap1\n      div\n      0xffffffffffffffffffffffffffffffffffffffff\n      and\n        /* \"contracts/CryptoKids.sol\":1839:1869  kids[i].walletAddress.transfer */\n      0xffffffffffffffffffffffffffffffffffffffff\n      and\n        /* \"contracts/CryptoKids.sol\":1839:1885  kids[i].walletAddress.transfer(kids[i].amount) */\n      0x08fc\n        /* \"contracts/CryptoKids.sol\":1870:1874  kids */\n      0x01\n        /* \"contracts/CryptoKids.sol\":1875:1876  i */\n      dup4\n        /* \"contracts/CryptoKids.sol\":1870:1877  kids[i] */\n      dup2\n      sload\n      dup2\n      lt\n      tag_51\n      jumpi\n      tag_52\n      tag_49\n      jump\t// in\n    tag_52:\n    tag_51:\n      swap1\n      0x00\n      mstore\n      keccak256(0x00, 0x20)\n      swap1\n      0x06\n      mul\n      add\n        /* \"contracts/CryptoKids.sol\":1870:1884  kids[i].amount */\n      0x04\n      add\n      sload\n        /* \"contracts/CryptoKids.sol\":1839:1885  kids[i].walletAddress.transfer(kids[i].amount) */\n      swap1\n      dup2\n      iszero\n      mul\n      swap1\n      mload(0x40)\n      0x00\n      mload(0x40)\n      dup1\n      dup4\n      sub\n      dup2\n      dup6\n      dup9\n      dup9\n      call\n      swap4\n      pop\n      pop\n      pop\n      pop\n      iszero\n      dup1\n      iszero\n      tag_55\n      jumpi\n      returndatasize\n      0x00\n      dup1\n      returndatacopy\n      revert(0x00, returndatasize)\n    tag_55:\n      pop\n        /* \"contracts/CryptoKids.sol\":1787:1892  {... */\n      pop\n        /* \"contracts/CryptoKids.sol\":1724:1892  function withdraw(address payable walletAddress) payable public{... */\n      pop\n      jump\t// out\n        /* \"contracts/CryptoKids.sol\":727:818  function balanceOf() public view returns(uint){... */\n    tag_19:\n        /* \"contracts/CryptoKids.sol\":768:772  uint */\n      0x00\n        /* \"contracts/CryptoKids.sol\":790:811  address(this).balance */\n      selfbalance\n        /* \"contracts/CryptoKids.sol\":783:811  return address(this).balance */\n      swap1\n      pop\n        /* \"contracts/CryptoKids.sol\":727:818  function balanceOf() public view returns(uint){... */\n      swap1\n      jump\t// out\n        /* \"contracts/CryptoKids.sol\":364:381  Kid[] public kids */\n    tag_26:\n      0x01\n      dup2\n      dup2\n      sload\n      dup2\n      lt\n      tag_57\n      jumpi\n      0x00\n      dup1\n      revert\n    tag_57:\n      swap1\n      0x00\n      mstore\n      keccak256(0x00, 0x20)\n      swap1\n      0x06\n      mul\n      add\n      0x00\n      swap2\n      pop\n      swap1\n      pop\n      dup1\n      0x00\n      add\n      0x00\n      swap1\n      sload\n      swap1\n      0x0100\n      exp\n      swap1\n      div\n      0xffffffffffffffffffffffffffffffffffffffff\n      and\n      swap1\n      dup1\n      0x01\n      add\n      dup1\n      sload\n      tag_59\n      swap1\n      tag_60\n      jump\t// in\n    tag_59:\n      dup1\n      0x1f\n      add\n      0x20\n      dup1\n      swap2\n      div\n      mul\n      0x20\n      add\n      mload(0x40)\n      swap1\n      dup2\n      add\n      0x40\n      mstore\n      dup1\n      swap3\n      swap2\n      swap1\n      dup2\n      dup2\n      mstore\n      0x20\n      add\n      dup3\n      dup1\n      sload\n      tag_61\n      swap1\n      tag_60\n      jump\t// in\n    tag_61:\n      dup1\n      iszero\n      tag_62\n      jumpi\n      dup1\n      0x1f\n      lt\n      tag_63\n      jumpi\n      0x0100\n      dup1\n      dup4\n      sload\n      div\n      mul\n      dup4\n      mstore\n      swap2\n      0x20\n      add\n      swap2\n      jump(tag_62)\n    tag_63:\n      dup3\n      add\n      swap2\n      swap1\n      0x00\n      mstore\n      keccak256(0x00, 0x20)\n      swap1\n    tag_64:\n      dup2\n      sload\n      dup2\n      mstore\n      swap1\n      0x01\n      add\n      swap1\n      0x20\n      add\n      dup1\n      dup4\n      gt\n      tag_64\n      jumpi\n      dup3\n      swap1\n      sub\n      0x1f\n      and\n      dup3\n      add\n      swap2\n    tag_62:\n      pop\n      pop\n      pop\n      pop\n      pop\n      swap1\n      dup1\n      0x02\n      add\n      dup1\n      sload\n      tag_65\n      swap1\n      tag_60\n      jump\t// in\n    tag_65:\n      dup1\n      0x1f\n      add\n      0x20\n      dup1\n      swap2\n      div\n      mul\n      0x20\n      add\n      mload(0x40)\n      swap1\n      dup2\n      add\n      0x40\n      mstore\n      dup1\n      swap3\n      swap2\n      swap1\n      dup2\n      dup2\n      mstore\n      0x20\n      add\n      dup3\n      dup1\n      sload\n      tag_66\n      swap1\n      tag_60\n      jump\t// in\n    tag_66:\n      dup1\n      iszero\n      tag_67\n      jumpi\n      dup1\n      0x1f\n      lt\n      tag_68\n      jumpi\n      0x0100\n      dup1\n      dup4\n      sload\n      div\n      mul\n      dup4\n      mstore\n      swap2\n      0x20\n      add\n      swap2\n      jump(tag_67)\n    tag_68:\n      dup3\n      add\n      swap2\n      swap1\n      0x00\n      mstore\n      keccak256(0x00, 0x20)\n      swap1\n    tag_69:\n      dup2\n      sload\n      dup2\n      mstore\n      swap1\n      0x01\n      add\n      swap1\n      0x20\n      add\n      dup1\n      dup4\n      gt\n      tag_69\n      jumpi\n      dup3\n      swap1\n      sub\n      0x1f\n      and\n      dup3\n      add\n      swap2\n    tag_67:\n      pop\n      pop\n      pop\n      pop\n      pop\n      swap1\n      dup1\n      0x03\n      add\n      sload\n      swap1\n      dup1\n      0x04\n      add\n      sload\n      swap1\n      dup1\n      0x05\n      add\n      0x00\n      swap1\n      sload\n      swap1\n      0x0100\n      exp\n      swap1\n      div\n      0xff\n      and\n      swap1\n      pop\n      dup7\n      jump\t// out\n        /* \"contracts/CryptoKids.sol\":1423:1718  function availableToWithdraw(address walletAddress) public returns(bool){... */\n    tag_33:\n        /* \"contracts/CryptoKids.sol\":1490:1494  bool */\n      0x00\n        /* \"contracts/CryptoKids.sol\":1505:1511  uint i */\n      dup1\n        /* \"contracts/CryptoKids.sol\":1514:1537  getIndex(walletAddress) */\n      tag_71\n        /* \"contracts/CryptoKids.sol\":1523:1536  walletAddress */\n      dup4\n        /* \"contracts/CryptoKids.sol\":1514:1522  getIndex */\n      tag_46\n        /* \"contracts/CryptoKids.sol\":1514:1537  getIndex(walletAddress) */\n      jump\t// in\n    tag_71:\n        /* \"contracts/CryptoKids.sol\":1505:1537  uint i = getIndex(walletAddress) */\n      swap1\n      pop\n        /* \"contracts/CryptoKids.sol\":1569:1573  kids */\n      0x01\n        /* \"contracts/CryptoKids.sol\":1574:1575  i */\n      dup2\n        /* \"contracts/CryptoKids.sol\":1569:1576  kids[i] */\n      dup2\n      sload\n      dup2\n      lt\n      tag_72\n      jumpi\n      tag_73\n      tag_49\n      jump\t// in\n    tag_73:\n    tag_72:\n      swap1\n      0x00\n      mstore\n      keccak256(0x00, 0x20)\n      swap1\n      0x06\n      mul\n      add\n        /* \"contracts/CryptoKids.sol\":1569:1588  kids[i].releaseTime */\n      0x03\n      add\n      sload\n        /* \"contracts/CryptoKids.sol\":1550:1565  block.timestamp */\n      timestamp\n        /* \"contracts/CryptoKids.sol\":1550:1588  block.timestamp >= kids[i].releaseTime */\n      lt\n        /* \"contracts/CryptoKids.sol\":1547:1712  if(block.timestamp >= kids[i].releaseTime){... */\n      tag_75\n      jumpi\n        /* \"contracts/CryptoKids.sol\":1625:1629  true */\n      0x01\n        /* \"contracts/CryptoKids.sol\":1603:1607  kids */\n      dup1\n        /* \"contracts/CryptoKids.sol\":1608:1609  i */\n      dup3\n        /* \"contracts/CryptoKids.sol\":1603:1610  kids[i] */\n      dup2\n      sload\n      dup2\n      lt\n      tag_76\n      jumpi\n      tag_77\n      tag_49\n      jump\t// in\n    tag_77:\n    tag_76:\n      swap1\n      0x00\n      mstore\n      keccak256(0x00, 0x20)\n      swap1\n      0x06\n      mul\n      add\n        /* \"contracts/CryptoKids.sol\":1603:1622  kids[i].canWithdraw */\n      0x05\n      add\n      0x00\n        /* \"contracts/CryptoKids.sol\":1603:1629  kids[i].canWithdraw = true */\n      0x0100\n      exp\n      dup2\n      sload\n      dup2\n      0xff\n      mul\n      not\n      and\n      swap1\n      dup4\n      iszero\n      iszero\n      mul\n      or\n      swap1\n      sstore\n      pop\n        /* \"contracts/CryptoKids.sol\":1650:1654  true */\n      0x01\n        /* \"contracts/CryptoKids.sol\":1643:1654  return true */\n      swap2\n      pop\n      pop\n      jump(tag_70)\n        /* \"contracts/CryptoKids.sol\":1547:1712  if(block.timestamp >= kids[i].releaseTime){... */\n    tag_75:\n        /* \"contracts/CryptoKids.sol\":1700:1705  false */\n      0x00\n        /* \"contracts/CryptoKids.sol\":1693:1705  return false */\n      swap2\n      pop\n      pop\n        /* \"contracts/CryptoKids.sol\":1423:1718  function availableToWithdraw(address walletAddress) public returns(bool){... */\n    tag_70:\n      swap2\n      swap1\n      pop\n      jump\t// out\n        /* \"contracts/CryptoKids.sol\":824:926  function deposit(address walletAddress) payable public{... */\n    tag_38:\n        /* \"contracts/CryptoKids.sol\":888:919  addToKidsBalance(walletAddress) */\n      tag_81\n        /* \"contracts/CryptoKids.sol\":905:918  walletAddress */\n      dup2\n        /* \"contracts/CryptoKids.sol\":888:904  addToKidsBalance */\n      tag_82\n        /* \"contracts/CryptoKids.sol\":888:919  addToKidsBalance(walletAddress) */\n      jump\t// in\n    tag_81:\n        /* \"contracts/CryptoKids.sol\":824:926  function deposit(address walletAddress) payable public{... */\n      pop\n      jump\t// out\n        /* \"contracts/CryptoKids.sol\":1172:1417  function getIndex(address walletAddress) view private returns(uint){... */\n    tag_46:\n        /* \"contracts/CryptoKids.sol\":1234:1238  uint */\n      0x00\n        /* \"contracts/CryptoKids.sol\":1253:1259  uint i */\n      dup1\n        /* \"contracts/CryptoKids.sol\":1260:1261  0 */\n      0x00\n        /* \"contracts/CryptoKids.sol\":1253:1261  uint i=0 */\n      swap1\n      pop\n        /* \"contracts/CryptoKids.sol\":1249:1391  for(uint i=0; i< kids.length ; i++){... */\n    tag_84:\n        /* \"contracts/CryptoKids.sol\":1266:1270  kids */\n      0x01\n        /* \"contracts/CryptoKids.sol\":1266:1277  kids.length */\n      dup1\n      sload\n      swap1\n      pop\n        /* \"contracts/CryptoKids.sol\":1263:1264  i */\n      dup2\n        /* \"contracts/CryptoKids.sol\":1263:1277  i< kids.length */\n      lt\n        /* \"contracts/CryptoKids.sol\":1249:1391  for(uint i=0; i< kids.length ; i++){... */\n      iszero\n      tag_85\n      jumpi\n        /* \"contracts/CryptoKids.sol\":1326:1339  walletAddress */\n      dup3\n        /* \"contracts/CryptoKids.sol\":1301:1339  kids[i].walletAddress == walletAddress */\n      0xffffffffffffffffffffffffffffffffffffffff\n      and\n        /* \"contracts/CryptoKids.sol\":1301:1305  kids */\n      0x01\n        /* \"contracts/CryptoKids.sol\":1306:1307  i */\n      dup3\n        /* \"contracts/CryptoKids.sol\":1301:1308  kids[i] */\n      dup2\n      sload\n      dup2\n      lt\n      tag_87\n      jumpi\n      tag_88\n      tag_49\n      jump\t// in\n    tag_88:\n    tag_87:\n      swap1\n      0x00\n      mstore\n      keccak256(0x00, 0x20)\n      swap1\n      0x06\n      mul\n      add\n        /* \"contracts/CryptoKids.sol\":1301:1322  kids[i].walletAddress */\n      0x00\n      add\n      0x00\n      swap1\n      sload\n      swap1\n      0x0100\n      exp\n      swap1\n      div\n      0xffffffffffffffffffffffffffffffffffffffff\n      and\n        /* \"contracts/CryptoKids.sol\":1301:1339  kids[i].walletAddress == walletAddress */\n      0xffffffffffffffffffffffffffffffffffffffff\n      and\n      eq\n        /* \"contracts/CryptoKids.sol\":1298:1381  if(kids[i].walletAddress == walletAddress){... */\n      iszero\n      tag_90\n      jumpi\n        /* \"contracts/CryptoKids.sol\":1365:1366  i */\n      dup1\n        /* \"contracts/CryptoKids.sol\":1358:1366  return i */\n      swap2\n      pop\n      pop\n      jump(tag_83)\n        /* \"contracts/CryptoKids.sol\":1298:1381  if(kids[i].walletAddress == walletAddress){... */\n    tag_90:\n        /* \"contracts/CryptoKids.sol\":1280:1283  i++ */\n      dup1\n      dup1\n      tag_91\n      swap1\n      tag_92\n      jump\t// in\n    tag_91:\n      swap2\n      pop\n      pop\n        /* \"contracts/CryptoKids.sol\":1249:1391  for(uint i=0; i< kids.length ; i++){... */\n      jump(tag_84)\n    tag_85:\n      pop\n        /* \"contracts/CryptoKids.sol\":1407:1410  999 */\n      0x03e7\n        /* \"contracts/CryptoKids.sol\":1400:1410  return 999 */\n      swap1\n      pop\n        /* \"contracts/CryptoKids.sol\":1172:1417  function getIndex(address walletAddress) view private returns(uint){... */\n    tag_83:\n      swap2\n      swap1\n      pop\n      jump\t// out\n        /* \"contracts/CryptoKids.sol\":932:1166  function addToKidsBalance(address walletAddress) private {... */\n    tag_82:\n        /* \"contracts/CryptoKids.sol\":1003:1009  uint i */\n      0x00\n        /* \"contracts/CryptoKids.sol\":999:1160  for(uint i=0; i < kids.length; i++){... */\n    tag_94:\n        /* \"contracts/CryptoKids.sol\":1017:1021  kids */\n      0x01\n        /* \"contracts/CryptoKids.sol\":1017:1028  kids.length */\n      dup1\n      sload\n      swap1\n      pop\n        /* \"contracts/CryptoKids.sol\":1013:1014  i */\n      dup2\n        /* \"contracts/CryptoKids.sol\":1013:1028  i < kids.length */\n      lt\n        /* \"contracts/CryptoKids.sol\":999:1160  for(uint i=0; i < kids.length; i++){... */\n      iszero\n      tag_95\n      jumpi\n        /* \"contracts/CryptoKids.sol\":1076:1089  walletAddress */\n      dup2\n        /* \"contracts/CryptoKids.sol\":1051:1089  kids[i].walletAddress == walletAddress */\n      0xffffffffffffffffffffffffffffffffffffffff\n      and\n        /* \"contracts/CryptoKids.sol\":1051:1055  kids */\n      0x01\n        /* \"contracts/CryptoKids.sol\":1056:1057  i */\n      dup3\n        /* \"contracts/CryptoKids.sol\":1051:1058  kids[i] */\n      dup2\n      sload\n      dup2\n      lt\n      tag_97\n      jumpi\n      tag_98\n      tag_49\n      jump\t// in\n    tag_98:\n    tag_97:\n      swap1\n      0x00\n      mstore\n      keccak256(0x00, 0x20)\n      swap1\n      0x06\n      mul\n      add\n        /* \"contracts/CryptoKids.sol\":1051:1072  kids[i].walletAddress */\n      0x00\n      add\n      0x00\n      swap1\n      sload\n      swap1\n      0x0100\n      exp\n      swap1\n      div\n      0xffffffffffffffffffffffffffffffffffffffff\n      and\n        /* \"contracts/CryptoKids.sol\":1051:1089  kids[i].walletAddress == walletAddress */\n      0xffffffffffffffffffffffffffffffffffffffff\n      and\n      eq\n        /* \"contracts/CryptoKids.sol\":1048:1150  if(kids[i].walletAddress == walletAddress){... */\n      iszero\n      tag_100\n      jumpi\n        /* \"contracts/CryptoKids.sol\":1126:1135  msg.value */\n      callvalue\n        /* \"contracts/CryptoKids.sol\":1108:1112  kids */\n      0x01\n        /* \"contracts/CryptoKids.sol\":1113:1114  i */\n      dup3\n        /* \"contracts/CryptoKids.sol\":1108:1115  kids[i] */\n      dup2\n      sload\n      dup2\n      lt\n      tag_101\n      jumpi\n      tag_102\n      tag_49\n      jump\t// in\n    tag_102:\n    tag_101:\n      swap1\n      0x00\n      mstore\n      keccak256(0x00, 0x20)\n      swap1\n      0x06\n      mul\n      add\n        /* \"contracts/CryptoKids.sol\":1108:1122  kids[i].amount */\n      0x04\n      add\n      0x00\n        /* \"contracts/CryptoKids.sol\":1108:1135  kids[i].amount += msg.value */\n      dup3\n      dup3\n      sload\n      tag_104\n      swap2\n      swap1\n      tag_105\n      jump\t// in\n    tag_104:\n      swap3\n      pop\n      pop\n      dup2\n      swap1\n      sstore\n      pop\n        /* \"contracts/CryptoKids.sol\":1048:1150  if(kids[i].walletAddress == walletAddress){... */\n    tag_100:\n        /* \"contracts/CryptoKids.sol\":1030:1033  i++ */\n      dup1\n      dup1\n      tag_106\n      swap1\n      tag_92\n      jump\t// in\n    tag_106:\n      swap2\n      pop\n      pop\n        /* \"contracts/CryptoKids.sol\":999:1160  for(uint i=0; i < kids.length; i++){... */\n      jump(tag_94)\n    tag_95:\n      pop\n        /* \"contracts/CryptoKids.sol\":932:1166  function addToKidsBalance(address walletAddress) private {... */\n      pop\n      jump\t// out\n    tag_42:\n      dup3\n      dup1\n      sload\n      tag_107\n      swap1\n      tag_60\n      jump\t// in\n    tag_107:\n      swap1\n      0x00\n      mstore\n      keccak256(0x00, 0x20)\n      swap1\n      0x1f\n      add\n      0x20\n      swap1\n      div\n      dup2\n      add\n      swap3\n      dup3\n      tag_109\n      jumpi\n      0x00\n      dup6\n      sstore\n      jump(tag_108)\n    tag_109:\n      dup3\n      0x1f\n      lt\n      tag_110\n      jumpi\n      dup1\n      mload\n      not(0xff)\n      and\n      dup4\n      dup1\n      add\n      or\n      dup6\n      sstore\n      jump(tag_108)\n    tag_110:\n      dup3\n      dup1\n      add\n      0x01\n      add\n      dup6\n      sstore\n      dup3\n      iszero\n      tag_108\n      jumpi\n      swap2\n      dup3\n      add\n    tag_111:\n      dup3\n      dup2\n      gt\n      iszero\n      tag_112\n      jumpi\n      dup3\n      mload\n      dup3\n      sstore\n      swap2\n      0x20\n      add\n      swap2\n      swap1\n      0x01\n      add\n      swap1\n      jump(tag_111)\n    tag_112:\n    tag_108:\n      pop\n      swap1\n      pop\n      tag_113\n      swap2\n      swap1\n      tag_114\n      jump\t// in\n    tag_113:\n      pop\n      swap1\n      jump\t// out\n    tag_114:\n    tag_115:\n      dup1\n      dup3\n      gt\n      iszero\n      tag_116\n      jumpi\n      0x00\n      dup2\n      0x00\n      swap1\n      sstore\n      pop\n      0x01\n      add\n      jump(tag_115)\n    tag_116:\n      pop\n      swap1\n      jump\t// out\n        /* \"#utility.yul\":7:419   */\n    tag_118:\n        /* \"#utility.yul\":85:90   */\n      0x00\n        /* \"#utility.yul\":110:176   */\n      tag_120\n        /* \"#utility.yul\":126:175   */\n      tag_121\n        /* \"#utility.yul\":168:174   */\n      dup5\n        /* \"#utility.yul\":126:175   */\n      tag_122\n      jump\t// in\n    tag_121:\n        /* \"#utility.yul\":110:176   */\n      tag_123\n      jump\t// in\n    tag_120:\n        /* \"#utility.yul\":101:176   */\n      swap1\n      pop\n        /* \"#utility.yul\":199:205   */\n      dup3\n        /* \"#utility.yul\":192:197   */\n      dup2\n        /* \"#utility.yul\":185:206   */\n      mstore\n        /* \"#utility.yul\":237:241   */\n      0x20\n        /* \"#utility.yul\":230:235   */\n      dup2\n        /* \"#utility.yul\":226:242   */\n      add\n        /* \"#utility.yul\":275:278   */\n      dup5\n        /* \"#utility.yul\":266:272   */\n      dup5\n        /* \"#utility.yul\":261:264   */\n      dup5\n        /* \"#utility.yul\":257:273   */\n      add\n        /* \"#utility.yul\":254:279   */\n      gt\n        /* \"#utility.yul\":251:363   */\n      iszero\n      tag_124\n      jumpi\n        /* \"#utility.yul\":282:361   */\n      tag_125\n      tag_126\n      jump\t// in\n    tag_125:\n        /* \"#utility.yul\":251:363   */\n    tag_124:\n        /* \"#utility.yul\":372:413   */\n      tag_127\n        /* \"#utility.yul\":406:412   */\n      dup5\n        /* \"#utility.yul\":401:404   */\n      dup3\n        /* \"#utility.yul\":396:399   */\n      dup6\n        /* \"#utility.yul\":372:413   */\n      tag_128\n      jump\t// in\n    tag_127:\n        /* \"#utility.yul\":91:419   */\n      pop\n        /* \"#utility.yul\":7:419   */\n      swap4\n      swap3\n      pop\n      pop\n      pop\n      jump\t// out\n        /* \"#utility.yul\":425:564   */\n    tag_129:\n        /* \"#utility.yul\":471:476   */\n      0x00\n        /* \"#utility.yul\":509:515   */\n      dup2\n        /* \"#utility.yul\":496:516   */\n      calldataload\n        /* \"#utility.yul\":487:516   */\n      swap1\n      pop\n        /* \"#utility.yul\":525:558   */\n      tag_131\n        /* \"#utility.yul\":552:557   */\n      dup2\n        /* \"#utility.yul\":525:558   */\n      tag_132\n      jump\t// in\n    tag_131:\n        /* \"#utility.yul\":425:564   */\n      swap3\n      swap2\n      pop\n      pop\n      jump\t// out\n        /* \"#utility.yul\":570:725   */\n    tag_133:\n        /* \"#utility.yul\":624:629   */\n      0x00\n        /* \"#utility.yul\":662:668   */\n      dup2\n        /* \"#utility.yul\":649:669   */\n      calldataload\n        /* \"#utility.yul\":640:669   */\n      swap1\n      pop\n        /* \"#utility.yul\":678:719   */\n      tag_135\n        /* \"#utility.yul\":713:718   */\n      dup2\n        /* \"#utility.yul\":678:719   */\n      tag_136\n      jump\t// in\n    tag_135:\n        /* \"#utility.yul\":570:725   */\n      swap3\n      swap2\n      pop\n      pop\n      jump\t// out\n        /* \"#utility.yul\":731:864   */\n    tag_137:\n        /* \"#utility.yul\":774:779   */\n      0x00\n        /* \"#utility.yul\":812:818   */\n      dup2\n        /* \"#utility.yul\":799:819   */\n      calldataload\n        /* \"#utility.yul\":790:819   */\n      swap1\n      pop\n        /* \"#utility.yul\":828:858   */\n      tag_139\n        /* \"#utility.yul\":852:857   */\n      dup2\n        /* \"#utility.yul\":828:858   */\n      tag_140\n      jump\t// in\n    tag_139:\n        /* \"#utility.yul\":731:864   */\n      swap3\n      swap2\n      pop\n      pop\n      jump\t// out\n        /* \"#utility.yul\":884:1224   */\n    tag_141:\n        /* \"#utility.yul\":940:945   */\n      0x00\n        /* \"#utility.yul\":989:992   */\n      dup3\n        /* \"#utility.yul\":982:986   */\n      0x1f\n        /* \"#utility.yul\":974:980   */\n      dup4\n        /* \"#utility.yul\":970:987   */\n      add\n        /* \"#utility.yul\":966:993   */\n      slt\n        /* \"#utility.yul\":956:1078   */\n      tag_143\n      jumpi\n        /* \"#utility.yul\":997:1076   */\n      tag_144\n      tag_145\n      jump\t// in\n    tag_144:\n        /* \"#utility.yul\":956:1078   */\n    tag_143:\n        /* \"#utility.yul\":1114:1120   */\n      dup2\n        /* \"#utility.yul\":1101:1121   */\n      calldataload\n        /* \"#utility.yul\":1139:1218   */\n      tag_146\n        /* \"#utility.yul\":1214:1217   */\n      dup5\n        /* \"#utility.yul\":1206:1212   */\n      dup3\n        /* \"#utility.yul\":1199:1203   */\n      0x20\n        /* \"#utility.yul\":1191:1197   */\n      dup7\n        /* \"#utility.yul\":1187:1204   */\n      add\n        /* \"#utility.yul\":1139:1218   */\n      tag_118\n      jump\t// in\n    tag_146:\n        /* \"#utility.yul\":1130:1218   */\n      swap2\n      pop\n        /* \"#utility.yul\":946:1224   */\n      pop\n        /* \"#utility.yul\":884:1224   */\n      swap3\n      swap2\n      pop\n      pop\n      jump\t// out\n        /* \"#utility.yul\":1230:1369   */\n    tag_147:\n        /* \"#utility.yul\":1276:1281   */\n      0x00\n        /* \"#utility.yul\":1314:1320   */\n      dup2\n        /* \"#utility.yul\":1301:1321   */\n      calldataload\n        /* \"#utility.yul\":1292:1321   */\n      swap1\n      pop\n        /* \"#utility.yul\":1330:1363   */\n      tag_149\n        /* \"#utility.yul\":1357:1362   */\n      dup2\n        /* \"#utility.yul\":1330:1363   */\n      tag_150\n      jump\t// in\n    tag_149:\n        /* \"#utility.yul\":1230:1369   */\n      swap3\n      swap2\n      pop\n      pop\n      jump\t// out\n        /* \"#utility.yul\":1375:1704   */\n    tag_32:\n        /* \"#utility.yul\":1434:1440   */\n      0x00\n        /* \"#utility.yul\":1483:1485   */\n      0x20\n        /* \"#utility.yul\":1471:1480   */\n      dup3\n        /* \"#utility.yul\":1462:1469   */\n      dup5\n        /* \"#utility.yul\":1458:1481   */\n      sub\n        /* \"#utility.yul\":1454:1486   */\n      slt\n        /* \"#utility.yul\":1451:1570   */\n      iszero\n      tag_152\n      jumpi\n        /* \"#utility.yul\":1489:1568   */\n      tag_153\n      tag_154\n      jump\t// in\n    tag_153:\n        /* \"#utility.yul\":1451:1570   */\n    tag_152:\n        /* \"#utility.yul\":1609:1610   */\n      0x00\n        /* \"#utility.yul\":1634:1687   */\n      tag_155\n        /* \"#utility.yul\":1679:1686   */\n      dup5\n        /* \"#utility.yul\":1670:1676   */\n      dup3\n        /* \"#utility.yul\":1659:1668   */\n      dup6\n        /* \"#utility.yul\":1655:1677   */\n      add\n        /* \"#utility.yul\":1634:1687   */\n      tag_129\n      jump\t// in\n    tag_155:\n        /* \"#utility.yul\":1624:1687   */\n      swap2\n      pop\n        /* \"#utility.yul\":1580:1697   */\n      pop\n        /* \"#utility.yul\":1375:1704   */\n      swap3\n      swap2\n      pop\n      pop\n      jump\t// out\n        /* \"#utility.yul\":1710:2055   */\n    tag_15:\n        /* \"#utility.yul\":1777:1783   */\n      0x00\n        /* \"#utility.yul\":1826:1828   */\n      0x20\n        /* \"#utility.yul\":1814:1823   */\n      dup3\n        /* \"#utility.yul\":1805:1812   */\n      dup5\n        /* \"#utility.yul\":1801:1824   */\n      sub\n        /* \"#utility.yul\":1797:1829   */\n      slt\n        /* \"#utility.yul\":1794:1913   */\n      iszero\n      tag_157\n      jumpi\n        /* \"#utility.yul\":1832:1911   */\n      tag_158\n      tag_154\n      jump\t// in\n    tag_158:\n        /* \"#utility.yul\":1794:1913   */\n    tag_157:\n        /* \"#utility.yul\":1952:1953   */\n      0x00\n        /* \"#utility.yul\":1977:2038   */\n      tag_159\n        /* \"#utility.yul\":2030:2037   */\n      dup5\n        /* \"#utility.yul\":2021:2027   */\n      dup3\n        /* \"#utility.yul\":2010:2019   */\n      dup6\n        /* \"#utility.yul\":2006:2028   */\n      add\n        /* \"#utility.yul\":1977:2038   */\n      tag_133\n      jump\t// in\n    tag_159:\n        /* \"#utility.yul\":1967:2038   */\n      swap2\n      pop\n        /* \"#utility.yul\":1923:2048   */\n      pop\n        /* \"#utility.yul\":1710:2055   */\n      swap3\n      swap2\n      pop\n      pop\n      jump\t// out\n        /* \"#utility.yul\":2061:3488   */\n    tag_11:\n        /* \"#utility.yul\":2190:2196   */\n      0x00\n        /* \"#utility.yul\":2198:2204   */\n      dup1\n        /* \"#utility.yul\":2206:2212   */\n      0x00\n        /* \"#utility.yul\":2214:2220   */\n      dup1\n        /* \"#utility.yul\":2222:2228   */\n      0x00\n        /* \"#utility.yul\":2230:2236   */\n      dup1\n        /* \"#utility.yul\":2279:2282   */\n      0xc0\n        /* \"#utility.yul\":2267:2276   */\n      dup8\n        /* \"#utility.yul\":2258:2265   */\n      dup10\n        /* \"#utility.yul\":2254:2277   */\n      sub\n        /* \"#utility.yul\":2250:2283   */\n      slt\n        /* \"#utility.yul\":2247:2367   */\n      iszero\n      tag_161\n      jumpi\n        /* \"#utility.yul\":2286:2365   */\n      tag_162\n      tag_154\n      jump\t// in\n    tag_162:\n        /* \"#utility.yul\":2247:2367   */\n    tag_161:\n        /* \"#utility.yul\":2406:2407   */\n      0x00\n        /* \"#utility.yul\":2431:2492   */\n      tag_163\n        /* \"#utility.yul\":2484:2491   */\n      dup10\n        /* \"#utility.yul\":2475:2481   */\n      dup3\n        /* \"#utility.yul\":2464:2473   */\n      dup11\n        /* \"#utility.yul\":2460:2482   */\n      add\n        /* \"#utility.yul\":2431:2492   */\n      tag_133\n      jump\t// in\n    tag_163:\n        /* \"#utility.yul\":2421:2492   */\n      swap7\n      pop\n        /* \"#utility.yul\":2377:2502   */\n      pop\n        /* \"#utility.yul\":2569:2571   */\n      0x20\n        /* \"#utility.yul\":2558:2567   */\n      dup8\n        /* \"#utility.yul\":2554:2572   */\n      add\n        /* \"#utility.yul\":2541:2573   */\n      calldataload\n        /* \"#utility.yul\":2600:2618   */\n      0xffffffffffffffff\n        /* \"#utility.yul\":2592:2598   */\n      dup2\n        /* \"#utility.yul\":2589:2619   */\n      gt\n        /* \"#utility.yul\":2586:2703   */\n      iszero\n      tag_164\n      jumpi\n        /* \"#utility.yul\":2622:2701   */\n      tag_165\n      tag_166\n      jump\t// in\n    tag_165:\n        /* \"#utility.yul\":2586:2703   */\n    tag_164:\n        /* \"#utility.yul\":2727:2790   */\n      tag_167\n        /* \"#utility.yul\":2782:2789   */\n      dup10\n        /* \"#utility.yul\":2773:2779   */\n      dup3\n        /* \"#utility.yul\":2762:2771   */\n      dup11\n        /* \"#utility.yul\":2758:2780   */\n      add\n        /* \"#utility.yul\":2727:2790   */\n      tag_141\n      jump\t// in\n    tag_167:\n        /* \"#utility.yul\":2717:2790   */\n      swap6\n      pop\n        /* \"#utility.yul\":2512:2800   */\n      pop\n        /* \"#utility.yul\":2867:2869   */\n      0x40\n        /* \"#utility.yul\":2856:2865   */\n      dup8\n        /* \"#utility.yul\":2852:2870   */\n      add\n        /* \"#utility.yul\":2839:2871   */\n      calldataload\n        /* \"#utility.yul\":2898:2916   */\n      0xffffffffffffffff\n        /* \"#utility.yul\":2890:2896   */\n      dup2\n        /* \"#utility.yul\":2887:2917   */\n      gt\n        /* \"#utility.yul\":2884:3001   */\n      iszero\n      tag_168\n      jumpi\n        /* \"#utility.yul\":2920:2999   */\n      tag_169\n      tag_166\n      jump\t// in\n    tag_169:\n        /* \"#utility.yul\":2884:3001   */\n    tag_168:\n        /* \"#utility.yul\":3025:3088   */\n      tag_170\n        /* \"#utility.yul\":3080:3087   */\n      dup10\n        /* \"#utility.yul\":3071:3077   */\n      dup3\n        /* \"#utility.yul\":3060:3069   */\n      dup11\n        /* \"#utility.yul\":3056:3078   */\n      add\n        /* \"#utility.yul\":3025:3088   */\n      tag_141\n      jump\t// in\n    tag_170:\n        /* \"#utility.yul\":3015:3088   */\n      swap5\n      pop\n        /* \"#utility.yul\":2810:3098   */\n      pop\n        /* \"#utility.yul\":3137:3139   */\n      0x60\n        /* \"#utility.yul\":3163:3216   */\n      tag_171\n        /* \"#utility.yul\":3208:3215   */\n      dup10\n        /* \"#utility.yul\":3199:3205   */\n      dup3\n        /* \"#utility.yul\":3188:3197   */\n      dup11\n        /* \"#utility.yul\":3184:3206   */\n      add\n        /* \"#utility.yul\":3163:3216   */\n      tag_147\n      jump\t// in\n    tag_171:\n        /* \"#utility.yul\":3153:3216   */\n      swap4\n      pop\n        /* \"#utility.yul\":3108:3226   */\n      pop\n        /* \"#utility.yul\":3265:3268   */\n      0x80\n        /* \"#utility.yul\":3292:3345   */\n      tag_172\n        /* \"#utility.yul\":3337:3344   */\n      dup10\n        /* \"#utility.yul\":3328:3334   */\n      dup3\n        /* \"#utility.yul\":3317:3326   */\n      dup11\n        /* \"#utility.yul\":3313:3335   */\n      add\n        /* \"#utility.yul\":3292:3345   */\n      tag_147\n      jump\t// in\n    tag_172:\n        /* \"#utility.yul\":3282:3345   */\n      swap3\n      pop\n        /* \"#utility.yul\":3236:3355   */\n      pop\n        /* \"#utility.yul\":3394:3397   */\n      0xa0\n        /* \"#utility.yul\":3421:3471   */\n      tag_173\n        /* \"#utility.yul\":3463:3470   */\n      dup10\n        /* \"#utility.yul\":3454:3460   */\n      dup3\n        /* \"#utility.yul\":3443:3452   */\n      dup11\n        /* \"#utility.yul\":3439:3461   */\n      add\n        /* \"#utility.yul\":3421:3471   */\n      tag_137\n      jump\t// in\n    tag_173:\n        /* \"#utility.yul\":3411:3471   */\n      swap2\n      pop\n        /* \"#utility.yul\":3365:3481   */\n      pop\n        /* \"#utility.yul\":2061:3488   */\n      swap3\n      swap6\n      pop\n      swap3\n      swap6\n      pop\n      swap3\n      swap6\n      jump\t// out\n        /* \"#utility.yul\":3494:3823   */\n    tag_25:\n        /* \"#utility.yul\":3553:3559   */\n      0x00\n        /* \"#utility.yul\":3602:3604   */\n      0x20\n        /* \"#utility.yul\":3590:3599   */\n      dup3\n        /* \"#utility.yul\":3581:3588   */\n      dup5\n        /* \"#utility.yul\":3577:3600   */\n      sub\n        /* \"#utility.yul\":3573:3605   */\n      slt\n        /* \"#utility.yul\":3570:3689   */\n      iszero\n      tag_175\n      jumpi\n        /* \"#utility.yul\":3608:3687   */\n      tag_176\n      tag_154\n      jump\t// in\n    tag_176:\n        /* \"#utility.yul\":3570:3689   */\n    tag_175:\n        /* \"#utility.yul\":3728:3729   */\n      0x00\n        /* \"#utility.yul\":3753:3806   */\n      tag_177\n        /* \"#utility.yul\":3798:3805   */\n      dup5\n        /* \"#utility.yul\":3789:3795   */\n      dup3\n        /* \"#utility.yul\":3778:3787   */\n      dup6\n        /* \"#utility.yul\":3774:3796   */\n      add\n        /* \"#utility.yul\":3753:3806   */\n      tag_147\n      jump\t// in\n    tag_177:\n        /* \"#utility.yul\":3743:3806   */\n      swap2\n      pop\n        /* \"#utility.yul\":3699:3816   */\n      pop\n        /* \"#utility.yul\":3494:3823   */\n      swap3\n      swap2\n      pop\n      pop\n      jump\t// out\n        /* \"#utility.yul\":3829:3971   */\n    tag_178:\n        /* \"#utility.yul\":3932:3964   */\n      tag_180\n        /* \"#utility.yul\":3958:3963   */\n      dup2\n        /* \"#utility.yul\":3932:3964   */\n      tag_181\n      jump\t// in\n    tag_180:\n        /* \"#utility.yul\":3927:3930   */\n      dup3\n        /* \"#utility.yul\":3920:3965   */\n      mstore\n        /* \"#utility.yul\":3829:3971   */\n      pop\n      pop\n      jump\t// out\n        /* \"#utility.yul\":3977:4086   */\n    tag_182:\n        /* \"#utility.yul\":4058:4079   */\n      tag_184\n        /* \"#utility.yul\":4073:4078   */\n      dup2\n        /* \"#utility.yul\":4058:4079   */\n      tag_185\n      jump\t// in\n    tag_184:\n        /* \"#utility.yul\":4053:4056   */\n      dup3\n        /* \"#utility.yul\":4046:4080   */\n      mstore\n        /* \"#utility.yul\":3977:4086   */\n      pop\n      pop\n      jump\t// out\n        /* \"#utility.yul\":4092:4456   */\n    tag_186:\n        /* \"#utility.yul\":4180:4183   */\n      0x00\n        /* \"#utility.yul\":4208:4247   */\n      tag_188\n        /* \"#utility.yul\":4241:4246   */\n      dup3\n        /* \"#utility.yul\":4208:4247   */\n      tag_189\n      jump\t// in\n    tag_188:\n        /* \"#utility.yul\":4263:4334   */\n      tag_190\n        /* \"#utility.yul\":4327:4333   */\n      dup2\n        /* \"#utility.yul\":4322:4325   */\n      dup6\n        /* \"#utility.yul\":4263:4334   */\n      tag_191\n      jump\t// in\n    tag_190:\n        /* \"#utility.yul\":4256:4334   */\n      swap4\n      pop\n        /* \"#utility.yul\":4343:4395   */\n      tag_192\n        /* \"#utility.yul\":4388:4394   */\n      dup2\n        /* \"#utility.yul\":4383:4386   */\n      dup6\n        /* \"#utility.yul\":4376:4380   */\n      0x20\n        /* \"#utility.yul\":4369:4374   */\n      dup7\n        /* \"#utility.yul\":4365:4381   */\n      add\n        /* \"#utility.yul\":4343:4395   */\n      tag_193\n      jump\t// in\n    tag_192:\n        /* \"#utility.yul\":4420:4449   */\n      tag_194\n        /* \"#utility.yul\":4442:4448   */\n      dup2\n        /* \"#utility.yul\":4420:4449   */\n      tag_195\n      jump\t// in\n    tag_194:\n        /* \"#utility.yul\":4415:4418   */\n      dup5\n        /* \"#utility.yul\":4411:4450   */\n      add\n        /* \"#utility.yul\":4404:4450   */\n      swap2\n      pop\n        /* \"#utility.yul\":4184:4456   */\n      pop\n        /* \"#utility.yul\":4092:4456   */\n      swap3\n      swap2\n      pop\n      pop\n      jump\t// out\n        /* \"#utility.yul\":4462:4580   */\n    tag_196:\n        /* \"#utility.yul\":4549:4573   */\n      tag_198\n        /* \"#utility.yul\":4567:4572   */\n      dup2\n        /* \"#utility.yul\":4549:4573   */\n      tag_199\n      jump\t// in\n    tag_198:\n        /* \"#utility.yul\":4544:4547   */\n      dup3\n        /* \"#utility.yul\":4537:4574   */\n      mstore\n        /* \"#utility.yul\":4462:4580   */\n      pop\n      pop\n      jump\t// out\n        /* \"#utility.yul\":4586:5563   */\n    tag_28:\n        /* \"#utility.yul\":4869:4873   */\n      0x00\n        /* \"#utility.yul\":4907:4910   */\n      0xc0\n        /* \"#utility.yul\":4896:4905   */\n      dup3\n        /* \"#utility.yul\":4892:4911   */\n      add\n        /* \"#utility.yul\":4884:4911   */\n      swap1\n      pop\n        /* \"#utility.yul\":4921:5008   */\n      tag_201\n        /* \"#utility.yul\":5005:5006   */\n      0x00\n        /* \"#utility.yul\":4994:5003   */\n      dup4\n        /* \"#utility.yul\":4990:5007   */\n      add\n        /* \"#utility.yul\":4981:4987   */\n      dup10\n        /* \"#utility.yul\":4921:5008   */\n      tag_178\n      jump\t// in\n    tag_201:\n        /* \"#utility.yul\":5055:5064   */\n      dup2\n        /* \"#utility.yul\":5049:5053   */\n      dup2\n        /* \"#utility.yul\":5045:5065   */\n      sub\n        /* \"#utility.yul\":5040:5042   */\n      0x20\n        /* \"#utility.yul\":5029:5038   */\n      dup4\n        /* \"#utility.yul\":5025:5043   */\n      add\n        /* \"#utility.yul\":5018:5066   */\n      mstore\n        /* \"#utility.yul\":5083:5161   */\n      tag_202\n        /* \"#utility.yul\":5156:5160   */\n      dup2\n        /* \"#utility.yul\":5147:5153   */\n      dup9\n        /* \"#utility.yul\":5083:5161   */\n      tag_186\n      jump\t// in\n    tag_202:\n        /* \"#utility.yul\":5075:5161   */\n      swap1\n      pop\n        /* \"#utility.yul\":5208:5217   */\n      dup2\n        /* \"#utility.yul\":5202:5206   */\n      dup2\n        /* \"#utility.yul\":5198:5218   */\n      sub\n        /* \"#utility.yul\":5193:5195   */\n      0x40\n        /* \"#utility.yul\":5182:5191   */\n      dup4\n        /* \"#utility.yul\":5178:5196   */\n      add\n        /* \"#utility.yul\":5171:5219   */\n      mstore\n        /* \"#utility.yul\":5236:5314   */\n      tag_203\n        /* \"#utility.yul\":5309:5313   */\n      dup2\n        /* \"#utility.yul\":5300:5306   */\n      dup8\n        /* \"#utility.yul\":5236:5314   */\n      tag_186\n      jump\t// in\n    tag_203:\n        /* \"#utility.yul\":5228:5314   */\n      swap1\n      pop\n        /* \"#utility.yul\":5324:5396   */\n      tag_204\n        /* \"#utility.yul\":5392:5394   */\n      0x60\n        /* \"#utility.yul\":5381:5390   */\n      dup4\n        /* \"#utility.yul\":5377:5395   */\n      add\n        /* \"#utility.yul\":5368:5374   */\n      dup7\n        /* \"#utility.yul\":5324:5396   */\n      tag_196\n      jump\t// in\n    tag_204:\n        /* \"#utility.yul\":5406:5479   */\n      tag_205\n        /* \"#utility.yul\":5474:5477   */\n      0x80\n        /* \"#utility.yul\":5463:5472   */\n      dup4\n        /* \"#utility.yul\":5459:5478   */\n      add\n        /* \"#utility.yul\":5450:5456   */\n      dup6\n        /* \"#utility.yul\":5406:5479   */\n      tag_196\n      jump\t// in\n    tag_205:\n        /* \"#utility.yul\":5489:5556   */\n      tag_206\n        /* \"#utility.yul\":5551:5554   */\n      0xa0\n        /* \"#utility.yul\":5540:5549   */\n      dup4\n        /* \"#utility.yul\":5536:5555   */\n      add\n        /* \"#utility.yul\":5527:5533   */\n      dup5\n        /* \"#utility.yul\":5489:5556   */\n      tag_182\n      jump\t// in\n    tag_206:\n        /* \"#utility.yul\":4586:5563   */\n      swap8\n      swap7\n      pop\n      pop\n      pop\n      pop\n      pop\n      pop\n      pop\n      jump\t// out\n        /* \"#utility.yul\":5569:5779   */\n    tag_35:\n        /* \"#utility.yul\":5656:5660   */\n      0x00\n        /* \"#utility.yul\":5694:5696   */\n      0x20\n        /* \"#utility.yul\":5683:5692   */\n      dup3\n        /* \"#utility.yul\":5679:5697   */\n      add\n        /* \"#utility.yul\":5671:5697   */\n      swap1\n      pop\n        /* \"#utility.yul\":5707:5772   */\n      tag_208\n        /* \"#utility.yul\":5769:5770   */\n      0x00\n        /* \"#utility.yul\":5758:5767   */\n      dup4\n        /* \"#utility.yul\":5754:5771   */\n      add\n        /* \"#utility.yul\":5745:5751   */\n      dup5\n        /* \"#utility.yul\":5707:5772   */\n      tag_182\n      jump\t// in\n    tag_208:\n        /* \"#utility.yul\":5569:5779   */\n      swap3\n      swap2\n      pop\n      pop\n      jump\t// out\n        /* \"#utility.yul\":5785:6007   */\n    tag_21:\n        /* \"#utility.yul\":5878:5882   */\n      0x00\n        /* \"#utility.yul\":5916:5918   */\n      0x20\n        /* \"#utility.yul\":5905:5914   */\n      dup3\n        /* \"#utility.yul\":5901:5919   */\n      add\n        /* \"#utility.yul\":5893:5919   */\n      swap1\n      pop\n        /* \"#utility.yul\":5929:6000   */\n      tag_210\n        /* \"#utility.yul\":5997:5998   */\n      0x00\n        /* \"#utility.yul\":5986:5995   */\n      dup4\n        /* \"#utility.yul\":5982:5999   */\n      add\n        /* \"#utility.yul\":5973:5979   */\n      dup5\n        /* \"#utility.yul\":5929:6000   */\n      tag_196\n      jump\t// in\n    tag_210:\n        /* \"#utility.yul\":5785:6007   */\n      swap3\n      swap2\n      pop\n      pop\n      jump\t// out\n        /* \"#utility.yul\":6013:6142   */\n    tag_123:\n        /* \"#utility.yul\":6047:6053   */\n      0x00\n        /* \"#utility.yul\":6074:6094   */\n      tag_212\n      tag_213\n      jump\t// in\n    tag_212:\n        /* \"#utility.yul\":6064:6094   */\n      swap1\n      pop\n        /* \"#utility.yul\":6103:6136   */\n      tag_214\n        /* \"#utility.yul\":6131:6135   */\n      dup3\n        /* \"#utility.yul\":6123:6129   */\n      dup3\n        /* \"#utility.yul\":6103:6136   */\n      tag_215\n      jump\t// in\n    tag_214:\n        /* \"#utility.yul\":6013:6142   */\n      swap2\n      swap1\n      pop\n      jump\t// out\n        /* \"#utility.yul\":6148:6223   */\n    tag_213:\n        /* \"#utility.yul\":6181:6187   */\n      0x00\n        /* \"#utility.yul\":6214:6216   */\n      0x40\n        /* \"#utility.yul\":6208:6217   */\n      mload\n        /* \"#utility.yul\":6198:6217   */\n      swap1\n      pop\n        /* \"#utility.yul\":6148:6223   */\n      swap1\n      jump\t// out\n        /* \"#utility.yul\":6229:6537   */\n    tag_122:\n        /* \"#utility.yul\":6291:6295   */\n      0x00\n        /* \"#utility.yul\":6381:6399   */\n      0xffffffffffffffff\n        /* \"#utility.yul\":6373:6379   */\n      dup3\n        /* \"#utility.yul\":6370:6400   */\n      gt\n        /* \"#utility.yul\":6367:6423   */\n      iszero\n      tag_218\n      jumpi\n        /* \"#utility.yul\":6403:6421   */\n      tag_219\n      tag_220\n      jump\t// in\n    tag_219:\n        /* \"#utility.yul\":6367:6423   */\n    tag_218:\n        /* \"#utility.yul\":6441:6470   */\n      tag_221\n        /* \"#utility.yul\":6463:6469   */\n      dup3\n        /* \"#utility.yul\":6441:6470   */\n      tag_195\n      jump\t// in\n    tag_221:\n        /* \"#utility.yul\":6433:6470   */\n      swap1\n      pop\n        /* \"#utility.yul\":6525:6529   */\n      0x20\n        /* \"#utility.yul\":6519:6523   */\n      dup2\n        /* \"#utility.yul\":6515:6530   */\n      add\n        /* \"#utility.yul\":6507:6530   */\n      swap1\n      pop\n        /* \"#utility.yul\":6229:6537   */\n      swap2\n      swap1\n      pop\n      jump\t// out\n        /* \"#utility.yul\":6543:6642   */\n    tag_189:\n        /* \"#utility.yul\":6595:6601   */\n      0x00\n        /* \"#utility.yul\":6629:6634   */\n      dup2\n        /* \"#utility.yul\":6623:6635   */\n      mload\n        /* \"#utility.yul\":6613:6635   */\n      swap1\n      pop\n        /* \"#utility.yul\":6543:6642   */\n      swap2\n      swap1\n      pop\n      jump\t// out\n        /* \"#utility.yul\":6648:6817   */\n    tag_191:\n        /* \"#utility.yul\":6732:6743   */\n      0x00\n        /* \"#utility.yul\":6766:6772   */\n      dup3\n        /* \"#utility.yul\":6761:6764   */\n      dup3\n        /* \"#utility.yul\":6754:6773   */\n      mstore\n        /* \"#utility.yul\":6806:6810   */\n      0x20\n        /* \"#utility.yul\":6801:6804   */\n      dup3\n        /* \"#utility.yul\":6797:6811   */\n      add\n        /* \"#utility.yul\":6782:6811   */\n      swap1\n      pop\n        /* \"#utility.yul\":6648:6817   */\n      swap3\n      swap2\n      pop\n      pop\n      jump\t// out\n        /* \"#utility.yul\":6823:7128   */\n    tag_105:\n        /* \"#utility.yul\":6863:6866   */\n      0x00\n        /* \"#utility.yul\":6882:6902   */\n      tag_225\n        /* \"#utility.yul\":6900:6901   */\n      dup3\n        /* \"#utility.yul\":6882:6902   */\n      tag_199\n      jump\t// in\n    tag_225:\n        /* \"#utility.yul\":6877:6902   */\n      swap2\n      pop\n        /* \"#utility.yul\":6916:6936   */\n      tag_226\n        /* \"#utility.yul\":6934:6935   */\n      dup4\n        /* \"#utility.yul\":6916:6936   */\n      tag_199\n      jump\t// in\n    tag_226:\n        /* \"#utility.yul\":6911:6936   */\n      swap3\n      pop\n        /* \"#utility.yul\":7070:7071   */\n      dup3\n        /* \"#utility.yul\":7002:7068   */\n      0xffffffffffffffffffffffffffffffffffffffffffffffffffffffffffffffff\n        /* \"#utility.yul\":6998:7072   */\n      sub\n        /* \"#utility.yul\":6995:6996   */\n      dup3\n        /* \"#utility.yul\":6992:7073   */\n      gt\n        /* \"#utility.yul\":6989:7096   */\n      iszero\n      tag_227\n      jumpi\n        /* \"#utility.yul\":7076:7094   */\n      tag_228\n      tag_229\n      jump\t// in\n    tag_228:\n        /* \"#utility.yul\":6989:7096   */\n    tag_227:\n        /* \"#utility.yul\":7120:7121   */\n      dup3\n        /* \"#utility.yul\":7117:7118   */\n      dup3\n        /* \"#utility.yul\":7113:7122   */\n      add\n        /* \"#utility.yul\":7106:7122   */\n      swap1\n      pop\n        /* \"#utility.yul\":6823:7128   */\n      swap3\n      swap2\n      pop\n      pop\n      jump\t// out\n        /* \"#utility.yul\":7134:7230   */\n    tag_230:\n        /* \"#utility.yul\":7171:7178   */\n      0x00\n        /* \"#utility.yul\":7200:7224   */\n      tag_232\n        /* \"#utility.yul\":7218:7223   */\n      dup3\n        /* \"#utility.yul\":7200:7224   */\n      tag_233\n      jump\t// in\n    tag_232:\n        /* \"#utility.yul\":7189:7224   */\n      swap1\n      pop\n        /* \"#utility.yul\":7134:7230   */\n      swap2\n      swap1\n      pop\n      jump\t// out\n        /* \"#utility.yul\":7236:7340   */\n    tag_181:\n        /* \"#utility.yul\":7281:7288   */\n      0x00\n        /* \"#utility.yul\":7310:7334   */\n      tag_235\n        /* \"#utility.yul\":7328:7333   */\n      dup3\n        /* \"#utility.yul\":7310:7334   */\n      tag_233\n      jump\t// in\n    tag_235:\n        /* \"#utility.yul\":7299:7334   */\n      swap1\n      pop\n        /* \"#utility.yul\":7236:7340   */\n      swap2\n      swap1\n      pop\n      jump\t// out\n        /* \"#utility.yul\":7346:7436   */\n    tag_185:\n        /* \"#utility.yul\":7380:7387   */\n      0x00\n        /* \"#utility.yul\":7423:7428   */\n      dup2\n        /* \"#utility.yul\":7416:7429   */\n      iszero\n        /* \"#utility.yul\":7409:7430   */\n      iszero\n        /* \"#utility.yul\":7398:7430   */\n      swap1\n      pop\n        /* \"#utility.yul\":7346:7436   */\n      swap2\n      swap1\n      pop\n      jump\t// out\n        /* \"#utility.yul\":7442:7568   */\n    tag_233:\n        /* \"#utility.yul\":7479:7486   */\n      0x00\n        /* \"#utility.yul\":7519:7561   */\n      0xffffffffffffffffffffffffffffffffffffffff\n        /* \"#utility.yul\":7512:7517   */\n      dup3\n        /* \"#utility.yul\":7508:7562   */\n      and\n        /* \"#utility.yul\":7497:7562   */\n      swap1\n      pop\n        /* \"#utility.yul\":7442:7568   */\n      swap2\n      swap1\n      pop\n      jump\t// out\n        /* \"#utility.yul\":7574:7651   */\n    tag_199:\n        /* \"#utility.yul\":7611:7618   */\n      0x00\n        /* \"#utility.yul\":7640:7645   */\n      dup2\n        /* \"#utility.yul\":7629:7645   */\n      swap1\n      pop\n        /* \"#utility.yul\":7574:7651   */\n      swap2\n      swap1\n      pop\n      jump\t// out\n        /* \"#utility.yul\":7657:7811   */\n    tag_128:\n        /* \"#utility.yul\":7741:7747   */\n      dup3\n        /* \"#utility.yul\":7736:7739   */\n      dup2\n        /* \"#utility.yul\":7731:7734   */\n      dup4\n        /* \"#utility.yul\":7718:7748   */\n      calldatacopy\n        /* \"#utility.yul\":7803:7804   */\n      0x00\n        /* \"#utility.yul\":7794:7800   */\n      dup4\n        /* \"#utility.yul\":7789:7792   */\n      dup4\n        /* \"#utility.yul\":7785:7801   */\n      add\n        /* \"#utility.yul\":7778:7805   */\n      mstore\n        /* \"#utility.yul\":7657:7811   */\n      pop\n      pop\n      pop\n      jump\t// out\n        /* \"#utility.yul\":7817:8124   */\n    tag_193:\n        /* \"#utility.yul\":7885:7886   */\n      0x00\n        /* \"#utility.yul\":7895:8008   */\n    tag_241:\n        /* \"#utility.yul\":7909:7915   */\n      dup4\n        /* \"#utility.yul\":7906:7907   */\n      dup2\n        /* \"#utility.yul\":7903:7916   */\n      lt\n        /* \"#utility.yul\":7895:8008   */\n      iszero\n      tag_243\n      jumpi\n        /* \"#utility.yul\":7994:7995   */\n      dup1\n        /* \"#utility.yul\":7989:7992   */\n      dup3\n        /* \"#utility.yul\":7985:7996   */\n      add\n        /* \"#utility.yul\":7979:7997   */\n      mload\n        /* \"#utility.yul\":7975:7976   */\n      dup2\n        /* \"#utility.yul\":7970:7973   */\n      dup5\n        /* \"#utility.yul\":7966:7977   */\n      add\n        /* \"#utility.yul\":7959:7998   */\n      mstore\n        /* \"#utility.yul\":7931:7933   */\n      0x20\n        /* \"#utility.yul\":7928:7929   */\n      dup2\n        /* \"#utility.yul\":7924:7934   */\n      add\n        /* \"#utility.yul\":7919:7934   */\n      swap1\n      pop\n        /* \"#utility.yul\":7895:8008   */\n      jump(tag_241)\n    tag_243:\n        /* \"#utility.yul\":8026:8032   */\n      dup4\n        /* \"#utility.yul\":8023:8024   */\n      dup2\n        /* \"#utility.yul\":8020:8033   */\n      gt\n        /* \"#utility.yul\":8017:8118   */\n      iszero\n      tag_244\n      jumpi\n        /* \"#utility.yul\":8106:8107   */\n      0x00\n        /* \"#utility.yul\":8097:8103   */\n      dup5\n        /* \"#utility.yul\":8092:8095   */\n      dup5\n        /* \"#utility.yul\":8088:8104   */\n      add\n        /* \"#utility.yul\":8081:8108   */\n      mstore\n        /* \"#utility.yul\":8017:8118   */\n    tag_244:\n        /* \"#utility.yul\":7866:8124   */\n      pop\n        /* \"#utility.yul\":7817:8124   */\n      pop\n      pop\n      pop\n      jump\t// out\n        /* \"#utility.yul\":8130:8450   */\n    tag_60:\n        /* \"#utility.yul\":8174:8180   */\n      0x00\n        /* \"#utility.yul\":8211:8212   */\n      0x02\n        /* \"#utility.yul\":8205:8209   */\n      dup3\n        /* \"#utility.yul\":8201:8213   */\n      div\n        /* \"#utility.yul\":8191:8213   */\n      swap1\n      pop\n        /* \"#utility.yul\":8258:8259   */\n      0x01\n        /* \"#utility.yul\":8252:8256   */\n      dup3\n        /* \"#utility.yul\":8248:8260   */\n      and\n        /* \"#utility.yul\":8279:8297   */\n      dup1\n        /* \"#utility.yul\":8269:8350   */\n      tag_246\n      jumpi\n        /* \"#utility.yul\":8335:8339   */\n      0x7f\n        /* \"#utility.yul\":8327:8333   */\n      dup3\n        /* \"#utility.yul\":8323:8340   */\n      and\n        /* \"#utility.yul\":8313:8340   */\n      swap2\n      pop\n        /* \"#utility.yul\":8269:8350   */\n    tag_246:\n        /* \"#utility.yul\":8397:8399   */\n      0x20\n        /* \"#utility.yul\":8389:8395   */\n      dup3\n        /* \"#utility.yul\":8386:8400   */\n      lt\n        /* \"#utility.yul\":8366:8384   */\n      dup2\n        /* \"#utility.yul\":8363:8401   */\n      eq\n        /* \"#utility.yul\":8360:8444   */\n      iszero\n      tag_247\n      jumpi\n        /* \"#utility.yul\":8416:8434   */\n      tag_248\n      tag_249\n      jump\t// in\n    tag_248:\n        /* \"#utility.yul\":8360:8444   */\n    tag_247:\n        /* \"#utility.yul\":8181:8450   */\n      pop\n        /* \"#utility.yul\":8130:8450   */\n      swap2\n      swap1\n      pop\n      jump\t// out\n        /* \"#utility.yul\":8456:8737   */\n    tag_215:\n        /* \"#utility.yul\":8539:8566   */\n      tag_251\n        /* \"#utility.yul\":8561:8565   */\n      dup3\n        /* \"#utility.yul\":8539:8566   */\n      tag_195\n      jump\t// in\n    tag_251:\n        /* \"#utility.yul\":8531:8537   */\n      dup2\n        /* \"#utility.yul\":8527:8567   */\n      add\n        /* \"#utility.yul\":8669:8675   */\n      dup2\n        /* \"#utility.yul\":8657:8667   */\n      dup2\n        /* \"#utility.yul\":8654:8676   */\n      lt\n        /* \"#utility.yul\":8633:8651   */\n      0xffffffffffffffff\n        /* \"#utility.yul\":8621:8631   */\n      dup3\n        /* \"#utility.yul\":8618:8652   */\n      gt\n        /* \"#utility.yul\":8615:8677   */\n      or\n        /* \"#utility.yul\":8612:8700   */\n      iszero\n      tag_252\n      jumpi\n        /* \"#utility.yul\":8680:8698   */\n      tag_253\n      tag_220\n      jump\t// in\n    tag_253:\n        /* \"#utility.yul\":8612:8700   */\n    tag_252:\n        /* \"#utility.yul\":8720:8730   */\n      dup1\n        /* \"#utility.yul\":8716:8718   */\n      0x40\n        /* \"#utility.yul\":8709:8731   */\n      mstore\n        /* \"#utility.yul\":8499:8737   */\n      pop\n        /* \"#utility.yul\":8456:8737   */\n      pop\n      pop\n      jump\t// out\n        /* \"#utility.yul\":8743:8976   */\n    tag_92:\n        /* \"#utility.yul\":8782:8785   */\n      0x00\n        /* \"#utility.yul\":8805:8829   */\n      tag_255\n        /* \"#utility.yul\":8823:8828   */\n      dup3\n        /* \"#utility.yul\":8805:8829   */\n      tag_199\n      jump\t// in\n    tag_255:\n        /* \"#utility.yul\":8796:8829   */\n      swap2\n      pop\n        /* \"#utility.yul\":8851:8917   */\n      0xffffffffffffffffffffffffffffffffffffffffffffffffffffffffffffffff\n        /* \"#utility.yul\":8844:8849   */\n      dup3\n        /* \"#utility.yul\":8841:8918   */\n      eq\n        /* \"#utility.yul\":8838:8941   */\n      iszero\n      tag_256\n      jumpi\n        /* \"#utility.yul\":8921:8939   */\n      tag_257\n      tag_229\n      jump\t// in\n    tag_257:\n        /* \"#utility.yul\":8838:8941   */\n    tag_256:\n        /* \"#utility.yul\":8968:8969   */\n      0x01\n        /* \"#utility.yul\":8961:8966   */\n      dup3\n        /* \"#utility.yul\":8957:8970   */\n      add\n        /* \"#utility.yul\":8950:8970   */\n      swap1\n      pop\n        /* \"#utility.yul\":8743:8976   */\n      swap2\n      swap1\n      pop\n      jump\t// out\n        /* \"#utility.yul\":8982:9162   */\n    tag_229:\n        /* \"#utility.yul\":9030:9107   */\n      0x4e487b7100000000000000000000000000000000000000000000000000000000\n        /* \"#utility.yul\":9027:9028   */\n      0x00\n        /* \"#utility.yul\":9020:9108   */\n      mstore\n        /* \"#utility.yul\":9127:9131   */\n      0x11\n        /* \"#utility.yul\":9124:9125   */\n      0x04\n        /* \"#utility.yul\":9117:9132   */\n      mstore\n        /* \"#utility.yul\":9151:9155   */\n      0x24\n        /* \"#utility.yul\":9148:9149   */\n      0x00\n        /* \"#utility.yul\":9141:9156   */\n      revert\n        /* \"#utility.yul\":9168:9348   */\n    tag_249:\n        /* \"#utility.yul\":9216:9293   */\n      0x4e487b7100000000000000000000000000000000000000000000000000000000\n        /* \"#utility.yul\":9213:9214   */\n      0x00\n        /* \"#utility.yul\":9206:9294   */\n      mstore\n        /* \"#utility.yul\":9313:9317   */\n      0x22\n        /* \"#utility.yul\":9310:9311   */\n      0x04\n        /* \"#utility.yul\":9303:9318   */\n      mstore\n        /* \"#utility.yul\":9337:9341   */\n      0x24\n        /* \"#utility.yul\":9334:9335   */\n      0x00\n        /* \"#utility.yul\":9327:9342   */\n      revert\n        /* \"#utility.yul\":9354:9534   */\n    tag_49:\n        /* \"#utility.yul\":9402:9479   */\n      0x4e487b7100000000000000000000000000000000000000000000000000000000\n        /* \"#utility.yul\":9399:9400   */\n      0x00\n        /* \"#utility.yul\":9392:9480   */\n      mstore\n        /* \"#utility.yul\":9499:9503   */\n      0x32\n        /* \"#utility.yul\":9496:9497   */\n      0x04\n        /* \"#utility.yul\":9489:9504   */\n      mstore\n        /* \"#utility.yul\":9523:9527   */\n      0x24\n        /* \"#utility.yul\":9520:9521   */\n      0x00\n        /* \"#utility.yul\":9513:9528   */\n      revert\n        /* \"#utility.yul\":9540:9720   */\n    tag_220:\n        /* \"#utility.yul\":9588:9665   */\n      0x4e487b7100000000000000000000000000000000000000000000000000000000\n        /* \"#utility.yul\":9585:9586   */\n      0x00\n        /* \"#utility.yul\":9578:9666   */\n      mstore\n        /* \"#utility.yul\":9685:9689   */\n      0x41\n        /* \"#utility.yul\":9682:9683   */\n      0x04\n        /* \"#utility.yul\":9675:9690   */\n      mstore\n        /* \"#utility.yul\":9709:9713   */\n      0x24\n        /* \"#utility.yul\":9706:9707   */\n      0x00\n        /* \"#utility.yul\":9699:9714   */\n      revert\n        /* \"#utility.yul\":9726:9843   */\n    tag_145:\n        /* \"#utility.yul\":9835:9836   */\n      0x00\n        /* \"#utility.yul\":9832:9833   */\n      dup1\n        /* \"#utility.yul\":9825:9837   */\n      revert\n        /* \"#utility.yul\":9849:9966   */\n    tag_126:\n        /* \"#utility.yul\":9958:9959   */\n      0x00\n        /* \"#utility.yul\":9955:9956   */\n      dup1\n        /* \"#utility.yul\":9948:9960   */\n      revert\n        /* \"#utility.yul\":9972:10089   */\n    tag_166:\n        /* \"#utility.yul\":10081:10082   */\n      0x00\n        /* \"#utility.yul\":10078:10079   */\n      dup1\n        /* \"#utility.yul\":10071:10083   */\n      revert\n        /* \"#utility.yul\":10095:10212   */\n    tag_154:\n        /* \"#utility.yul\":10204:10205   */\n      0x00\n        /* \"#utility.yul\":10201:10202   */\n      dup1\n        /* \"#utility.yul\":10194:10206   */\n      revert\n        /* \"#utility.yul\":10218:10320   */\n    tag_195:\n        /* \"#utility.yul\":10259:10265   */\n      0x00\n        /* \"#utility.yul\":10310:10312   */\n      0x1f\n        /* \"#utility.yul\":10306:10313   */\n      not\n        /* \"#utility.yul\":10301:10303   */\n      0x1f\n        /* \"#utility.yul\":10294:10299   */\n      dup4\n        /* \"#utility.yul\":10290:10304   */\n      add\n        /* \"#utility.yul\":10286:10314   */\n      and\n        /* \"#utility.yul\":10276:10314   */\n      swap1\n      pop\n        /* \"#utility.yul\":10218:10320   */\n      swap2\n      swap1\n      pop\n      jump\t// out\n        /* \"#utility.yul\":10326:10448   */\n    tag_132:\n        /* \"#utility.yul\":10399:10423   */\n      tag_268\n        /* \"#utility.yul\":10417:10422   */\n      dup2\n        /* \"#utility.yul\":10399:10423   */\n      tag_230\n      jump\t// in\n    tag_268:\n        /* \"#utility.yul\":10392:10397   */\n      dup2\n        /* \"#utility.yul\":10389:10424   */\n      eq\n        /* \"#utility.yul\":10379:10442   */\n      tag_269\n      jumpi\n        /* \"#utility.yul\":10438:10439   */\n      0x00\n        /* \"#utility.yul\":10435:10436   */\n      dup1\n        /* \"#utility.yul\":10428:10440   */\n      revert\n        /* \"#utility.yul\":10379:10442   */\n    tag_269:\n        /* \"#utility.yul\":10326:10448   */\n      pop\n      jump\t// out\n        /* \"#utility.yul\":10454:10592   */\n    tag_136:\n        /* \"#utility.yul\":10535:10567   */\n      tag_271\n        /* \"#utility.yul\":10561:10566   */\n      dup2\n        /* \"#utility.yul\":10535:10567   */\n      tag_181\n      jump\t// in\n    tag_271:\n        /* \"#utility.yul\":10528:10533   */\n      dup2\n        /* \"#utility.yul\":10525:10568   */\n      eq\n        /* \"#utility.yul\":10515:10586   */\n      tag_272\n      jumpi\n        /* \"#utility.yul\":10582:10583   */\n      0x00\n        /* \"#utility.yul\":10579:10580   */\n      dup1\n        /* \"#utility.yul\":10572:10584   */\n      revert\n        /* \"#utility.yul\":10515:10586   */\n    tag_272:\n        /* \"#utility.yul\":10454:10592   */\n      pop\n      jump\t// out\n        /* \"#utility.yul\":10598:10714   */\n    tag_140:\n        /* \"#utility.yul\":10668:10689   */\n      tag_274\n        /* \"#utility.yul\":10683:10688   */\n      dup2\n        /* \"#utility.yul\":10668:10689   */\n      tag_185\n      jump\t// in\n    tag_274:\n        /* \"#utility.yul\":10661:10666   */\n      dup2\n        /* \"#utility.yul\":10658:10690   */\n      eq\n        /* \"#utility.yul\":10648:10708   */\n      tag_275\n      jumpi\n        /* \"#utility.yul\":10704:10705   */\n      0x00\n        /* \"#utility.yul\":10701:10702   */\n      dup1\n        /* \"#utility.yul\":10694:10706   */\n      revert\n        /* \"#utility.yul\":10648:10708   */\n    tag_275:\n        /* \"#utility.yul\":10598:10714   */\n      pop\n      jump\t// out\n        /* \"#utility.yul\":10720:10842   */\n    tag_150:\n        /* \"#utility.yul\":10793:10817   */\n      tag_277\n        /* \"#utility.yul\":10811:10816   */\n      dup2\n        /* \"#utility.yul\":10793:10817   */\n      tag_199\n      jump\t// in\n    tag_277:\n        /* \"#utility.yul\":10786:10791   */\n      dup2\n        /* \"#utility.yul\":10783:10818   */\n      eq\n        /* \"#utility.yul\":10773:10836   */\n      tag_278\n      jumpi\n        /* \"#utility.yul\":10832:10833   */\n      0x00\n        /* \"#utility.yul\":10829:10830   */\n      dup1\n        /* \"#utility.yul\":10822:10834   */\n      revert\n        /* \"#utility.yul\":10773:10836   */\n    tag_278:\n        /* \"#utility.yul\":10720:10842   */\n      pop\n      jump\t// out\n\n    auxdata: 0xa264697066735822122088e766edfd2a15fecd21d98b1ad0765333cd7d3cf9783bf2eb3ace9eac96887f64736f6c63430008070033\n}\n",
				"bytecode": {
					"linkReferences": {},
					"object": "608060405234801561001057600080fd5b50336000806101000a81548173ffffffffffffffffffffffffffffffffffffffff021916908373ffffffffffffffffffffffffffffffffffffffff160217905550610e53806100606000396000f3fe6080604052600436106100555760003560e01c806331d575c51461005a57806351cff8d914610083578063722713f71461009f5780637285fd3a146100ca578063a25db8ce1461010c578063f340fa0114610149575b600080fd5b34801561006657600080fd5b50610081600480360381019061007c91906108d3565b610165565b005b61009d600480360381019061009891906108a6565b610294565b005b3480156100ab57600080fd5b506100b4610356565b6040516100c19190610ab5565b60405180910390f35b3480156100d657600080fd5b506100f160048036038101906100ec9190610998565b61035e565b60405161010396959493929190610a2b565b60405180910390f35b34801561011857600080fd5b50610133600480360381019061012e9190610879565b6104e7565b6040516101409190610a9a565b60405180910390f35b610163600480360381019061015e9190610879565b610573565b005b60016040518060c001604052808873ffffffffffffffffffffffffffffffffffffffff168152602001878152602001868152602001858152602001848152602001831515815250908060018154018082558091505060019003906000526020600020906006020160009091909190915060008201518160000160006101000a81548173ffffffffffffffffffffffffffffffffffffffff021916908373ffffffffffffffffffffffffffffffffffffffff1602179055506020820151816001019080519060200190610238929190610712565b506040820151816002019080519060200190610255929190610712565b50606082015181600301556080820151816004015560a08201518160050160006101000a81548160ff0219169083151502179055505050505050505050565b600061029f8261057f565b9050600181815481106102b5576102b4610d3e565b5b906000526020600020906006020160000160009054906101000a900473ffffffffffffffffffffffffffffffffffffffff1673ffffffffffffffffffffffffffffffffffffffff166108fc6001838154811061031457610313610d3e565b5b9060005260206000209060060201600401549081150290604051600060405180830381858888f19350505050158015610351573d6000803e3d6000fd5b505050565b600047905090565b6001818154811061036e57600080fd5b90600052602060002090600602016000915090508060000160009054906101000a900473ffffffffffffffffffffffffffffffffffffffff16908060010180546103b790610c34565b80601f01602080910402602001604051908101604052809291908181526020018280546103e390610c34565b80156104305780601f1061040557610100808354040283529160200191610430565b820191906000526020600020905b81548152906001019060200180831161041357829003601f168201915b50505050509080600201805461044590610c34565b80601f016020809104026020016040519081016040528092919081815260200182805461047190610c34565b80156104be5780601f10610493576101008083540402835291602001916104be565b820191906000526020600020905b8154815290600101906020018083116104a157829003601f168201915b5050505050908060030154908060040154908060050160009054906101000a900460ff16905086565b6000806104f38361057f565b90506001818154811061050957610508610d3e565b5b906000526020600020906006020160030154421061056857600180828154811061053657610535610d3e565b5b906000526020600020906006020160050160006101000a81548160ff021916908315150217905550600191505061056e565b60009150505b919050565b61057c81610635565b50565b600080600090505b600180549050811015610629578273ffffffffffffffffffffffffffffffffffffffff16600182815481106105bf576105be610d3e565b5b906000526020600020906006020160000160009054906101000a900473ffffffffffffffffffffffffffffffffffffffff1673ffffffffffffffffffffffffffffffffffffffff1614156106165780915050610630565b808061062190610c97565b915050610587565b506103e790505b919050565b60005b60018054905081101561070e578173ffffffffffffffffffffffffffffffffffffffff16600182815481106106705761066f610d3e565b5b906000526020600020906006020160000160009054906101000a900473ffffffffffffffffffffffffffffffffffffffff1673ffffffffffffffffffffffffffffffffffffffff1614156106fb5734600182815481106106d3576106d2610d3e565b5b906000526020600020906006020160040160008282546106f39190610b42565b925050819055505b808061070690610c97565b915050610638565b5050565b82805461071e90610c34565b90600052602060002090601f0160209004810192826107405760008555610787565b82601f1061075957805160ff1916838001178555610787565b82800160010185558215610787579182015b8281111561078657825182559160200191906001019061076b565b5b5090506107949190610798565b5090565b5b808211156107b1576000816000905550600101610799565b5090565b60006107c86107c384610af5565b610ad0565b9050828152602081018484840111156107e4576107e3610da1565b5b6107ef848285610bf2565b509392505050565b60008135905061080681610dc1565b92915050565b60008135905061081b81610dd8565b92915050565b60008135905061083081610def565b92915050565b600082601f83011261084b5761084a610d9c565b5b813561085b8482602086016107b5565b91505092915050565b60008135905061087381610e06565b92915050565b60006020828403121561088f5761088e610dab565b5b600061089d848285016107f7565b91505092915050565b6000602082840312156108bc576108bb610dab565b5b60006108ca8482850161080c565b91505092915050565b60008060008060008060c087890312156108f0576108ef610dab565b5b60006108fe89828a0161080c565b965050602087013567ffffffffffffffff81111561091f5761091e610da6565b5b61092b89828a01610836565b955050604087013567ffffffffffffffff81111561094c5761094b610da6565b5b61095889828a01610836565b945050606061096989828a01610864565b935050608061097a89828a01610864565b92505060a061098b89828a01610821565b9150509295509295509295565b6000602082840312156109ae576109ad610dab565b5b60006109bc84828501610864565b91505092915050565b6109ce81610baa565b82525050565b6109dd81610bbc565b82525050565b60006109ee82610b26565b6109f88185610b31565b9350610a08818560208601610c01565b610a1181610db0565b840191505092915050565b610a2581610be8565b82525050565b600060c082019050610a4060008301896109c5565b8181036020830152610a5281886109e3565b90508181036040830152610a6681876109e3565b9050610a756060830186610a1c565b610a826080830185610a1c565b610a8f60a08301846109d4565b979650505050505050565b6000602082019050610aaf60008301846109d4565b92915050565b6000602082019050610aca6000830184610a1c565b92915050565b6000610ada610aeb565b9050610ae68282610c66565b919050565b6000604051905090565b600067ffffffffffffffff821115610b1057610b0f610d6d565b5b610b1982610db0565b9050602081019050919050565b600081519050919050565b600082825260208201905092915050565b6000610b4d82610be8565b9150610b5883610be8565b9250827fffffffffffffffffffffffffffffffffffffffffffffffffffffffffffffffff03821115610b8d57610b8c610ce0565b5b828201905092915050565b6000610ba382610bc8565b9050919050565b6000610bb582610bc8565b9050919050565b60008115159050919050565b600073ffffffffffffffffffffffffffffffffffffffff82169050919050565b6000819050919050565b82818337600083830152505050565b60005b83811015610c1f578082015181840152602081019050610c04565b83811115610c2e576000848401525b50505050565b60006002820490506001821680610c4c57607f821691505b60208210811415610c6057610c5f610d0f565b5b50919050565b610c6f82610db0565b810181811067ffffffffffffffff82111715610c8e57610c8d610d6d565b5b80604052505050565b6000610ca282610be8565b91507fffffffffffffffffffffffffffffffffffffffffffffffffffffffffffffffff821415610cd557610cd4610ce0565b5b600182019050919050565b7f4e487b7100000000000000000000000000000000000000000000000000000000600052601160045260246000fd5b7f4e487b7100000000000000000000000000000000000000000000000000000000600052602260045260246000fd5b7f4e487b7100000000000000000000000000000000000000000000000000000000600052603260045260246000fd5b7f4e487b7100000000000000000000000000000000000000000000000000000000600052604160045260246000fd5b600080fd5b600080fd5b600080fd5b600080fd5b6000601f19601f8301169050919050565b610dca81610b98565b8114610dd557600080fd5b50565b610de181610baa565b8114610dec57600080fd5b50565b610df881610bbc565b8114610e0357600080fd5b50565b610e0f81610be8565b8114610e1a57600080fd5b5056fea264697066735822122088e766edfd2a15fecd21d98b1ad0765333cd7d3cf9783bf2eb3ace9eac96887f64736f6c63430008070033",
					"opcodes": "PUSH1 0x80 PUSH1 0x40 MSTORE CALLVALUE DUP1 ISZERO PUSH2 0x10 JUMPI PUSH1 0x0 DUP1 REVERT JUMPDEST POP CALLER PUSH1 0x0 DUP1 PUSH2 0x100 EXP DUP2 SLOAD DUP2 PUSH20 0xFFFFFFFFFFFFFFFFFFFFFFFFFFFFFFFFFFFFFFFF MUL NOT AND SWAP1 DUP4 PUSH20 0xFFFFFFFFFFFFFFFFFFFFFFFFFFFFFFFFFFFFFFFF AND MUL OR SWAP1 SSTORE POP PUSH2 0xE53 DUP1 PUSH2 0x60 PUSH1 0x0 CODECOPY PUSH1 0x0 RETURN INVALID PUSH1 0x80 PUSH1 0x40 MSTORE PUSH1 0x4 CALLDATASIZE LT PUSH2 0x55 JUMPI PUSH1 0x0 CALLDATALOAD PUSH1 0xE0 SHR DUP1 PUSH4 0x31D575C5 EQ PUSH2 0x5A JUMPI DUP1 PUSH4 0x51CFF8D9 EQ PUSH2 0x83 JUMPI DUP1 PUSH4 0x722713F7 EQ PUSH2 0x9F JUMPI DUP1 PUSH4 0x7285FD3A EQ PUSH2 0xCA JUMPI DUP1 PUSH4 0xA25DB8CE EQ PUSH2 0x10C JUMPI DUP1 PUSH4 0xF340FA01 EQ PUSH2 0x149 JUMPI JUMPDEST PUSH1 0x0 DUP1 REVERT JUMPDEST CALLVALUE DUP1 ISZERO PUSH2 0x66 JUMPI PUSH1 0x0 DUP1 REVERT JUMPDEST POP PUSH2 0x81 PUSH1 0x4 DUP1 CALLDATASIZE SUB DUP2 ADD SWAP1 PUSH2 0x7C SWAP2 SWAP1 PUSH2 0x8D3 JUMP JUMPDEST PUSH2 0x165 JUMP JUMPDEST STOP JUMPDEST PUSH2 0x9D PUSH1 0x4 DUP1 CALLDATASIZE SUB DUP2 ADD SWAP1 PUSH2 0x98 SWAP2 SWAP1 PUSH2 0x8A6 JUMP JUMPDEST PUSH2 0x294 JUMP JUMPDEST STOP JUMPDEST CALLVALUE DUP1 ISZERO PUSH2 0xAB JUMPI PUSH1 0x0 DUP1 REVERT JUMPDEST POP PUSH2 0xB4 PUSH2 0x356 JUMP JUMPDEST PUSH1 0x40 MLOAD PUSH2 0xC1 SWAP2 SWAP1 PUSH2 0xAB5 JUMP JUMPDEST PUSH1 0x40 MLOAD DUP1 SWAP2 SUB SWAP1 RETURN JUMPDEST CALLVALUE DUP1 ISZERO PUSH2 0xD6 JUMPI PUSH1 0x0 DUP1 REVERT JUMPDEST POP PUSH2 0xF1 PUSH1 0x4 DUP1 CALLDATASIZE SUB DUP2 ADD SWAP1 PUSH2 0xEC SWAP2 SWAP1 PUSH2 0x998 JUMP JUMPDEST PUSH2 0x35E JUMP JUMPDEST PUSH1 0x40 MLOAD PUSH2 0x103 SWAP7 SWAP6 SWAP5 SWAP4 SWAP3 SWAP2 SWAP1 PUSH2 0xA2B JUMP JUMPDEST PUSH1 0x40 MLOAD DUP1 SWAP2 SUB SWAP1 RETURN JUMPDEST CALLVALUE DUP1 ISZERO PUSH2 0x118 JUMPI PUSH1 0x0 DUP1 REVERT JUMPDEST POP PUSH2 0x133 PUSH1 0x4 DUP1 CALLDATASIZE SUB DUP2 ADD SWAP1 PUSH2 0x12E SWAP2 SWAP1 PUSH2 0x879 JUMP JUMPDEST PUSH2 0x4E7 JUMP JUMPDEST PUSH1 0x40 MLOAD PUSH2 0x140 SWAP2 SWAP1 PUSH2 0xA9A JUMP JUMPDEST PUSH1 0x40 MLOAD DUP1 SWAP2 SUB SWAP1 RETURN JUMPDEST PUSH2 0x163 PUSH1 0x4 DUP1 CALLDATASIZE SUB DUP2 ADD SWAP1 PUSH2 0x15E SWAP2 SWAP1 PUSH2 0x879 JUMP JUMPDEST PUSH2 0x573 JUMP JUMPDEST STOP JUMPDEST PUSH1 0x1 PUSH1 0x40 MLOAD DUP1 PUSH1 0xC0 ADD PUSH1 0x40 MSTORE DUP1 DUP9 PUSH20 0xFFFFFFFFFFFFFFFFFFFFFFFFFFFFFFFFFFFFFFFF AND DUP2 MSTORE PUSH1 0x20 ADD DUP8 DUP2 MSTORE PUSH1 0x20 ADD DUP7 DUP2 MSTORE PUSH1 0x20 ADD DUP6 DUP2 MSTORE PUSH1 0x20 ADD DUP5 DUP2 MSTORE PUSH1 0x20 ADD DUP4 ISZERO ISZERO DUP2 MSTORE POP SWAP1 DUP1 PUSH1 0x1 DUP2 SLOAD ADD DUP1 DUP3 SSTORE DUP1 SWAP2 POP POP PUSH1 0x1 SWAP1 SUB SWAP1 PUSH1 0x0 MSTORE PUSH1 0x20 PUSH1 0x0 KECCAK256 SWAP1 PUSH1 0x6 MUL ADD PUSH1 0x0 SWAP1 SWAP2 SWAP1 SWAP2 SWAP1 SWAP2 POP PUSH1 0x0 DUP3 ADD MLOAD DUP2 PUSH1 0x0 ADD PUSH1 0x0 PUSH2 0x100 EXP DUP2 SLOAD DUP2 PUSH20 0xFFFFFFFFFFFFFFFFFFFFFFFFFFFFFFFFFFFFFFFF MUL NOT AND SWAP1 DUP4 PUSH20 0xFFFFFFFFFFFFFFFFFFFFFFFFFFFFFFFFFFFFFFFF AND MUL OR SWAP1 SSTORE POP PUSH1 0x20 DUP3 ADD MLOAD DUP2 PUSH1 0x1 ADD SWAP1 DUP1 MLOAD SWAP1 PUSH1 0x20 ADD SWAP1 PUSH2 0x238 SWAP3 SWAP2 SWAP1 PUSH2 0x712 JUMP JUMPDEST POP PUSH1 0x40 DUP3 ADD MLOAD DUP2 PUSH1 0x2 ADD SWAP1 DUP1 MLOAD SWAP1 PUSH1 0x20 ADD SWAP1 PUSH2 0x255 SWAP3 SWAP2 SWAP1 PUSH2 0x712 JUMP JUMPDEST POP PUSH1 0x60 DUP3 ADD MLOAD DUP2 PUSH1 0x3 ADD SSTORE PUSH1 0x80 DUP3 ADD MLOAD DUP2 PUSH1 0x4 ADD SSTORE PUSH1 0xA0 DUP3 ADD MLOAD DUP2 PUSH1 0x5 ADD PUSH1 0x0 PUSH2 0x100 EXP DUP2 SLOAD DUP2 PUSH1 0xFF MUL NOT AND SWAP1 DUP4 ISZERO ISZERO MUL OR SWAP1 SSTORE POP POP POP POP POP POP POP POP POP JUMP JUMPDEST PUSH1 0x0 PUSH2 0x29F DUP3 PUSH2 0x57F JUMP JUMPDEST SWAP1 POP PUSH1 0x1 DUP2 DUP2 SLOAD DUP2 LT PUSH2 0x2B5 JUMPI PUSH2 0x2B4 PUSH2 0xD3E JUMP JUMPDEST JUMPDEST SWAP1 PUSH1 0x0 MSTORE PUSH1 0x20 PUSH1 0x0 KECCAK256 SWAP1 PUSH1 0x6 MUL ADD PUSH1 0x0 ADD PUSH1 0x0 SWAP1 SLOAD SWAP1 PUSH2 0x100 EXP SWAP1 DIV PUSH20 0xFFFFFFFFFFFFFFFFFFFFFFFFFFFFFFFFFFFFFFFF AND PUSH20 0xFFFFFFFFFFFFFFFFFFFFFFFFFFFFFFFFFFFFFFFF AND PUSH2 0x8FC PUSH1 0x1 DUP4 DUP2 SLOAD DUP2 LT PUSH2 0x314 JUMPI PUSH2 0x313 PUSH2 0xD3E JUMP JUMPDEST JUMPDEST SWAP1 PUSH1 0x0 MSTORE PUSH1 0x20 PUSH1 0x0 KECCAK256 SWAP1 PUSH1 0x6 MUL ADD PUSH1 0x4 ADD SLOAD SWAP1 DUP2 ISZERO MUL SWAP1 PUSH1 0x40 MLOAD PUSH1 0x0 PUSH1 0x40 MLOAD DUP1 DUP4 SUB DUP2 DUP6 DUP9 DUP9 CALL SWAP4 POP POP POP POP ISZERO DUP1 ISZERO PUSH2 0x351 JUMPI RETURNDATASIZE PUSH1 0x0 DUP1 RETURNDATACOPY RETURNDATASIZE PUSH1 0x0 REVERT JUMPDEST POP POP POP JUMP JUMPDEST PUSH1 0x0 SELFBALANCE SWAP1 POP SWAP1 JUMP JUMPDEST PUSH1 0x1 DUP2 DUP2 SLOAD DUP2 LT PUSH2 0x36E JUMPI PUSH1 0x0 DUP1 REVERT JUMPDEST SWAP1 PUSH1 0x0 MSTORE PUSH1 0x20 PUSH1 0x0 KECCAK256 SWAP1 PUSH1 0x6 MUL ADD PUSH1 0x0 SWAP2 POP SWAP1 POP DUP1 PUSH1 0x0 ADD PUSH1 0x0 SWAP1 SLOAD SWAP1 PUSH2 0x100 EXP SWAP1 DIV PUSH20 0xFFFFFFFFFFFFFFFFFFFFFFFFFFFFFFFFFFFFFFFF AND SWAP1 DUP1 PUSH1 0x1 ADD DUP1 SLOAD PUSH2 0x3B7 SWAP1 PUSH2 0xC34 JUMP JUMPDEST DUP1 PUSH1 0x1F ADD PUSH1 0x20 DUP1 SWAP2 DIV MUL PUSH1 0x20 ADD PUSH1 0x40 MLOAD SWAP1 DUP2 ADD PUSH1 0x40 MSTORE DUP1 SWAP3 SWAP2 SWAP1 DUP2 DUP2 MSTORE PUSH1 0x20 ADD DUP3 DUP1 SLOAD PUSH2 0x3E3 SWAP1 PUSH2 0xC34 JUMP JUMPDEST DUP1 ISZERO PUSH2 0x430 JUMPI DUP1 PUSH1 0x1F LT PUSH2 0x405 JUMPI PUSH2 0x100 DUP1 DUP4 SLOAD DIV MUL DUP4 MSTORE SWAP2 PUSH1 0x20 ADD SWAP2 PUSH2 0x430 JUMP JUMPDEST DUP3 ADD SWAP2 SWAP1 PUSH1 0x0 MSTORE PUSH1 0x20 PUSH1 0x0 KECCAK256 SWAP1 JUMPDEST DUP2 SLOAD DUP2 MSTORE SWAP1 PUSH1 0x1 ADD SWAP1 PUSH1 0x20 ADD DUP1 DUP4 GT PUSH2 0x413 JUMPI DUP3 SWAP1 SUB PUSH1 0x1F AND DUP3 ADD SWAP2 JUMPDEST POP POP POP POP POP SWAP1 DUP1 PUSH1 0x2 ADD DUP1 SLOAD PUSH2 0x445 SWAP1 PUSH2 0xC34 JUMP JUMPDEST DUP1 PUSH1 0x1F ADD PUSH1 0x20 DUP1 SWAP2 DIV MUL PUSH1 0x20 ADD PUSH1 0x40 MLOAD SWAP1 DUP2 ADD PUSH1 0x40 MSTORE DUP1 SWAP3 SWAP2 SWAP1 DUP2 DUP2 MSTORE PUSH1 0x20 ADD DUP3 DUP1 SLOAD PUSH2 0x471 SWAP1 PUSH2 0xC34 JUMP JUMPDEST DUP1 ISZERO PUSH2 0x4BE JUMPI DUP1 PUSH1 0x1F LT PUSH2 0x493 JUMPI PUSH2 0x100 DUP1 DUP4 SLOAD DIV MUL DUP4 MSTORE SWAP2 PUSH1 0x20 ADD SWAP2 PUSH2 0x4BE JUMP JUMPDEST DUP3 ADD SWAP2 SWAP1 PUSH1 0x0 MSTORE PUSH1 0x20 PUSH1 0x0 KECCAK256 SWAP1 JUMPDEST DUP2 SLOAD DUP2 MSTORE SWAP1 PUSH1 0x1 ADD SWAP1 PUSH1 0x20 ADD DUP1 DUP4 GT PUSH2 0x4A1 JUMPI DUP3 SWAP1 SUB PUSH1 0x1F AND DUP3 ADD SWAP2 JUMPDEST POP POP POP POP POP SWAP1 DUP1 PUSH1 0x3 ADD SLOAD SWAP1 DUP1 PUSH1 0x4 ADD SLOAD SWAP1 DUP1 PUSH1 0x5 ADD PUSH1 0x0 SWAP1 SLOAD SWAP1 PUSH2 0x100 EXP SWAP1 DIV PUSH1 0xFF AND SWAP1 POP DUP7 JUMP JUMPDEST PUSH1 0x0 DUP1 PUSH2 0x4F3 DUP4 PUSH2 0x57F JUMP JUMPDEST SWAP1 POP PUSH1 0x1 DUP2 DUP2 SLOAD DUP2 LT PUSH2 0x509 JUMPI PUSH2 0x508 PUSH2 0xD3E JUMP JUMPDEST JUMPDEST SWAP1 PUSH1 0x0 MSTORE PUSH1 0x20 PUSH1 0x0 KECCAK256 SWAP1 PUSH1 0x6 MUL ADD PUSH1 0x3 ADD SLOAD TIMESTAMP LT PUSH2 0x568 JUMPI PUSH1 0x1 DUP1 DUP3 DUP2 SLOAD DUP2 LT PUSH2 0x536 JUMPI PUSH2 0x535 PUSH2 0xD3E JUMP JUMPDEST JUMPDEST SWAP1 PUSH1 0x0 MSTORE PUSH1 0x20 PUSH1 0x0 KECCAK256 SWAP1 PUSH1 0x6 MUL ADD PUSH1 0x5 ADD PUSH1 0x0 PUSH2 0x100 EXP DUP2 SLOAD DUP2 PUSH1 0xFF MUL NOT AND SWAP1 DUP4 ISZERO ISZERO MUL OR SWAP1 SSTORE POP PUSH1 0x1 SWAP2 POP POP PUSH2 0x56E JUMP JUMPDEST PUSH1 0x0 SWAP2 POP POP JUMPDEST SWAP2 SWAP1 POP JUMP JUMPDEST PUSH2 0x57C DUP2 PUSH2 0x635 JUMP JUMPDEST POP JUMP JUMPDEST PUSH1 0x0 DUP1 PUSH1 0x0 SWAP1 POP JUMPDEST PUSH1 0x1 DUP1 SLOAD SWAP1 POP DUP2 LT ISZERO PUSH2 0x629 JUMPI DUP3 PUSH20 0xFFFFFFFFFFFFFFFFFFFFFFFFFFFFFFFFFFFFFFFF AND PUSH1 0x1 DUP3 DUP2 SLOAD DUP2 LT PUSH2 0x5BF JUMPI PUSH2 0x5BE PUSH2 0xD3E JUMP JUMPDEST JUMPDEST SWAP1 PUSH1 0x0 MSTORE PUSH1 0x20 PUSH1 0x0 KECCAK256 SWAP1 PUSH1 0x6 MUL ADD PUSH1 0x0 ADD PUSH1 0x0 SWAP1 SLOAD SWAP1 PUSH2 0x100 EXP SWAP1 DIV PUSH20 0xFFFFFFFFFFFFFFFFFFFFFFFFFFFFFFFFFFFFFFFF AND PUSH20 0xFFFFFFFFFFFFFFFFFFFFFFFFFFFFFFFFFFFFFFFF AND EQ ISZERO PUSH2 0x616 JUMPI DUP1 SWAP2 POP POP PUSH2 0x630 JUMP JUMPDEST DUP1 DUP1 PUSH2 0x621 SWAP1 PUSH2 0xC97 JUMP JUMPDEST SWAP2 POP POP PUSH2 0x587 JUMP JUMPDEST POP PUSH2 0x3E7 SWAP1 POP JUMPDEST SWAP2 SWAP1 POP JUMP JUMPDEST PUSH1 0x0 JUMPDEST PUSH1 0x1 DUP1 SLOAD SWAP1 POP DUP2 LT ISZERO PUSH2 0x70E JUMPI DUP2 PUSH20 0xFFFFFFFFFFFFFFFFFFFFFFFFFFFFFFFFFFFFFFFF AND PUSH1 0x1 DUP3 DUP2 SLOAD DUP2 LT PUSH2 0x670 JUMPI PUSH2 0x66F PUSH2 0xD3E JUMP JUMPDEST JUMPDEST SWAP1 PUSH1 0x0 MSTORE PUSH1 0x20 PUSH1 0x0 KECCAK256 SWAP1 PUSH1 0x6 MUL ADD PUSH1 0x0 ADD PUSH1 0x0 SWAP1 SLOAD SWAP1 PUSH2 0x100 EXP SWAP1 DIV PUSH20 0xFFFFFFFFFFFFFFFFFFFFFFFFFFFFFFFFFFFFFFFF AND PUSH20 0xFFFFFFFFFFFFFFFFFFFFFFFFFFFFFFFFFFFFFFFF AND EQ ISZERO PUSH2 0x6FB JUMPI CALLVALUE PUSH1 0x1 DUP3 DUP2 SLOAD DUP2 LT PUSH2 0x6D3 JUMPI PUSH2 0x6D2 PUSH2 0xD3E JUMP JUMPDEST JUMPDEST SWAP1 PUSH1 0x0 MSTORE PUSH1 0x20 PUSH1 0x0 KECCAK256 SWAP1 PUSH1 0x6 MUL ADD PUSH1 0x4 ADD PUSH1 0x0 DUP3 DUP3 SLOAD PUSH2 0x6F3 SWAP2 SWAP1 PUSH2 0xB42 JUMP JUMPDEST SWAP3 POP POP DUP2 SWAP1 SSTORE POP JUMPDEST DUP1 DUP1 PUSH2 0x706 SWAP1 PUSH2 0xC97 JUMP JUMPDEST SWAP2 POP POP PUSH2 0x638 JUMP JUMPDEST POP POP JUMP JUMPDEST DUP3 DUP1 SLOAD PUSH2 0x71E SWAP1 PUSH2 0xC34 JUMP JUMPDEST SWAP1 PUSH1 0x0 MSTORE PUSH1 0x20 PUSH1 0x0 KECCAK256 SWAP1 PUSH1 0x1F ADD PUSH1 0x20 SWAP1 DIV DUP2 ADD SWAP3 DUP3 PUSH2 0x740 JUMPI PUSH1 0x0 DUP6 SSTORE PUSH2 0x787 JUMP JUMPDEST DUP3 PUSH1 0x1F LT PUSH2 0x759 JUMPI DUP1 MLOAD PUSH1 0xFF NOT AND DUP4 DUP1 ADD OR DUP6 SSTORE PUSH2 0x787 JUMP JUMPDEST DUP3 DUP1 ADD PUSH1 0x1 ADD DUP6 SSTORE DUP3 ISZERO PUSH2 0x787 JUMPI SWAP2 DUP3 ADD JUMPDEST DUP3 DUP2 GT ISZERO PUSH2 0x786 JUMPI DUP3 MLOAD DUP3 SSTORE SWAP2 PUSH1 0x20 ADD SWAP2 SWAP1 PUSH1 0x1 ADD SWAP1 PUSH2 0x76B JUMP JUMPDEST JUMPDEST POP SWAP1 POP PUSH2 0x794 SWAP2 SWAP1 PUSH2 0x798 JUMP JUMPDEST POP SWAP1 JUMP JUMPDEST JUMPDEST DUP1 DUP3 GT ISZERO PUSH2 0x7B1 JUMPI PUSH1 0x0 DUP2 PUSH1 0x0 SWAP1 SSTORE POP PUSH1 0x1 ADD PUSH2 0x799 JUMP JUMPDEST POP SWAP1 JUMP JUMPDEST PUSH1 0x0 PUSH2 0x7C8 PUSH2 0x7C3 DUP5 PUSH2 0xAF5 JUMP JUMPDEST PUSH2 0xAD0 JUMP JUMPDEST SWAP1 POP DUP3 DUP2 MSTORE PUSH1 0x20 DUP2 ADD DUP5 DUP5 DUP5 ADD GT ISZERO PUSH2 0x7E4 JUMPI PUSH2 0x7E3 PUSH2 0xDA1 JUMP JUMPDEST JUMPDEST PUSH2 0x7EF DUP5 DUP3 DUP6 PUSH2 0xBF2 JUMP JUMPDEST POP SWAP4 SWAP3 POP POP POP JUMP JUMPDEST PUSH1 0x0 DUP2 CALLDATALOAD SWAP1 POP PUSH2 0x806 DUP2 PUSH2 0xDC1 JUMP JUMPDEST SWAP3 SWAP2 POP POP JUMP JUMPDEST PUSH1 0x0 DUP2 CALLDATALOAD SWAP1 POP PUSH2 0x81B DUP2 PUSH2 0xDD8 JUMP JUMPDEST SWAP3 SWAP2 POP POP JUMP JUMPDEST PUSH1 0x0 DUP2 CALLDATALOAD SWAP1 POP PUSH2 0x830 DUP2 PUSH2 0xDEF JUMP JUMPDEST SWAP3 SWAP2 POP POP JUMP JUMPDEST PUSH1 0x0 DUP3 PUSH1 0x1F DUP4 ADD SLT PUSH2 0x84B JUMPI PUSH2 0x84A PUSH2 0xD9C JUMP JUMPDEST JUMPDEST DUP2 CALLDATALOAD PUSH2 0x85B DUP5 DUP3 PUSH1 0x20 DUP7 ADD PUSH2 0x7B5 JUMP JUMPDEST SWAP2 POP POP SWAP3 SWAP2 POP POP JUMP JUMPDEST PUSH1 0x0 DUP2 CALLDATALOAD SWAP1 POP PUSH2 0x873 DUP2 PUSH2 0xE06 JUMP JUMPDEST SWAP3 SWAP2 POP POP JUMP JUMPDEST PUSH1 0x0 PUSH1 0x20 DUP3 DUP5 SUB SLT ISZERO PUSH2 0x88F JUMPI PUSH2 0x88E PUSH2 0xDAB JUMP JUMPDEST JUMPDEST PUSH1 0x0 PUSH2 0x89D DUP5 DUP3 DUP6 ADD PUSH2 0x7F7 JUMP JUMPDEST SWAP2 POP POP SWAP3 SWAP2 POP POP JUMP JUMPDEST PUSH1 0x0 PUSH1 0x20 DUP3 DUP5 SUB SLT ISZERO PUSH2 0x8BC JUMPI PUSH2 0x8BB PUSH2 0xDAB JUMP JUMPDEST JUMPDEST PUSH1 0x0 PUSH2 0x8CA DUP5 DUP3 DUP6 ADD PUSH2 0x80C JUMP JUMPDEST SWAP2 POP POP SWAP3 SWAP2 POP POP JUMP JUMPDEST PUSH1 0x0 DUP1 PUSH1 0x0 DUP1 PUSH1 0x0 DUP1 PUSH1 0xC0 DUP8 DUP10 SUB SLT ISZERO PUSH2 0x8F0 JUMPI PUSH2 0x8EF PUSH2 0xDAB JUMP JUMPDEST JUMPDEST PUSH1 0x0 PUSH2 0x8FE DUP10 DUP3 DUP11 ADD PUSH2 0x80C JUMP JUMPDEST SWAP7 POP POP PUSH1 0x20 DUP8 ADD CALLDATALOAD PUSH8 0xFFFFFFFFFFFFFFFF DUP2 GT ISZERO PUSH2 0x91F JUMPI PUSH2 0x91E PUSH2 0xDA6 JUMP JUMPDEST JUMPDEST PUSH2 0x92B DUP10 DUP3 DUP11 ADD PUSH2 0x836 JUMP JUMPDEST SWAP6 POP POP PUSH1 0x40 DUP8 ADD CALLDATALOAD PUSH8 0xFFFFFFFFFFFFFFFF DUP2 GT ISZERO PUSH2 0x94C JUMPI PUSH2 0x94B PUSH2 0xDA6 JUMP JUMPDEST JUMPDEST PUSH2 0x958 DUP10 DUP3 DUP11 ADD PUSH2 0x836 JUMP JUMPDEST SWAP5 POP POP PUSH1 0x60 PUSH2 0x969 DUP10 DUP3 DUP11 ADD PUSH2 0x864 JUMP JUMPDEST SWAP4 POP POP PUSH1 0x80 PUSH2 0x97A DUP10 DUP3 DUP11 ADD PUSH2 0x864 JUMP JUMPDEST SWAP3 POP POP PUSH1 0xA0 PUSH2 0x98B DUP10 DUP3 DUP11 ADD PUSH2 0x821 JUMP JUMPDEST SWAP2 POP POP SWAP3 SWAP6 POP SWAP3 SWAP6 POP SWAP3 SWAP6 JUMP JUMPDEST PUSH1 0x0 PUSH1 0x20 DUP3 DUP5 SUB SLT ISZERO PUSH2 0x9AE JUMPI PUSH2 0x9AD PUSH2 0xDAB JUMP JUMPDEST JUMPDEST PUSH1 0x0 PUSH2 0x9BC DUP5 DUP3 DUP6 ADD PUSH2 0x864 JUMP JUMPDEST SWAP2 POP POP SWAP3 SWAP2 POP POP JUMP JUMPDEST PUSH2 0x9CE DUP2 PUSH2 0xBAA JUMP JUMPDEST DUP3 MSTORE POP POP JUMP JUMPDEST PUSH2 0x9DD DUP2 PUSH2 0xBBC JUMP JUMPDEST DUP3 MSTORE POP POP JUMP JUMPDEST PUSH1 0x0 PUSH2 0x9EE DUP3 PUSH2 0xB26 JUMP JUMPDEST PUSH2 0x9F8 DUP2 DUP6 PUSH2 0xB31 JUMP JUMPDEST SWAP4 POP PUSH2 0xA08 DUP2 DUP6 PUSH1 0x20 DUP7 ADD PUSH2 0xC01 JUMP JUMPDEST PUSH2 0xA11 DUP2 PUSH2 0xDB0 JUMP JUMPDEST DUP5 ADD SWAP2 POP POP SWAP3 SWAP2 POP POP JUMP JUMPDEST PUSH2 0xA25 DUP2 PUSH2 0xBE8 JUMP JUMPDEST DUP3 MSTORE POP POP JUMP JUMPDEST PUSH1 0x0 PUSH1 0xC0 DUP3 ADD SWAP1 POP PUSH2 0xA40 PUSH1 0x0 DUP4 ADD DUP10 PUSH2 0x9C5 JUMP JUMPDEST DUP2 DUP2 SUB PUSH1 0x20 DUP4 ADD MSTORE PUSH2 0xA52 DUP2 DUP9 PUSH2 0x9E3 JUMP JUMPDEST SWAP1 POP DUP2 DUP2 SUB PUSH1 0x40 DUP4 ADD MSTORE PUSH2 0xA66 DUP2 DUP8 PUSH2 0x9E3 JUMP JUMPDEST SWAP1 POP PUSH2 0xA75 PUSH1 0x60 DUP4 ADD DUP7 PUSH2 0xA1C JUMP JUMPDEST PUSH2 0xA82 PUSH1 0x80 DUP4 ADD DUP6 PUSH2 0xA1C JUMP JUMPDEST PUSH2 0xA8F PUSH1 0xA0 DUP4 ADD DUP5 PUSH2 0x9D4 JUMP JUMPDEST SWAP8 SWAP7 POP POP POP POP POP POP POP JUMP JUMPDEST PUSH1 0x0 PUSH1 0x20 DUP3 ADD SWAP1 POP PUSH2 0xAAF PUSH1 0x0 DUP4 ADD DUP5 PUSH2 0x9D4 JUMP JUMPDEST SWAP3 SWAP2 POP POP JUMP JUMPDEST PUSH1 0x0 PUSH1 0x20 DUP3 ADD SWAP1 POP PUSH2 0xACA PUSH1 0x0 DUP4 ADD DUP5 PUSH2 0xA1C JUMP JUMPDEST SWAP3 SWAP2 POP POP JUMP JUMPDEST PUSH1 0x0 PUSH2 0xADA PUSH2 0xAEB JUMP JUMPDEST SWAP1 POP PUSH2 0xAE6 DUP3 DUP3 PUSH2 0xC66 JUMP JUMPDEST SWAP2 SWAP1 POP JUMP JUMPDEST PUSH1 0x0 PUSH1 0x40 MLOAD SWAP1 POP SWAP1 JUMP JUMPDEST PUSH1 0x0 PUSH8 0xFFFFFFFFFFFFFFFF DUP3 GT ISZERO PUSH2 0xB10 JUMPI PUSH2 0xB0F PUSH2 0xD6D JUMP JUMPDEST JUMPDEST PUSH2 0xB19 DUP3 PUSH2 0xDB0 JUMP JUMPDEST SWAP1 POP PUSH1 0x20 DUP2 ADD SWAP1 POP SWAP2 SWAP1 POP JUMP JUMPDEST PUSH1 0x0 DUP2 MLOAD SWAP1 POP SWAP2 SWAP1 POP JUMP JUMPDEST PUSH1 0x0 DUP3 DUP3 MSTORE PUSH1 0x20 DUP3 ADD SWAP1 POP SWAP3 SWAP2 POP POP JUMP JUMPDEST PUSH1 0x0 PUSH2 0xB4D DUP3 PUSH2 0xBE8 JUMP JUMPDEST SWAP2 POP PUSH2 0xB58 DUP4 PUSH2 0xBE8 JUMP JUMPDEST SWAP3 POP DUP3 PUSH32 0xFFFFFFFFFFFFFFFFFFFFFFFFFFFFFFFFFFFFFFFFFFFFFFFFFFFFFFFFFFFFFFFF SUB DUP3 GT ISZERO PUSH2 0xB8D JUMPI PUSH2 0xB8C PUSH2 0xCE0 JUMP JUMPDEST JUMPDEST DUP3 DUP3 ADD SWAP1 POP SWAP3 SWAP2 POP POP JUMP JUMPDEST PUSH1 0x0 PUSH2 0xBA3 DUP3 PUSH2 0xBC8 JUMP JUMPDEST SWAP1 POP SWAP2 SWAP1 POP JUMP JUMPDEST PUSH1 0x0 PUSH2 0xBB5 DUP3 PUSH2 0xBC8 JUMP JUMPDEST SWAP1 POP SWAP2 SWAP1 POP JUMP JUMPDEST PUSH1 0x0 DUP2 ISZERO ISZERO SWAP1 POP SWAP2 SWAP1 POP JUMP JUMPDEST PUSH1 0x0 PUSH20 0xFFFFFFFFFFFFFFFFFFFFFFFFFFFFFFFFFFFFFFFF DUP3 AND SWAP1 POP SWAP2 SWAP1 POP JUMP JUMPDEST PUSH1 0x0 DUP2 SWAP1 POP SWAP2 SWAP1 POP JUMP JUMPDEST DUP3 DUP2 DUP4 CALLDATACOPY PUSH1 0x0 DUP4 DUP4 ADD MSTORE POP POP POP JUMP JUMPDEST PUSH1 0x0 JUMPDEST DUP4 DUP2 LT ISZERO PUSH2 0xC1F JUMPI DUP1 DUP3 ADD MLOAD DUP2 DUP5 ADD MSTORE PUSH1 0x20 DUP2 ADD SWAP1 POP PUSH2 0xC04 JUMP JUMPDEST DUP4 DUP2 GT ISZERO PUSH2 0xC2E JUMPI PUSH1 0x0 DUP5 DUP5 ADD MSTORE JUMPDEST POP POP POP POP JUMP JUMPDEST PUSH1 0x0 PUSH1 0x2 DUP3 DIV SWAP1 POP PUSH1 0x1 DUP3 AND DUP1 PUSH2 0xC4C JUMPI PUSH1 0x7F DUP3 AND SWAP2 POP JUMPDEST PUSH1 0x20 DUP3 LT DUP2 EQ ISZERO PUSH2 0xC60 JUMPI PUSH2 0xC5F PUSH2 0xD0F JUMP JUMPDEST JUMPDEST POP SWAP2 SWAP1 POP JUMP JUMPDEST PUSH2 0xC6F DUP3 PUSH2 0xDB0 JUMP JUMPDEST DUP2 ADD DUP2 DUP2 LT PUSH8 0xFFFFFFFFFFFFFFFF DUP3 GT OR ISZERO PUSH2 0xC8E JUMPI PUSH2 0xC8D PUSH2 0xD6D JUMP JUMPDEST JUMPDEST DUP1 PUSH1 0x40 MSTORE POP POP POP JUMP JUMPDEST PUSH1 0x0 PUSH2 0xCA2 DUP3 PUSH2 0xBE8 JUMP JUMPDEST SWAP2 POP PUSH32 0xFFFFFFFFFFFFFFFFFFFFFFFFFFFFFFFFFFFFFFFFFFFFFFFFFFFFFFFFFFFFFFFF DUP3 EQ ISZERO PUSH2 0xCD5 JUMPI PUSH2 0xCD4 PUSH2 0xCE0 JUMP JUMPDEST JUMPDEST PUSH1 0x1 DUP3 ADD SWAP1 POP SWAP2 SWAP1 POP JUMP JUMPDEST PUSH32 0x4E487B7100000000000000000000000000000000000000000000000000000000 PUSH1 0x0 MSTORE PUSH1 0x11 PUSH1 0x4 MSTORE PUSH1 0x24 PUSH1 0x0 REVERT JUMPDEST PUSH32 0x4E487B7100000000000000000000000000000000000000000000000000000000 PUSH1 0x0 MSTORE PUSH1 0x22 PUSH1 0x4 MSTORE PUSH1 0x24 PUSH1 0x0 REVERT JUMPDEST PUSH32 0x4E487B7100000000000000000000000000000000000000000000000000000000 PUSH1 0x0 MSTORE PUSH1 0x32 PUSH1 0x4 MSTORE PUSH1 0x24 PUSH1 0x0 REVERT JUMPDEST PUSH32 0x4E487B7100000000000000000000000000000000000000000000000000000000 PUSH1 0x0 MSTORE PUSH1 0x41 PUSH1 0x4 MSTORE PUSH1 0x24 PUSH1 0x0 REVERT JUMPDEST PUSH1 0x0 DUP1 REVERT JUMPDEST PUSH1 0x0 DUP1 REVERT JUMPDEST PUSH1 0x0 DUP1 REVERT JUMPDEST PUSH1 0x0 DUP1 REVERT JUMPDEST PUSH1 0x0 PUSH1 0x1F NOT PUSH1 0x1F DUP4 ADD AND SWAP1 POP SWAP2 SWAP1 POP JUMP JUMPDEST PUSH2 0xDCA DUP2 PUSH2 0xB98 JUMP JUMPDEST DUP2 EQ PUSH2 0xDD5 JUMPI PUSH1 0x0 DUP1 REVERT JUMPDEST POP JUMP JUMPDEST PUSH2 0xDE1 DUP2 PUSH2 0xBAA JUMP JUMPDEST DUP2 EQ PUSH2 0xDEC JUMPI PUSH1 0x0 DUP1 REVERT JUMPDEST POP JUMP JUMPDEST PUSH2 0xDF8 DUP2 PUSH2 0xBBC JUMP JUMPDEST DUP2 EQ PUSH2 0xE03 JUMPI PUSH1 0x0 DUP1 REVERT JUMPDEST POP JUMP JUMPDEST PUSH2 0xE0F DUP2 PUSH2 0xBE8 JUMP JUMPDEST DUP2 EQ PUSH2 0xE1A JUMPI PUSH1 0x0 DUP1 REVERT JUMPDEST POP JUMP INVALID LOG2 PUSH5 0x6970667358 0x22 SLT KECCAK256 DUP9 0xE7 PUSH7 0xEDFD2A15FECD21 0xD9 DUP12 BYTE 0xD0 PUSH23 0x5333CD7D3CF9783BF2EB3ACE9EAC96887F64736F6C6343 STOP ADDMOD SMOD STOP CALLER "
				},
				"gasEstimates": {
					"creation": {
						"codeDepositCost": "733400",
						"executionCost": "25032",
						"totalCost": "758432"
					},
					"external": {
						"addKid(address,string,string,uint256,uint256,bool)": "infinite",
						"availableToWithdraw(address)": "infinite",
						"balanceOf()": "361",
						"deposit(address)": "infinite",
						"kids(uint256)": "infinite",
						"withdraw(address)": "infinite"
					},
					"internal": {
						"addToKidsBalance(address)": "infinite",
						"getIndex(address)": "infinite"
					}
				},
				"methodIdentifiers": {
					"addKid(address,string,string,uint256,uint256,bool)": "31d575c5",
					"availableToWithdraw(address)": "a25db8ce",
					"balanceOf()": "722713f7",
					"deposit(address)": "f340fa01",
					"kids(uint256)": "7285fd3a",
					"withdraw(address)": "51cff8d9"
				}
			},
			"storageLayout": {
				"storage": [
					{
						"astId": 3,
						"contract": "contracts/CryptoKids.sol:CryptoKids",
						"label": "owner",
						"offset": 0,
						"slot": "0",
						"type": "t_address"
					},
					{
						"astId": 29,
						"contract": "contracts/CryptoKids.sol:CryptoKids",
						"label": "kids",
						"offset": 0,
						"slot": "1",
						"type": "t_array(t_struct(Kid)25_storage)dyn_storage"
					}
				],
				"types": {
					"t_address": {
						"encoding": "inplace",
						"label": "address",
						"numberOfBytes": "20"
					},
					"t_address_payable": {
						"encoding": "inplace",
						"label": "address payable",
						"numberOfBytes": "20"
					},
					"t_array(t_struct(Kid)25_storage)dyn_storage": {
						"base": "t_struct(Kid)25_storage",
						"encoding": "dynamic_array",
						"label": "struct CryptoKids.Kid[]",
						"numberOfBytes": "32"
					},
					"t_bool": {
						"encoding": "inplace",
						"label": "bool",
						"numberOfBytes": "1"
					},
					"t_string_storage": {
						"encoding": "bytes",
						"label": "string",
						"numberOfBytes": "32"
					},
					"t_struct(Kid)25_storage": {
						"encoding": "inplace",
						"label": "struct CryptoKids.Kid",
						"members": [
							{
								"astId": 14,
								"contract": "contracts/CryptoKids.sol:CryptoKids",
								"label": "walletAddress",
								"offset": 0,
								"slot": "0",
								"type": "t_address_payable"
							},
							{
								"astId": 16,
								"contract": "contracts/CryptoKids.sol:CryptoKids",
								"label": "firstName",
								"offset": 0,
								"slot": "1",
								"type": "t_string_storage"
							},
							{
								"astId": 18,
								"contract": "contracts/CryptoKids.sol:CryptoKids",
								"label": "lasName",
								"offset": 0,
								"slot": "2",
								"type": "t_string_storage"
							},
							{
								"astId": 20,
								"contract": "contracts/CryptoKids.sol:CryptoKids",
								"label": "releaseTime",
								"offset": 0,
								"slot": "3",
								"type": "t_uint256"
							},
							{
								"astId": 22,
								"contract": "contracts/CryptoKids.sol:CryptoKids",
								"label": "amount",
								"offset": 0,
								"slot": "4",
								"type": "t_uint256"
							},
							{
								"astId": 24,
								"contract": "contracts/CryptoKids.sol:CryptoKids",
								"label": "canWithdraw",
								"offset": 0,
								"slot": "5",
								"type": "t_bool"
							}
						],
						"numberOfBytes": "192"
					},
					"t_uint256": {
						"encoding": "inplace",
						"label": "uint256",
						"numberOfBytes": "32"
					}
				}
			},
			"userdoc": {
				"kind": "user",
				"methods": {},
				"version": 1
			}
		}
	}
}