{
	"contracts/CryptoKids.sol": {
		"CryptoKids": {
			"abi": [
				{
					"inputs": [],
					"stateMutability": "nonpayable",
					"type": "constructor"
				},
				{
					"inputs": [
						{
							"internalType": "address",
							"name": "walletAddress",
							"type": "address"
						},
						{
							"internalType": "string",
							"name": "firstName",
							"type": "string"
						},
						{
							"internalType": "string",
							"name": "lasName",
							"type": "string"
						},
						{
							"internalType": "uint256",
							"name": "releaseTime",
							"type": "uint256"
						},
						{
							"internalType": "uint256",
							"name": "amount",
							"type": "uint256"
						},
						{
							"internalType": "bool",
							"name": "canWithdraw",
							"type": "bool"
						}
					],
					"name": "addKid",
					"outputs": [],
					"stateMutability": "nonpayable",
					"type": "function"
				},
				{
					"inputs": [],
					"name": "balanceOf",
					"outputs": [
						{
							"internalType": "uint256",
							"name": "",
							"type": "uint256"
						}
					],
					"stateMutability": "view",
					"type": "function"
				},
				{
					"inputs": [
						{
							"internalType": "uint256",
							"name": "",
							"type": "uint256"
						}
					],
					"name": "kids",
					"outputs": [
						{
							"internalType": "address",
							"name": "walletAddress",
							"type": "address"
						},
						{
							"internalType": "string",
							"name": "firstName",
							"type": "string"
						},
						{
							"internalType": "string",
							"name": "lasName",
							"type": "string"
						},
						{
							"internalType": "uint256",
							"name": "releaseTime",
							"type": "uint256"
						},
						{
							"internalType": "uint256",
							"name": "amount",
							"type": "uint256"
						},
						{
							"internalType": "bool",
							"name": "canWithdraw",
							"type": "bool"
						}
					],
					"stateMutability": "view",
					"type": "function"
				}
			],
			"devdoc": {
				"kind": "dev",
				"methods": {},
				"version": 1
			},
			"evm": {
				"assembly": "    /* \"contracts/CryptoKids.sol\":64:806  contract CryptoKids {... */\n  mstore(0x40, 0x80)\n    /* \"contracts/CryptoKids.sol\":124:172  constructor(){... */\n  callvalue\n  dup1\n  iszero\n  tag_1\n  jumpi\n  0x00\n  dup1\n  revert\ntag_1:\n  pop\n    /* \"contracts/CryptoKids.sol\":155:165  msg.sender */\n  caller\n    /* \"contracts/CryptoKids.sol\":147:152  owner */\n  0x00\n  dup1\n    /* \"contracts/CryptoKids.sol\":147:165  owner = msg.sender */\n  0x0100\n  exp\n  dup2\n  sload\n  dup2\n  0xffffffffffffffffffffffffffffffffffffffff\n  mul\n  not\n  and\n  swap1\n  dup4\n  0xffffffffffffffffffffffffffffffffffffffff\n  and\n  mul\n  or\n  swap1\n  sstore\n  pop\n    /* \"contracts/CryptoKids.sol\":64:806  contract CryptoKids {... */\n  dataSize(sub_0)\n  dup1\n  dataOffset(sub_0)\n  0x00\n  codecopy\n  0x00\n  return\nstop\n\nsub_0: assembly {\n        /* \"contracts/CryptoKids.sol\":64:806  contract CryptoKids {... */\n      mstore(0x40, 0x80)\n      callvalue\n      dup1\n      iszero\n      tag_1\n      jumpi\n      0x00\n      dup1\n      revert\n    tag_1:\n      pop\n      jumpi(tag_2, lt(calldatasize, 0x04))\n      shr(0xe0, calldataload(0x00))\n      dup1\n      0x31d575c5\n      eq\n      tag_3\n      jumpi\n      dup1\n      0x722713f7\n      eq\n      tag_4\n      jumpi\n      dup1\n      0x7285fd3a\n      eq\n      tag_5\n      jumpi\n    tag_2:\n      0x00\n      dup1\n      revert\n        /* \"contracts/CryptoKids.sol\":380:705  function addKid(address walletAddress, string memory firstName, string memory lasName, uint releaseTime, uint amount, bool canWithdraw) public {... */\n    tag_3:\n      tag_6\n      0x04\n      dup1\n      calldatasize\n      sub\n      dup2\n      add\n      swap1\n      tag_7\n      swap2\n      swap1\n      tag_8\n      jump\t// in\n    tag_7:\n      tag_9\n      jump\t// in\n    tag_6:\n      stop\n        /* \"contracts/CryptoKids.sol\":711:802  function balanceOf() public view returns(uint){... */\n    tag_4:\n      tag_10\n      tag_11\n      jump\t// in\n    tag_10:\n      mload(0x40)\n      tag_12\n      swap2\n      swap1\n      tag_13\n      jump\t// in\n    tag_12:\n      mload(0x40)\n      dup1\n      swap2\n      sub\n      swap1\n      return\n        /* \"contracts/CryptoKids.sol\":356:373  Kid[] public kids */\n    tag_5:\n      tag_14\n      0x04\n      dup1\n      calldatasize\n      sub\n      dup2\n      add\n      swap1\n      tag_15\n      swap2\n      swap1\n      tag_16\n      jump\t// in\n    tag_15:\n      tag_17\n      jump\t// in\n    tag_14:\n      mload(0x40)\n      tag_18\n      swap7\n      swap6\n      swap5\n      swap4\n      swap3\n      swap2\n      swap1\n      tag_19\n      jump\t// in\n    tag_18:\n      mload(0x40)\n      dup1\n      swap2\n      sub\n      swap1\n      return\n        /* \"contracts/CryptoKids.sol\":380:705  function addKid(address walletAddress, string memory firstName, string memory lasName, uint releaseTime, uint amount, bool canWithdraw) public {... */\n    tag_9:\n        /* \"contracts/CryptoKids.sol\":533:537  kids */\n      0x01\n        /* \"contracts/CryptoKids.sol\":543:697  Kid(... */\n      mload(0x40)\n      dup1\n      0xc0\n      add\n      0x40\n      mstore\n      dup1\n        /* \"contracts/CryptoKids.sol\":560:573  walletAddress */\n      dup9\n        /* \"contracts/CryptoKids.sol\":543:697  Kid(... */\n      0xffffffffffffffffffffffffffffffffffffffff\n      and\n      dup2\n      mstore\n      0x20\n      add\n        /* \"contracts/CryptoKids.sol\":587:596  firstName */\n      dup8\n        /* \"contracts/CryptoKids.sol\":543:697  Kid(... */\n      dup2\n      mstore\n      0x20\n      add\n        /* \"contracts/CryptoKids.sol\":610:617  lasName */\n      dup7\n        /* \"contracts/CryptoKids.sol\":543:697  Kid(... */\n      dup2\n      mstore\n      0x20\n      add\n        /* \"contracts/CryptoKids.sol\":631:642  releaseTime */\n      dup6\n        /* \"contracts/CryptoKids.sol\":543:697  Kid(... */\n      dup2\n      mstore\n      0x20\n      add\n        /* \"contracts/CryptoKids.sol\":656:662  amount */\n      dup5\n        /* \"contracts/CryptoKids.sol\":543:697  Kid(... */\n      dup2\n      mstore\n      0x20\n      add\n        /* \"contracts/CryptoKids.sol\":676:687  canWithdraw */\n      dup4\n        /* \"contracts/CryptoKids.sol\":543:697  Kid(... */\n      iszero\n      iszero\n      dup2\n      mstore\n      pop\n        /* \"contracts/CryptoKids.sol\":533:698  kids.push(Kid(... */\n      swap1\n      dup1\n      0x01\n      dup2\n      sload\n      add\n      dup1\n      dup3\n      sstore\n      dup1\n      swap2\n      pop\n      pop\n      0x01\n      swap1\n      sub\n      swap1\n      0x00\n      mstore\n      keccak256(0x00, 0x20)\n      swap1\n      0x06\n      mul\n      add\n      0x00\n      swap1\n      swap2\n      swap1\n      swap2\n      swap1\n      swap2\n      pop\n      0x00\n      dup3\n      add\n      mload\n      dup2\n      0x00\n      add\n      exp(0x0100, 0x00)\n      dup2\n      sload\n      dup2\n      0xffffffffffffffffffffffffffffffffffffffff\n      mul\n      not\n      and\n      swap1\n      dup4\n      0xffffffffffffffffffffffffffffffffffffffff\n      and\n      mul\n      or\n      swap1\n      sstore\n      pop\n      0x20\n      dup3\n      add\n      mload\n      dup2\n      0x01\n      add\n      swap1\n      dup1\n      mload\n      swap1\n      0x20\n      add\n      swap1\n      tag_22\n      swap3\n      swap2\n      swap1\n      tag_23\n      jump\t// in\n    tag_22:\n      pop\n      0x40\n      dup3\n      add\n      mload\n      dup2\n      0x02\n      add\n      swap1\n      dup1\n      mload\n      swap1\n      0x20\n      add\n      swap1\n      tag_24\n      swap3\n      swap2\n      swap1\n      tag_23\n      jump\t// in\n    tag_24:\n      pop\n      0x60\n      dup3\n      add\n      mload\n      dup2\n      0x03\n      add\n      sstore\n      0x80\n      dup3\n      add\n      mload\n      dup2\n      0x04\n      add\n      sstore\n      0xa0\n      dup3\n      add\n      mload\n      dup2\n      0x05\n      add\n      exp(0x0100, 0x00)\n      dup2\n      sload\n      dup2\n      0xff\n      mul\n      not\n      and\n      swap1\n      dup4\n      iszero\n      iszero\n      mul\n      or\n      swap1\n      sstore\n      pop\n      pop\n      pop\n        /* \"contracts/CryptoKids.sol\":380:705  function addKid(address walletAddress, string memory firstName, string memory lasName, uint releaseTime, uint amount, bool canWithdraw) public {... */\n      pop\n      pop\n      pop\n      pop\n      pop\n      pop\n      jump\t// out\n        /* \"contracts/CryptoKids.sol\":711:802  function balanceOf() public view returns(uint){... */\n    tag_11:\n        /* \"contracts/CryptoKids.sol\":752:756  uint */\n      0x00\n        /* \"contracts/CryptoKids.sol\":774:795  address(this).balance */\n      selfbalance\n        /* \"contracts/CryptoKids.sol\":767:795  return address(this).balance */\n      swap1\n      pop\n        /* \"contracts/CryptoKids.sol\":711:802  function balanceOf() public view returns(uint){... */\n      swap1\n      jump\t// out\n        /* \"contracts/CryptoKids.sol\":356:373  Kid[] public kids */\n    tag_17:\n      0x01\n      dup2\n      dup2\n      sload\n      dup2\n      lt\n      tag_26\n      jumpi\n      0x00\n      dup1\n      revert\n    tag_26:\n      swap1\n      0x00\n      mstore\n      keccak256(0x00, 0x20)\n      swap1\n      0x06\n      mul\n      add\n      0x00\n      swap2\n      pop\n      swap1\n      pop\n      dup1\n      0x00\n      add\n      0x00\n      swap1\n      sload\n      swap1\n      0x0100\n      exp\n      swap1\n      div\n      0xffffffffffffffffffffffffffffffffffffffff\n      and\n      swap1\n      dup1\n      0x01\n      add\n      dup1\n      sload\n      tag_28\n      swap1\n      tag_29\n      jump\t// in\n    tag_28:\n      dup1\n      0x1f\n      add\n      0x20\n      dup1\n      swap2\n      div\n      mul\n      0x20\n      add\n      mload(0x40)\n      swap1\n      dup2\n      add\n      0x40\n      mstore\n      dup1\n      swap3\n      swap2\n      swap1\n      dup2\n      dup2\n      mstore\n      0x20\n      add\n      dup3\n      dup1\n      sload\n      tag_30\n      swap1\n      tag_29\n      jump\t// in\n    tag_30:\n      dup1\n      iszero\n      tag_31\n      jumpi\n      dup1\n      0x1f\n      lt\n      tag_32\n      jumpi\n      0x0100\n      dup1\n      dup4\n      sload\n      div\n      mul\n      dup4\n      mstore\n      swap2\n      0x20\n      add\n      swap2\n      jump(tag_31)\n    tag_32:\n      dup3\n      add\n      swap2\n      swap1\n      0x00\n      mstore\n      keccak256(0x00, 0x20)\n      swap1\n    tag_33:\n      dup2\n      sload\n      dup2\n      mstore\n      swap1\n      0x01\n      add\n      swap1\n      0x20\n      add\n      dup1\n      dup4\n      gt\n      tag_33\n      jumpi\n      dup3\n      swap1\n      sub\n      0x1f\n      and\n      dup3\n      add\n      swap2\n    tag_31:\n      pop\n      pop\n      pop\n      pop\n      pop\n      swap1\n      dup1\n      0x02\n      add\n      dup1\n      sload\n      tag_34\n      swap1\n      tag_29\n      jump\t// in\n    tag_34:\n      dup1\n      0x1f\n      add\n      0x20\n      dup1\n      swap2\n      div\n      mul\n      0x20\n      add\n      mload(0x40)\n      swap1\n      dup2\n      add\n      0x40\n      mstore\n      dup1\n      swap3\n      swap2\n      swap1\n      dup2\n      dup2\n      mstore\n      0x20\n      add\n      dup3\n      dup1\n      sload\n      tag_35\n      swap1\n      tag_29\n      jump\t// in\n    tag_35:\n      dup1\n      iszero\n      tag_36\n      jumpi\n      dup1\n      0x1f\n      lt\n      tag_37\n      jumpi\n      0x0100\n      dup1\n      dup4\n      sload\n      div\n      mul\n      dup4\n      mstore\n      swap2\n      0x20\n      add\n      swap2\n      jump(tag_36)\n    tag_37:\n      dup3\n      add\n      swap2\n      swap1\n      0x00\n      mstore\n      keccak256(0x00, 0x20)\n      swap1\n    tag_38:\n      dup2\n      sload\n      dup2\n      mstore\n      swap1\n      0x01\n      add\n      swap1\n      0x20\n      add\n      dup1\n      dup4\n      gt\n      tag_38\n      jumpi\n      dup3\n      swap1\n      sub\n      0x1f\n      and\n      dup3\n      add\n      swap2\n    tag_36:\n      pop\n      pop\n      pop\n      pop\n      pop\n      swap1\n      dup1\n      0x03\n      add\n      sload\n      swap1\n      dup1\n      0x04\n      add\n      sload\n      swap1\n      dup1\n      0x05\n      add\n      0x00\n      swap1\n      sload\n      swap1\n      0x0100\n      exp\n      swap1\n      div\n      0xff\n      and\n      swap1\n      pop\n      dup7\n      jump\t// out\n    tag_23:\n      dup3\n      dup1\n      sload\n      tag_39\n      swap1\n      tag_29\n      jump\t// in\n    tag_39:\n      swap1\n      0x00\n      mstore\n      keccak256(0x00, 0x20)\n      swap1\n      0x1f\n      add\n      0x20\n      swap1\n      div\n      dup2\n      add\n      swap3\n      dup3\n      tag_41\n      jumpi\n      0x00\n      dup6\n      sstore\n      jump(tag_40)\n    tag_41:\n      dup3\n      0x1f\n      lt\n      tag_42\n      jumpi\n      dup1\n      mload\n      not(0xff)\n      and\n      dup4\n      dup1\n      add\n      or\n      dup6\n      sstore\n      jump(tag_40)\n    tag_42:\n      dup3\n      dup1\n      add\n      0x01\n      add\n      dup6\n      sstore\n      dup3\n      iszero\n      tag_40\n      jumpi\n      swap2\n      dup3\n      add\n    tag_43:\n      dup3\n      dup2\n      gt\n      iszero\n      tag_44\n      jumpi\n      dup3\n      mload\n      dup3\n      sstore\n      swap2\n      0x20\n      add\n      swap2\n      swap1\n      0x01\n      add\n      swap1\n      jump(tag_43)\n    tag_44:\n    tag_40:\n      pop\n      swap1\n      pop\n      tag_45\n      swap2\n      swap1\n      tag_46\n      jump\t// in\n    tag_45:\n      pop\n      swap1\n      jump\t// out\n    tag_46:\n    tag_47:\n      dup1\n      dup3\n      gt\n      iszero\n      tag_48\n      jumpi\n      0x00\n      dup2\n      0x00\n      swap1\n      sstore\n      pop\n      0x01\n      add\n      jump(tag_47)\n    tag_48:\n      pop\n      swap1\n      jump\t// out\n        /* \"#utility.yul\":7:419   */\n    tag_50:\n        /* \"#utility.yul\":85:90   */\n      0x00\n        /* \"#utility.yul\":110:176   */\n      tag_52\n        /* \"#utility.yul\":126:175   */\n      tag_53\n        /* \"#utility.yul\":168:174   */\n      dup5\n        /* \"#utility.yul\":126:175   */\n      tag_54\n      jump\t// in\n    tag_53:\n        /* \"#utility.yul\":110:176   */\n      tag_55\n      jump\t// in\n    tag_52:\n        /* \"#utility.yul\":101:176   */\n      swap1\n      pop\n        /* \"#utility.yul\":199:205   */\n      dup3\n        /* \"#utility.yul\":192:197   */\n      dup2\n        /* \"#utility.yul\":185:206   */\n      mstore\n        /* \"#utility.yul\":237:241   */\n      0x20\n        /* \"#utility.yul\":230:235   */\n      dup2\n        /* \"#utility.yul\":226:242   */\n      add\n        /* \"#utility.yul\":275:278   */\n      dup5\n        /* \"#utility.yul\":266:272   */\n      dup5\n        /* \"#utility.yul\":261:264   */\n      dup5\n        /* \"#utility.yul\":257:273   */\n      add\n        /* \"#utility.yul\":254:279   */\n      gt\n        /* \"#utility.yul\":251:363   */\n      iszero\n      tag_56\n      jumpi\n        /* \"#utility.yul\":282:361   */\n      tag_57\n      tag_58\n      jump\t// in\n    tag_57:\n        /* \"#utility.yul\":251:363   */\n    tag_56:\n        /* \"#utility.yul\":372:413   */\n      tag_59\n        /* \"#utility.yul\":406:412   */\n      dup5\n        /* \"#utility.yul\":401:404   */\n      dup3\n        /* \"#utility.yul\":396:399   */\n      dup6\n        /* \"#utility.yul\":372:413   */\n      tag_60\n      jump\t// in\n    tag_59:\n        /* \"#utility.yul\":91:419   */\n      pop\n        /* \"#utility.yul\":7:419   */\n      swap4\n      swap3\n      pop\n      pop\n      pop\n      jump\t// out\n        /* \"#utility.yul\":425:564   */\n    tag_61:\n        /* \"#utility.yul\":471:476   */\n      0x00\n        /* \"#utility.yul\":509:515   */\n      dup2\n        /* \"#utility.yul\":496:516   */\n      calldataload\n        /* \"#utility.yul\":487:516   */\n      swap1\n      pop\n        /* \"#utility.yul\":525:558   */\n      tag_63\n        /* \"#utility.yul\":552:557   */\n      dup2\n        /* \"#utility.yul\":525:558   */\n      tag_64\n      jump\t// in\n    tag_63:\n        /* \"#utility.yul\":425:564   */\n      swap3\n      swap2\n      pop\n      pop\n      jump\t// out\n        /* \"#utility.yul\":570:703   */\n    tag_65:\n        /* \"#utility.yul\":613:618   */\n      0x00\n        /* \"#utility.yul\":651:657   */\n      dup2\n        /* \"#utility.yul\":638:658   */\n      calldataload\n        /* \"#utility.yul\":629:658   */\n      swap1\n      pop\n        /* \"#utility.yul\":667:697   */\n      tag_67\n        /* \"#utility.yul\":691:696   */\n      dup2\n        /* \"#utility.yul\":667:697   */\n      tag_68\n      jump\t// in\n    tag_67:\n        /* \"#utility.yul\":570:703   */\n      swap3\n      swap2\n      pop\n      pop\n      jump\t// out\n        /* \"#utility.yul\":723:1063   */\n    tag_69:\n        /* \"#utility.yul\":779:784   */\n      0x00\n        /* \"#utility.yul\":828:831   */\n      dup3\n        /* \"#utility.yul\":821:825   */\n      0x1f\n        /* \"#utility.yul\":813:819   */\n      dup4\n        /* \"#utility.yul\":809:826   */\n      add\n        /* \"#utility.yul\":805:832   */\n      slt\n        /* \"#utility.yul\":795:917   */\n      tag_71\n      jumpi\n        /* \"#utility.yul\":836:915   */\n      tag_72\n      tag_73\n      jump\t// in\n    tag_72:\n        /* \"#utility.yul\":795:917   */\n    tag_71:\n        /* \"#utility.yul\":953:959   */\n      dup2\n        /* \"#utility.yul\":940:960   */\n      calldataload\n        /* \"#utility.yul\":978:1057   */\n      tag_74\n        /* \"#utility.yul\":1053:1056   */\n      dup5\n        /* \"#utility.yul\":1045:1051   */\n      dup3\n        /* \"#utility.yul\":1038:1042   */\n      0x20\n        /* \"#utility.yul\":1030:1036   */\n      dup7\n        /* \"#utility.yul\":1026:1043   */\n      add\n        /* \"#utility.yul\":978:1057   */\n      tag_50\n      jump\t// in\n    tag_74:\n        /* \"#utility.yul\":969:1057   */\n      swap2\n      pop\n        /* \"#utility.yul\":785:1063   */\n      pop\n        /* \"#utility.yul\":723:1063   */\n      swap3\n      swap2\n      pop\n      pop\n      jump\t// out\n        /* \"#utility.yul\":1069:1208   */\n    tag_75:\n        /* \"#utility.yul\":1115:1120   */\n      0x00\n        /* \"#utility.yul\":1153:1159   */\n      dup2\n        /* \"#utility.yul\":1140:1160   */\n      calldataload\n        /* \"#utility.yul\":1131:1160   */\n      swap1\n      pop\n        /* \"#utility.yul\":1169:1202   */\n      tag_77\n        /* \"#utility.yul\":1196:1201   */\n      dup2\n        /* \"#utility.yul\":1169:1202   */\n      tag_78\n      jump\t// in\n    tag_77:\n        /* \"#utility.yul\":1069:1208   */\n      swap3\n      swap2\n      pop\n      pop\n      jump\t// out\n        /* \"#utility.yul\":1214:2625   */\n    tag_8:\n        /* \"#utility.yul\":1335:1341   */\n      0x00\n        /* \"#utility.yul\":1343:1349   */\n      dup1\n        /* \"#utility.yul\":1351:1357   */\n      0x00\n        /* \"#utility.yul\":1359:1365   */\n      dup1\n        /* \"#utility.yul\":1367:1373   */\n      0x00\n        /* \"#utility.yul\":1375:1381   */\n      dup1\n        /* \"#utility.yul\":1424:1427   */\n      0xc0\n        /* \"#utility.yul\":1412:1421   */\n      dup8\n        /* \"#utility.yul\":1403:1410   */\n      dup10\n        /* \"#utility.yul\":1399:1422   */\n      sub\n        /* \"#utility.yul\":1395:1428   */\n      slt\n        /* \"#utility.yul\":1392:1512   */\n      iszero\n      tag_80\n      jumpi\n        /* \"#utility.yul\":1431:1510   */\n      tag_81\n      tag_82\n      jump\t// in\n    tag_81:\n        /* \"#utility.yul\":1392:1512   */\n    tag_80:\n        /* \"#utility.yul\":1551:1552   */\n      0x00\n        /* \"#utility.yul\":1576:1629   */\n      tag_83\n        /* \"#utility.yul\":1621:1628   */\n      dup10\n        /* \"#utility.yul\":1612:1618   */\n      dup3\n        /* \"#utility.yul\":1601:1610   */\n      dup11\n        /* \"#utility.yul\":1597:1619   */\n      add\n        /* \"#utility.yul\":1576:1629   */\n      tag_61\n      jump\t// in\n    tag_83:\n        /* \"#utility.yul\":1566:1629   */\n      swap7\n      pop\n        /* \"#utility.yul\":1522:1639   */\n      pop\n        /* \"#utility.yul\":1706:1708   */\n      0x20\n        /* \"#utility.yul\":1695:1704   */\n      dup8\n        /* \"#utility.yul\":1691:1709   */\n      add\n        /* \"#utility.yul\":1678:1710   */\n      calldataload\n        /* \"#utility.yul\":1737:1755   */\n      0xffffffffffffffff\n        /* \"#utility.yul\":1729:1735   */\n      dup2\n        /* \"#utility.yul\":1726:1756   */\n      gt\n        /* \"#utility.yul\":1723:1840   */\n      iszero\n      tag_84\n      jumpi\n        /* \"#utility.yul\":1759:1838   */\n      tag_85\n      tag_86\n      jump\t// in\n    tag_85:\n        /* \"#utility.yul\":1723:1840   */\n    tag_84:\n        /* \"#utility.yul\":1864:1927   */\n      tag_87\n        /* \"#utility.yul\":1919:1926   */\n      dup10\n        /* \"#utility.yul\":1910:1916   */\n      dup3\n        /* \"#utility.yul\":1899:1908   */\n      dup11\n        /* \"#utility.yul\":1895:1917   */\n      add\n        /* \"#utility.yul\":1864:1927   */\n      tag_69\n      jump\t// in\n    tag_87:\n        /* \"#utility.yul\":1854:1927   */\n      swap6\n      pop\n        /* \"#utility.yul\":1649:1937   */\n      pop\n        /* \"#utility.yul\":2004:2006   */\n      0x40\n        /* \"#utility.yul\":1993:2002   */\n      dup8\n        /* \"#utility.yul\":1989:2007   */\n      add\n        /* \"#utility.yul\":1976:2008   */\n      calldataload\n        /* \"#utility.yul\":2035:2053   */\n      0xffffffffffffffff\n        /* \"#utility.yul\":2027:2033   */\n      dup2\n        /* \"#utility.yul\":2024:2054   */\n      gt\n        /* \"#utility.yul\":2021:2138   */\n      iszero\n      tag_88\n      jumpi\n        /* \"#utility.yul\":2057:2136   */\n      tag_89\n      tag_86\n      jump\t// in\n    tag_89:\n        /* \"#utility.yul\":2021:2138   */\n    tag_88:\n        /* \"#utility.yul\":2162:2225   */\n      tag_90\n        /* \"#utility.yul\":2217:2224   */\n      dup10\n        /* \"#utility.yul\":2208:2214   */\n      dup3\n        /* \"#utility.yul\":2197:2206   */\n      dup11\n        /* \"#utility.yul\":2193:2215   */\n      add\n        /* \"#utility.yul\":2162:2225   */\n      tag_69\n      jump\t// in\n    tag_90:\n        /* \"#utility.yul\":2152:2225   */\n      swap5\n      pop\n        /* \"#utility.yul\":1947:2235   */\n      pop\n        /* \"#utility.yul\":2274:2276   */\n      0x60\n        /* \"#utility.yul\":2300:2353   */\n      tag_91\n        /* \"#utility.yul\":2345:2352   */\n      dup10\n        /* \"#utility.yul\":2336:2342   */\n      dup3\n        /* \"#utility.yul\":2325:2334   */\n      dup11\n        /* \"#utility.yul\":2321:2343   */\n      add\n        /* \"#utility.yul\":2300:2353   */\n      tag_75\n      jump\t// in\n    tag_91:\n        /* \"#utility.yul\":2290:2353   */\n      swap4\n      pop\n        /* \"#utility.yul\":2245:2363   */\n      pop\n        /* \"#utility.yul\":2402:2405   */\n      0x80\n        /* \"#utility.yul\":2429:2482   */\n      tag_92\n        /* \"#utility.yul\":2474:2481   */\n      dup10\n        /* \"#utility.yul\":2465:2471   */\n      dup3\n        /* \"#utility.yul\":2454:2463   */\n      dup11\n        /* \"#utility.yul\":2450:2472   */\n      add\n        /* \"#utility.yul\":2429:2482   */\n      tag_75\n      jump\t// in\n    tag_92:\n        /* \"#utility.yul\":2419:2482   */\n      swap3\n      pop\n        /* \"#utility.yul\":2373:2492   */\n      pop\n        /* \"#utility.yul\":2531:2534   */\n      0xa0\n        /* \"#utility.yul\":2558:2608   */\n      tag_93\n        /* \"#utility.yul\":2600:2607   */\n      dup10\n        /* \"#utility.yul\":2591:2597   */\n      dup3\n        /* \"#utility.yul\":2580:2589   */\n      dup11\n        /* \"#utility.yul\":2576:2598   */\n      add\n        /* \"#utility.yul\":2558:2608   */\n      tag_65\n      jump\t// in\n    tag_93:\n        /* \"#utility.yul\":2548:2608   */\n      swap2\n      pop\n        /* \"#utility.yul\":2502:2618   */\n      pop\n        /* \"#utility.yul\":1214:2625   */\n      swap3\n      swap6\n      pop\n      swap3\n      swap6\n      pop\n      swap3\n      swap6\n      jump\t// out\n        /* \"#utility.yul\":2631:2960   */\n    tag_16:\n        /* \"#utility.yul\":2690:2696   */\n      0x00\n        /* \"#utility.yul\":2739:2741   */\n      0x20\n        /* \"#utility.yul\":2727:2736   */\n      dup3\n        /* \"#utility.yul\":2718:2725   */\n      dup5\n        /* \"#utility.yul\":2714:2737   */\n      sub\n        /* \"#utility.yul\":2710:2742   */\n      slt\n        /* \"#utility.yul\":2707:2826   */\n      iszero\n      tag_95\n      jumpi\n        /* \"#utility.yul\":2745:2824   */\n      tag_96\n      tag_82\n      jump\t// in\n    tag_96:\n        /* \"#utility.yul\":2707:2826   */\n    tag_95:\n        /* \"#utility.yul\":2865:2866   */\n      0x00\n        /* \"#utility.yul\":2890:2943   */\n      tag_97\n        /* \"#utility.yul\":2935:2942   */\n      dup5\n        /* \"#utility.yul\":2926:2932   */\n      dup3\n        /* \"#utility.yul\":2915:2924   */\n      dup6\n        /* \"#utility.yul\":2911:2933   */\n      add\n        /* \"#utility.yul\":2890:2943   */\n      tag_75\n      jump\t// in\n    tag_97:\n        /* \"#utility.yul\":2880:2943   */\n      swap2\n      pop\n        /* \"#utility.yul\":2836:2953   */\n      pop\n        /* \"#utility.yul\":2631:2960   */\n      swap3\n      swap2\n      pop\n      pop\n      jump\t// out\n        /* \"#utility.yul\":2966:3084   */\n    tag_98:\n        /* \"#utility.yul\":3053:3077   */\n      tag_100\n        /* \"#utility.yul\":3071:3076   */\n      dup2\n        /* \"#utility.yul\":3053:3077   */\n      tag_101\n      jump\t// in\n    tag_100:\n        /* \"#utility.yul\":3048:3051   */\n      dup3\n        /* \"#utility.yul\":3041:3078   */\n      mstore\n        /* \"#utility.yul\":2966:3084   */\n      pop\n      pop\n      jump\t// out\n        /* \"#utility.yul\":3090:3199   */\n    tag_102:\n        /* \"#utility.yul\":3171:3192   */\n      tag_104\n        /* \"#utility.yul\":3186:3191   */\n      dup2\n        /* \"#utility.yul\":3171:3192   */\n      tag_105\n      jump\t// in\n    tag_104:\n        /* \"#utility.yul\":3166:3169   */\n      dup3\n        /* \"#utility.yul\":3159:3193   */\n      mstore\n        /* \"#utility.yul\":3090:3199   */\n      pop\n      pop\n      jump\t// out\n        /* \"#utility.yul\":3205:3569   */\n    tag_106:\n        /* \"#utility.yul\":3293:3296   */\n      0x00\n        /* \"#utility.yul\":3321:3360   */\n      tag_108\n        /* \"#utility.yul\":3354:3359   */\n      dup3\n        /* \"#utility.yul\":3321:3360   */\n      tag_109\n      jump\t// in\n    tag_108:\n        /* \"#utility.yul\":3376:3447   */\n      tag_110\n        /* \"#utility.yul\":3440:3446   */\n      dup2\n        /* \"#utility.yul\":3435:3438   */\n      dup6\n        /* \"#utility.yul\":3376:3447   */\n      tag_111\n      jump\t// in\n    tag_110:\n        /* \"#utility.yul\":3369:3447   */\n      swap4\n      pop\n        /* \"#utility.yul\":3456:3508   */\n      tag_112\n        /* \"#utility.yul\":3501:3507   */\n      dup2\n        /* \"#utility.yul\":3496:3499   */\n      dup6\n        /* \"#utility.yul\":3489:3493   */\n      0x20\n        /* \"#utility.yul\":3482:3487   */\n      dup7\n        /* \"#utility.yul\":3478:3494   */\n      add\n        /* \"#utility.yul\":3456:3508   */\n      tag_113\n      jump\t// in\n    tag_112:\n        /* \"#utility.yul\":3533:3562   */\n      tag_114\n        /* \"#utility.yul\":3555:3561   */\n      dup2\n        /* \"#utility.yul\":3533:3562   */\n      tag_115\n      jump\t// in\n    tag_114:\n        /* \"#utility.yul\":3528:3531   */\n      dup5\n        /* \"#utility.yul\":3524:3563   */\n      add\n        /* \"#utility.yul\":3517:3563   */\n      swap2\n      pop\n        /* \"#utility.yul\":3297:3569   */\n      pop\n        /* \"#utility.yul\":3205:3569   */\n      swap3\n      swap2\n      pop\n      pop\n      jump\t// out\n        /* \"#utility.yul\":3575:3693   */\n    tag_116:\n        /* \"#utility.yul\":3662:3686   */\n      tag_118\n        /* \"#utility.yul\":3680:3685   */\n      dup2\n        /* \"#utility.yul\":3662:3686   */\n      tag_119\n      jump\t// in\n    tag_118:\n        /* \"#utility.yul\":3657:3660   */\n      dup3\n        /* \"#utility.yul\":3650:3687   */\n      mstore\n        /* \"#utility.yul\":3575:3693   */\n      pop\n      pop\n      jump\t// out\n        /* \"#utility.yul\":3699:4644   */\n    tag_19:\n        /* \"#utility.yul\":3966:3970   */\n      0x00\n        /* \"#utility.yul\":4004:4007   */\n      0xc0\n        /* \"#utility.yul\":3993:4002   */\n      dup3\n        /* \"#utility.yul\":3989:4008   */\n      add\n        /* \"#utility.yul\":3981:4008   */\n      swap1\n      pop\n        /* \"#utility.yul\":4018:4089   */\n      tag_121\n        /* \"#utility.yul\":4086:4087   */\n      0x00\n        /* \"#utility.yul\":4075:4084   */\n      dup4\n        /* \"#utility.yul\":4071:4088   */\n      add\n        /* \"#utility.yul\":4062:4068   */\n      dup10\n        /* \"#utility.yul\":4018:4089   */\n      tag_98\n      jump\t// in\n    tag_121:\n        /* \"#utility.yul\":4136:4145   */\n      dup2\n        /* \"#utility.yul\":4130:4134   */\n      dup2\n        /* \"#utility.yul\":4126:4146   */\n      sub\n        /* \"#utility.yul\":4121:4123   */\n      0x20\n        /* \"#utility.yul\":4110:4119   */\n      dup4\n        /* \"#utility.yul\":4106:4124   */\n      add\n        /* \"#utility.yul\":4099:4147   */\n      mstore\n        /* \"#utility.yul\":4164:4242   */\n      tag_122\n        /* \"#utility.yul\":4237:4241   */\n      dup2\n        /* \"#utility.yul\":4228:4234   */\n      dup9\n        /* \"#utility.yul\":4164:4242   */\n      tag_106\n      jump\t// in\n    tag_122:\n        /* \"#utility.yul\":4156:4242   */\n      swap1\n      pop\n        /* \"#utility.yul\":4289:4298   */\n      dup2\n        /* \"#utility.yul\":4283:4287   */\n      dup2\n        /* \"#utility.yul\":4279:4299   */\n      sub\n        /* \"#utility.yul\":4274:4276   */\n      0x40\n        /* \"#utility.yul\":4263:4272   */\n      dup4\n        /* \"#utility.yul\":4259:4277   */\n      add\n        /* \"#utility.yul\":4252:4300   */\n      mstore\n        /* \"#utility.yul\":4317:4395   */\n      tag_123\n        /* \"#utility.yul\":4390:4394   */\n      dup2\n        /* \"#utility.yul\":4381:4387   */\n      dup8\n        /* \"#utility.yul\":4317:4395   */\n      tag_106\n      jump\t// in\n    tag_123:\n        /* \"#utility.yul\":4309:4395   */\n      swap1\n      pop\n        /* \"#utility.yul\":4405:4477   */\n      tag_124\n        /* \"#utility.yul\":4473:4475   */\n      0x60\n        /* \"#utility.yul\":4462:4471   */\n      dup4\n        /* \"#utility.yul\":4458:4476   */\n      add\n        /* \"#utility.yul\":4449:4455   */\n      dup7\n        /* \"#utility.yul\":4405:4477   */\n      tag_116\n      jump\t// in\n    tag_124:\n        /* \"#utility.yul\":4487:4560   */\n      tag_125\n        /* \"#utility.yul\":4555:4558   */\n      0x80\n        /* \"#utility.yul\":4544:4553   */\n      dup4\n        /* \"#utility.yul\":4540:4559   */\n      add\n        /* \"#utility.yul\":4531:4537   */\n      dup6\n        /* \"#utility.yul\":4487:4560   */\n      tag_116\n      jump\t// in\n    tag_125:\n        /* \"#utility.yul\":4570:4637   */\n      tag_126\n        /* \"#utility.yul\":4632:4635   */\n      0xa0\n        /* \"#utility.yul\":4621:4630   */\n      dup4\n        /* \"#utility.yul\":4617:4636   */\n      add\n        /* \"#utility.yul\":4608:4614   */\n      dup5\n        /* \"#utility.yul\":4570:4637   */\n      tag_102\n      jump\t// in\n    tag_126:\n        /* \"#utility.yul\":3699:4644   */\n      swap8\n      swap7\n      pop\n      pop\n      pop\n      pop\n      pop\n      pop\n      pop\n      jump\t// out\n        /* \"#utility.yul\":4650:4872   */\n    tag_13:\n        /* \"#utility.yul\":4743:4747   */\n      0x00\n        /* \"#utility.yul\":4781:4783   */\n      0x20\n        /* \"#utility.yul\":4770:4779   */\n      dup3\n        /* \"#utility.yul\":4766:4784   */\n      add\n        /* \"#utility.yul\":4758:4784   */\n      swap1\n      pop\n        /* \"#utility.yul\":4794:4865   */\n      tag_128\n        /* \"#utility.yul\":4862:4863   */\n      0x00\n        /* \"#utility.yul\":4851:4860   */\n      dup4\n        /* \"#utility.yul\":4847:4864   */\n      add\n        /* \"#utility.yul\":4838:4844   */\n      dup5\n        /* \"#utility.yul\":4794:4865   */\n      tag_116\n      jump\t// in\n    tag_128:\n        /* \"#utility.yul\":4650:4872   */\n      swap3\n      swap2\n      pop\n      pop\n      jump\t// out\n        /* \"#utility.yul\":4878:5007   */\n    tag_55:\n        /* \"#utility.yul\":4912:4918   */\n      0x00\n        /* \"#utility.yul\":4939:4959   */\n      tag_130\n      tag_131\n      jump\t// in\n    tag_130:\n        /* \"#utility.yul\":4929:4959   */\n      swap1\n      pop\n        /* \"#utility.yul\":4968:5001   */\n      tag_132\n        /* \"#utility.yul\":4996:5000   */\n      dup3\n        /* \"#utility.yul\":4988:4994   */\n      dup3\n        /* \"#utility.yul\":4968:5001   */\n      tag_133\n      jump\t// in\n    tag_132:\n        /* \"#utility.yul\":4878:5007   */\n      swap2\n      swap1\n      pop\n      jump\t// out\n        /* \"#utility.yul\":5013:5088   */\n    tag_131:\n        /* \"#utility.yul\":5046:5052   */\n      0x00\n        /* \"#utility.yul\":5079:5081   */\n      0x40\n        /* \"#utility.yul\":5073:5082   */\n      mload\n        /* \"#utility.yul\":5063:5082   */\n      swap1\n      pop\n        /* \"#utility.yul\":5013:5088   */\n      swap1\n      jump\t// out\n        /* \"#utility.yul\":5094:5402   */\n    tag_54:\n        /* \"#utility.yul\":5156:5160   */\n      0x00\n        /* \"#utility.yul\":5246:5264   */\n      0xffffffffffffffff\n        /* \"#utility.yul\":5238:5244   */\n      dup3\n        /* \"#utility.yul\":5235:5265   */\n      gt\n        /* \"#utility.yul\":5232:5288   */\n      iszero\n      tag_136\n      jumpi\n        /* \"#utility.yul\":5268:5286   */\n      tag_137\n      tag_138\n      jump\t// in\n    tag_137:\n        /* \"#utility.yul\":5232:5288   */\n    tag_136:\n        /* \"#utility.yul\":5306:5335   */\n      tag_139\n        /* \"#utility.yul\":5328:5334   */\n      dup3\n        /* \"#utility.yul\":5306:5335   */\n      tag_115\n      jump\t// in\n    tag_139:\n        /* \"#utility.yul\":5298:5335   */\n      swap1\n      pop\n        /* \"#utility.yul\":5390:5394   */\n      0x20\n        /* \"#utility.yul\":5384:5388   */\n      dup2\n        /* \"#utility.yul\":5380:5395   */\n      add\n        /* \"#utility.yul\":5372:5395   */\n      swap1\n      pop\n        /* \"#utility.yul\":5094:5402   */\n      swap2\n      swap1\n      pop\n      jump\t// out\n        /* \"#utility.yul\":5408:5507   */\n    tag_109:\n        /* \"#utility.yul\":5460:5466   */\n      0x00\n        /* \"#utility.yul\":5494:5499   */\n      dup2\n        /* \"#utility.yul\":5488:5500   */\n      mload\n        /* \"#utility.yul\":5478:5500   */\n      swap1\n      pop\n        /* \"#utility.yul\":5408:5507   */\n      swap2\n      swap1\n      pop\n      jump\t// out\n        /* \"#utility.yul\":5513:5682   */\n    tag_111:\n        /* \"#utility.yul\":5597:5608   */\n      0x00\n        /* \"#utility.yul\":5631:5637   */\n      dup3\n        /* \"#utility.yul\":5626:5629   */\n      dup3\n        /* \"#utility.yul\":5619:5638   */\n      mstore\n        /* \"#utility.yul\":5671:5675   */\n      0x20\n        /* \"#utility.yul\":5666:5669   */\n      dup3\n        /* \"#utility.yul\":5662:5676   */\n      add\n        /* \"#utility.yul\":5647:5676   */\n      swap1\n      pop\n        /* \"#utility.yul\":5513:5682   */\n      swap3\n      swap2\n      pop\n      pop\n      jump\t// out\n        /* \"#utility.yul\":5688:5784   */\n    tag_101:\n        /* \"#utility.yul\":5725:5732   */\n      0x00\n        /* \"#utility.yul\":5754:5778   */\n      tag_143\n        /* \"#utility.yul\":5772:5777   */\n      dup3\n        /* \"#utility.yul\":5754:5778   */\n      tag_144\n      jump\t// in\n    tag_143:\n        /* \"#utility.yul\":5743:5778   */\n      swap1\n      pop\n        /* \"#utility.yul\":5688:5784   */\n      swap2\n      swap1\n      pop\n      jump\t// out\n        /* \"#utility.yul\":5790:5880   */\n    tag_105:\n        /* \"#utility.yul\":5824:5831   */\n      0x00\n        /* \"#utility.yul\":5867:5872   */\n      dup2\n        /* \"#utility.yul\":5860:5873   */\n      iszero\n        /* \"#utility.yul\":5853:5874   */\n      iszero\n        /* \"#utility.yul\":5842:5874   */\n      swap1\n      pop\n        /* \"#utility.yul\":5790:5880   */\n      swap2\n      swap1\n      pop\n      jump\t// out\n        /* \"#utility.yul\":5886:6012   */\n    tag_144:\n        /* \"#utility.yul\":5923:5930   */\n      0x00\n        /* \"#utility.yul\":5963:6005   */\n      0xffffffffffffffffffffffffffffffffffffffff\n        /* \"#utility.yul\":5956:5961   */\n      dup3\n        /* \"#utility.yul\":5952:6006   */\n      and\n        /* \"#utility.yul\":5941:6006   */\n      swap1\n      pop\n        /* \"#utility.yul\":5886:6012   */\n      swap2\n      swap1\n      pop\n      jump\t// out\n        /* \"#utility.yul\":6018:6095   */\n    tag_119:\n        /* \"#utility.yul\":6055:6062   */\n      0x00\n        /* \"#utility.yul\":6084:6089   */\n      dup2\n        /* \"#utility.yul\":6073:6089   */\n      swap1\n      pop\n        /* \"#utility.yul\":6018:6095   */\n      swap2\n      swap1\n      pop\n      jump\t// out\n        /* \"#utility.yul\":6101:6255   */\n    tag_60:\n        /* \"#utility.yul\":6185:6191   */\n      dup3\n        /* \"#utility.yul\":6180:6183   */\n      dup2\n        /* \"#utility.yul\":6175:6178   */\n      dup4\n        /* \"#utility.yul\":6162:6192   */\n      calldatacopy\n        /* \"#utility.yul\":6247:6248   */\n      0x00\n        /* \"#utility.yul\":6238:6244   */\n      dup4\n        /* \"#utility.yul\":6233:6236   */\n      dup4\n        /* \"#utility.yul\":6229:6245   */\n      add\n        /* \"#utility.yul\":6222:6249   */\n      mstore\n        /* \"#utility.yul\":6101:6255   */\n      pop\n      pop\n      pop\n      jump\t// out\n        /* \"#utility.yul\":6261:6568   */\n    tag_113:\n        /* \"#utility.yul\":6329:6330   */\n      0x00\n        /* \"#utility.yul\":6339:6452   */\n    tag_150:\n        /* \"#utility.yul\":6353:6359   */\n      dup4\n        /* \"#utility.yul\":6350:6351   */\n      dup2\n        /* \"#utility.yul\":6347:6360   */\n      lt\n        /* \"#utility.yul\":6339:6452   */\n      iszero\n      tag_152\n      jumpi\n        /* \"#utility.yul\":6438:6439   */\n      dup1\n        /* \"#utility.yul\":6433:6436   */\n      dup3\n        /* \"#utility.yul\":6429:6440   */\n      add\n        /* \"#utility.yul\":6423:6441   */\n      mload\n        /* \"#utility.yul\":6419:6420   */\n      dup2\n        /* \"#utility.yul\":6414:6417   */\n      dup5\n        /* \"#utility.yul\":6410:6421   */\n      add\n        /* \"#utility.yul\":6403:6442   */\n      mstore\n        /* \"#utility.yul\":6375:6377   */\n      0x20\n        /* \"#utility.yul\":6372:6373   */\n      dup2\n        /* \"#utility.yul\":6368:6378   */\n      add\n        /* \"#utility.yul\":6363:6378   */\n      swap1\n      pop\n        /* \"#utility.yul\":6339:6452   */\n      jump(tag_150)\n    tag_152:\n        /* \"#utility.yul\":6470:6476   */\n      dup4\n        /* \"#utility.yul\":6467:6468   */\n      dup2\n        /* \"#utility.yul\":6464:6477   */\n      gt\n        /* \"#utility.yul\":6461:6562   */\n      iszero\n      tag_153\n      jumpi\n        /* \"#utility.yul\":6550:6551   */\n      0x00\n        /* \"#utility.yul\":6541:6547   */\n      dup5\n        /* \"#utility.yul\":6536:6539   */\n      dup5\n        /* \"#utility.yul\":6532:6548   */\n      add\n        /* \"#utility.yul\":6525:6552   */\n      mstore\n        /* \"#utility.yul\":6461:6562   */\n    tag_153:\n        /* \"#utility.yul\":6310:6568   */\n      pop\n        /* \"#utility.yul\":6261:6568   */\n      pop\n      pop\n      pop\n      jump\t// out\n        /* \"#utility.yul\":6574:6894   */\n    tag_29:\n        /* \"#utility.yul\":6618:6624   */\n      0x00\n        /* \"#utility.yul\":6655:6656   */\n      0x02\n        /* \"#utility.yul\":6649:6653   */\n      dup3\n        /* \"#utility.yul\":6645:6657   */\n      div\n        /* \"#utility.yul\":6635:6657   */\n      swap1\n      pop\n        /* \"#utility.yul\":6702:6703   */\n      0x01\n        /* \"#utility.yul\":6696:6700   */\n      dup3\n        /* \"#utility.yul\":6692:6704   */\n      and\n        /* \"#utility.yul\":6723:6741   */\n      dup1\n        /* \"#utility.yul\":6713:6794   */\n      tag_155\n      jumpi\n        /* \"#utility.yul\":6779:6783   */\n      0x7f\n        /* \"#utility.yul\":6771:6777   */\n      dup3\n        /* \"#utility.yul\":6767:6784   */\n      and\n        /* \"#utility.yul\":6757:6784   */\n      swap2\n      pop\n        /* \"#utility.yul\":6713:6794   */\n    tag_155:\n        /* \"#utility.yul\":6841:6843   */\n      0x20\n        /* \"#utility.yul\":6833:6839   */\n      dup3\n        /* \"#utility.yul\":6830:6844   */\n      lt\n        /* \"#utility.yul\":6810:6828   */\n      dup2\n        /* \"#utility.yul\":6807:6845   */\n      eq\n        /* \"#utility.yul\":6804:6888   */\n      iszero\n      tag_156\n      jumpi\n        /* \"#utility.yul\":6860:6878   */\n      tag_157\n      tag_158\n      jump\t// in\n    tag_157:\n        /* \"#utility.yul\":6804:6888   */\n    tag_156:\n        /* \"#utility.yul\":6625:6894   */\n      pop\n        /* \"#utility.yul\":6574:6894   */\n      swap2\n      swap1\n      pop\n      jump\t// out\n        /* \"#utility.yul\":6900:7181   */\n    tag_133:\n        /* \"#utility.yul\":6983:7010   */\n      tag_160\n        /* \"#utility.yul\":7005:7009   */\n      dup3\n        /* \"#utility.yul\":6983:7010   */\n      tag_115\n      jump\t// in\n    tag_160:\n        /* \"#utility.yul\":6975:6981   */\n      dup2\n        /* \"#utility.yul\":6971:7011   */\n      add\n        /* \"#utility.yul\":7113:7119   */\n      dup2\n        /* \"#utility.yul\":7101:7111   */\n      dup2\n        /* \"#utility.yul\":7098:7120   */\n      lt\n        /* \"#utility.yul\":7077:7095   */\n      0xffffffffffffffff\n        /* \"#utility.yul\":7065:7075   */\n      dup3\n        /* \"#utility.yul\":7062:7096   */\n      gt\n        /* \"#utility.yul\":7059:7121   */\n      or\n        /* \"#utility.yul\":7056:7144   */\n      iszero\n      tag_161\n      jumpi\n        /* \"#utility.yul\":7124:7142   */\n      tag_162\n      tag_138\n      jump\t// in\n    tag_162:\n        /* \"#utility.yul\":7056:7144   */\n    tag_161:\n        /* \"#utility.yul\":7164:7174   */\n      dup1\n        /* \"#utility.yul\":7160:7162   */\n      0x40\n        /* \"#utility.yul\":7153:7175   */\n      mstore\n        /* \"#utility.yul\":6943:7181   */\n      pop\n        /* \"#utility.yul\":6900:7181   */\n      pop\n      pop\n      jump\t// out\n        /* \"#utility.yul\":7187:7367   */\n    tag_158:\n        /* \"#utility.yul\":7235:7312   */\n      0x4e487b7100000000000000000000000000000000000000000000000000000000\n        /* \"#utility.yul\":7232:7233   */\n      0x00\n        /* \"#utility.yul\":7225:7313   */\n      mstore\n        /* \"#utility.yul\":7332:7336   */\n      0x22\n        /* \"#utility.yul\":7329:7330   */\n      0x04\n        /* \"#utility.yul\":7322:7337   */\n      mstore\n        /* \"#utility.yul\":7356:7360   */\n      0x24\n        /* \"#utility.yul\":7353:7354   */\n      0x00\n        /* \"#utility.yul\":7346:7361   */\n      revert\n        /* \"#utility.yul\":7373:7553   */\n    tag_138:\n        /* \"#utility.yul\":7421:7498   */\n      0x4e487b7100000000000000000000000000000000000000000000000000000000\n        /* \"#utility.yul\":7418:7419   */\n      0x00\n        /* \"#utility.yul\":7411:7499   */\n      mstore\n        /* \"#utility.yul\":7518:7522   */\n      0x41\n        /* \"#utility.yul\":7515:7516   */\n      0x04\n        /* \"#utility.yul\":7508:7523   */\n      mstore\n        /* \"#utility.yul\":7542:7546   */\n      0x24\n        /* \"#utility.yul\":7539:7540   */\n      0x00\n        /* \"#utility.yul\":7532:7547   */\n      revert\n        /* \"#utility.yul\":7559:7676   */\n    tag_73:\n        /* \"#utility.yul\":7668:7669   */\n      0x00\n        /* \"#utility.yul\":7665:7666   */\n      dup1\n        /* \"#utility.yul\":7658:7670   */\n      revert\n        /* \"#utility.yul\":7682:7799   */\n    tag_58:\n        /* \"#utility.yul\":7791:7792   */\n      0x00\n        /* \"#utility.yul\":7788:7789   */\n      dup1\n        /* \"#utility.yul\":7781:7793   */\n      revert\n        /* \"#utility.yul\":7805:7922   */\n    tag_86:\n        /* \"#utility.yul\":7914:7915   */\n      0x00\n        /* \"#utility.yul\":7911:7912   */\n      dup1\n        /* \"#utility.yul\":7904:7916   */\n      revert\n        /* \"#utility.yul\":7928:8045   */\n    tag_82:\n        /* \"#utility.yul\":8037:8038   */\n      0x00\n        /* \"#utility.yul\":8034:8035   */\n      dup1\n        /* \"#utility.yul\":8027:8039   */\n      revert\n        /* \"#utility.yul\":8051:8153   */\n    tag_115:\n        /* \"#utility.yul\":8092:8098   */\n      0x00\n        /* \"#utility.yul\":8143:8145   */\n      0x1f\n        /* \"#utility.yul\":8139:8146   */\n      not\n        /* \"#utility.yul\":8134:8136   */\n      0x1f\n        /* \"#utility.yul\":8127:8132   */\n      dup4\n        /* \"#utility.yul\":8123:8137   */\n      add\n        /* \"#utility.yul\":8119:8147   */\n      and\n        /* \"#utility.yul\":8109:8147   */\n      swap1\n      pop\n        /* \"#utility.yul\":8051:8153   */\n      swap2\n      swap1\n      pop\n      jump\t// out\n        /* \"#utility.yul\":8159:8281   */\n    tag_64:\n        /* \"#utility.yul\":8232:8256   */\n      tag_171\n        /* \"#utility.yul\":8250:8255   */\n      dup2\n        /* \"#utility.yul\":8232:8256   */\n      tag_101\n      jump\t// in\n    tag_171:\n        /* \"#utility.yul\":8225:8230   */\n      dup2\n        /* \"#utility.yul\":8222:8257   */\n      eq\n        /* \"#utility.yul\":8212:8275   */\n      tag_172\n      jumpi\n        /* \"#utility.yul\":8271:8272   */\n      0x00\n        /* \"#utility.yul\":8268:8269   */\n      dup1\n        /* \"#utility.yul\":8261:8273   */\n      revert\n        /* \"#utility.yul\":8212:8275   */\n    tag_172:\n        /* \"#utility.yul\":8159:8281   */\n      pop\n      jump\t// out\n        /* \"#utility.yul\":8287:8403   */\n    tag_68:\n        /* \"#utility.yul\":8357:8378   */\n      tag_174\n        /* \"#utility.yul\":8372:8377   */\n      dup2\n        /* \"#utility.yul\":8357:8378   */\n      tag_105\n      jump\t// in\n    tag_174:\n        /* \"#utility.yul\":8350:8355   */\n      dup2\n        /* \"#utility.yul\":8347:8379   */\n      eq\n        /* \"#utility.yul\":8337:8397   */\n      tag_175\n      jumpi\n        /* \"#utility.yul\":8393:8394   */\n      0x00\n        /* \"#utility.yul\":8390:8391   */\n      dup1\n        /* \"#utility.yul\":8383:8395   */\n      revert\n        /* \"#utility.yul\":8337:8397   */\n    tag_175:\n        /* \"#utility.yul\":8287:8403   */\n      pop\n      jump\t// out\n        /* \"#utility.yul\":8409:8531   */\n    tag_78:\n        /* \"#utility.yul\":8482:8506   */\n      tag_177\n        /* \"#utility.yul\":8500:8505   */\n      dup2\n        /* \"#utility.yul\":8482:8506   */\n      tag_119\n      jump\t// in\n    tag_177:\n        /* \"#utility.yul\":8475:8480   */\n      dup2\n        /* \"#utility.yul\":8472:8507   */\n      eq\n        /* \"#utility.yul\":8462:8525   */\n      tag_178\n      jumpi\n        /* \"#utility.yul\":8521:8522   */\n      0x00\n        /* \"#utility.yul\":8518:8519   */\n      dup1\n        /* \"#utility.yul\":8511:8523   */\n      revert\n        /* \"#utility.yul\":8462:8525   */\n    tag_178:\n        /* \"#utility.yul\":8409:8531   */\n      pop\n      jump\t// out\n\n    auxdata: 0xa26469706673582212202309f709f7755ab1be2081c55e03ea82bb1bec8c5d6ae033694d5ca115d48dce64736f6c63430008070033\n}\n",
				"bytecode": {
					"linkReferences": {},
					"object": "608060405234801561001057600080fd5b50336000806101000a81548173ffffffffffffffffffffffffffffffffffffffff021916908373ffffffffffffffffffffffffffffffffffffffff160217905550610906806100606000396000f3fe608060405234801561001057600080fd5b50600436106100415760003560e01c806331d575c514610046578063722713f7146100625780637285fd3a14610080575b600080fd5b610060600480360381019061005b91906104c7565b6100b5565b005b61006a6101e4565b604051610077919061068e565b60405180910390f35b61009a6004803603810190610095919061058c565b6101ec565b6040516100ac9695949392919061061f565b60405180910390f35b60016040518060c001604052808873ffffffffffffffffffffffffffffffffffffffff168152602001878152602001868152602001858152602001848152602001831515815250908060018154018082558091505060019003906000526020600020906006020160009091909190915060008201518160000160006101000a81548173ffffffffffffffffffffffffffffffffffffffff021916908373ffffffffffffffffffffffffffffffffffffffff1602179055506020820151816001019080519060200190610188929190610375565b5060408201518160020190805190602001906101a5929190610375565b50606082015181600301556080820151816004015560a08201518160050160006101000a81548160ff0219169083151502179055505050505050505050565b600047905090565b600181815481106101fc57600080fd5b90600052602060002090600602016000915090508060000160009054906101000a900473ffffffffffffffffffffffffffffffffffffffff1690806001018054610245906107a5565b80601f0160208091040260200160405190810160405280929190818152602001828054610271906107a5565b80156102be5780601f10610293576101008083540402835291602001916102be565b820191906000526020600020905b8154815290600101906020018083116102a157829003601f168201915b5050505050908060020180546102d3906107a5565b80601f01602080910402602001604051908101604052809291908181526020018280546102ff906107a5565b801561034c5780601f106103215761010080835404028352916020019161034c565b820191906000526020600020905b81548152906001019060200180831161032f57829003601f168201915b5050505050908060030154908060040154908060050160009054906101000a900460ff16905086565b828054610381906107a5565b90600052602060002090601f0160209004810192826103a357600085556103ea565b82601f106103bc57805160ff19168380011785556103ea565b828001600101855582156103ea579182015b828111156103e95782518255916020019190600101906103ce565b5b5090506103f791906103fb565b5090565b5b808211156104145760008160009055506001016103fc565b5090565b600061042b610426846106ce565b6106a9565b9050828152602081018484840111156104475761044661086b565b5b610452848285610763565b509392505050565b6000813590506104698161088b565b92915050565b60008135905061047e816108a2565b92915050565b600082601f83011261049957610498610866565b5b81356104a9848260208601610418565b91505092915050565b6000813590506104c1816108b9565b92915050565b60008060008060008060c087890312156104e4576104e3610875565b5b60006104f289828a0161045a565b965050602087013567ffffffffffffffff81111561051357610512610870565b5b61051f89828a01610484565b955050604087013567ffffffffffffffff8111156105405761053f610870565b5b61054c89828a01610484565b945050606061055d89828a016104b2565b935050608061056e89828a016104b2565b92505060a061057f89828a0161046f565b9150509295509295509295565b6000602082840312156105a2576105a1610875565b5b60006105b0848285016104b2565b91505092915050565b6105c28161071b565b82525050565b6105d18161072d565b82525050565b60006105e2826106ff565b6105ec818561070a565b93506105fc818560208601610772565b6106058161087a565b840191505092915050565b61061981610759565b82525050565b600060c08201905061063460008301896105b9565b818103602083015261064681886105d7565b9050818103604083015261065a81876105d7565b90506106696060830186610610565b6106766080830185610610565b61068360a08301846105c8565b979650505050505050565b60006020820190506106a36000830184610610565b92915050565b60006106b36106c4565b90506106bf82826107d7565b919050565b6000604051905090565b600067ffffffffffffffff8211156106e9576106e8610837565b5b6106f28261087a565b9050602081019050919050565b600081519050919050565b600082825260208201905092915050565b600061072682610739565b9050919050565b60008115159050919050565b600073ffffffffffffffffffffffffffffffffffffffff82169050919050565b6000819050919050565b82818337600083830152505050565b60005b83811015610790578082015181840152602081019050610775565b8381111561079f576000848401525b50505050565b600060028204905060018216806107bd57607f821691505b602082108114156107d1576107d0610808565b5b50919050565b6107e08261087a565b810181811067ffffffffffffffff821117156107ff576107fe610837565b5b80604052505050565b7f4e487b7100000000000000000000000000000000000000000000000000000000600052602260045260246000fd5b7f4e487b7100000000000000000000000000000000000000000000000000000000600052604160045260246000fd5b600080fd5b600080fd5b600080fd5b600080fd5b6000601f19601f8301169050919050565b6108948161071b565b811461089f57600080fd5b50565b6108ab8161072d565b81146108b657600080fd5b50565b6108c281610759565b81146108cd57600080fd5b5056fea26469706673582212202309f709f7755ab1be2081c55e03ea82bb1bec8c5d6ae033694d5ca115d48dce64736f6c63430008070033",
					"opcodes": "PUSH1 0x80 PUSH1 0x40 MSTORE CALLVALUE DUP1 ISZERO PUSH2 0x10 JUMPI PUSH1 0x0 DUP1 REVERT JUMPDEST POP CALLER PUSH1 0x0 DUP1 PUSH2 0x100 EXP DUP2 SLOAD DUP2 PUSH20 0xFFFFFFFFFFFFFFFFFFFFFFFFFFFFFFFFFFFFFFFF MUL NOT AND SWAP1 DUP4 PUSH20 0xFFFFFFFFFFFFFFFFFFFFFFFFFFFFFFFFFFFFFFFF AND MUL OR SWAP1 SSTORE POP PUSH2 0x906 DUP1 PUSH2 0x60 PUSH1 0x0 CODECOPY PUSH1 0x0 RETURN INVALID PUSH1 0x80 PUSH1 0x40 MSTORE CALLVALUE DUP1 ISZERO PUSH2 0x10 JUMPI PUSH1 0x0 DUP1 REVERT JUMPDEST POP PUSH1 0x4 CALLDATASIZE LT PUSH2 0x41 JUMPI PUSH1 0x0 CALLDATALOAD PUSH1 0xE0 SHR DUP1 PUSH4 0x31D575C5 EQ PUSH2 0x46 JUMPI DUP1 PUSH4 0x722713F7 EQ PUSH2 0x62 JUMPI DUP1 PUSH4 0x7285FD3A EQ PUSH2 0x80 JUMPI JUMPDEST PUSH1 0x0 DUP1 REVERT JUMPDEST PUSH2 0x60 PUSH1 0x4 DUP1 CALLDATASIZE SUB DUP2 ADD SWAP1 PUSH2 0x5B SWAP2 SWAP1 PUSH2 0x4C7 JUMP JUMPDEST PUSH2 0xB5 JUMP JUMPDEST STOP JUMPDEST PUSH2 0x6A PUSH2 0x1E4 JUMP JUMPDEST PUSH1 0x40 MLOAD PUSH2 0x77 SWAP2 SWAP1 PUSH2 0x68E JUMP JUMPDEST PUSH1 0x40 MLOAD DUP1 SWAP2 SUB SWAP1 RETURN JUMPDEST PUSH2 0x9A PUSH1 0x4 DUP1 CALLDATASIZE SUB DUP2 ADD SWAP1 PUSH2 0x95 SWAP2 SWAP1 PUSH2 0x58C JUMP JUMPDEST PUSH2 0x1EC JUMP JUMPDEST PUSH1 0x40 MLOAD PUSH2 0xAC SWAP7 SWAP6 SWAP5 SWAP4 SWAP3 SWAP2 SWAP1 PUSH2 0x61F JUMP JUMPDEST PUSH1 0x40 MLOAD DUP1 SWAP2 SUB SWAP1 RETURN JUMPDEST PUSH1 0x1 PUSH1 0x40 MLOAD DUP1 PUSH1 0xC0 ADD PUSH1 0x40 MSTORE DUP1 DUP9 PUSH20 0xFFFFFFFFFFFFFFFFFFFFFFFFFFFFFFFFFFFFFFFF AND DUP2 MSTORE PUSH1 0x20 ADD DUP8 DUP2 MSTORE PUSH1 0x20 ADD DUP7 DUP2 MSTORE PUSH1 0x20 ADD DUP6 DUP2 MSTORE PUSH1 0x20 ADD DUP5 DUP2 MSTORE PUSH1 0x20 ADD DUP4 ISZERO ISZERO DUP2 MSTORE POP SWAP1 DUP1 PUSH1 0x1 DUP2 SLOAD ADD DUP1 DUP3 SSTORE DUP1 SWAP2 POP POP PUSH1 0x1 SWAP1 SUB SWAP1 PUSH1 0x0 MSTORE PUSH1 0x20 PUSH1 0x0 KECCAK256 SWAP1 PUSH1 0x6 MUL ADD PUSH1 0x0 SWAP1 SWAP2 SWAP1 SWAP2 SWAP1 SWAP2 POP PUSH1 0x0 DUP3 ADD MLOAD DUP2 PUSH1 0x0 ADD PUSH1 0x0 PUSH2 0x100 EXP DUP2 SLOAD DUP2 PUSH20 0xFFFFFFFFFFFFFFFFFFFFFFFFFFFFFFFFFFFFFFFF MUL NOT AND SWAP1 DUP4 PUSH20 0xFFFFFFFFFFFFFFFFFFFFFFFFFFFFFFFFFFFFFFFF AND MUL OR SWAP1 SSTORE POP PUSH1 0x20 DUP3 ADD MLOAD DUP2 PUSH1 0x1 ADD SWAP1 DUP1 MLOAD SWAP1 PUSH1 0x20 ADD SWAP1 PUSH2 0x188 SWAP3 SWAP2 SWAP1 PUSH2 0x375 JUMP JUMPDEST POP PUSH1 0x40 DUP3 ADD MLOAD DUP2 PUSH1 0x2 ADD SWAP1 DUP1 MLOAD SWAP1 PUSH1 0x20 ADD SWAP1 PUSH2 0x1A5 SWAP3 SWAP2 SWAP1 PUSH2 0x375 JUMP JUMPDEST POP PUSH1 0x60 DUP3 ADD MLOAD DUP2 PUSH1 0x3 ADD SSTORE PUSH1 0x80 DUP3 ADD MLOAD DUP2 PUSH1 0x4 ADD SSTORE PUSH1 0xA0 DUP3 ADD MLOAD DUP2 PUSH1 0x5 ADD PUSH1 0x0 PUSH2 0x100 EXP DUP2 SLOAD DUP2 PUSH1 0xFF MUL NOT AND SWAP1 DUP4 ISZERO ISZERO MUL OR SWAP1 SSTORE POP POP POP POP POP POP POP POP POP JUMP JUMPDEST PUSH1 0x0 SELFBALANCE SWAP1 POP SWAP1 JUMP JUMPDEST PUSH1 0x1 DUP2 DUP2 SLOAD DUP2 LT PUSH2 0x1FC JUMPI PUSH1 0x0 DUP1 REVERT JUMPDEST SWAP1 PUSH1 0x0 MSTORE PUSH1 0x20 PUSH1 0x0 KECCAK256 SWAP1 PUSH1 0x6 MUL ADD PUSH1 0x0 SWAP2 POP SWAP1 POP DUP1 PUSH1 0x0 ADD PUSH1 0x0 SWAP1 SLOAD SWAP1 PUSH2 0x100 EXP SWAP1 DIV PUSH20 0xFFFFFFFFFFFFFFFFFFFFFFFFFFFFFFFFFFFFFFFF AND SWAP1 DUP1 PUSH1 0x1 ADD DUP1 SLOAD PUSH2 0x245 SWAP1 PUSH2 0x7A5 JUMP JUMPDEST DUP1 PUSH1 0x1F ADD PUSH1 0x20 DUP1 SWAP2 DIV MUL PUSH1 0x20 ADD PUSH1 0x40 MLOAD SWAP1 DUP2 ADD PUSH1 0x40 MSTORE DUP1 SWAP3 SWAP2 SWAP1 DUP2 DUP2 MSTORE PUSH1 0x20 ADD DUP3 DUP1 SLOAD PUSH2 0x271 SWAP1 PUSH2 0x7A5 JUMP JUMPDEST DUP1 ISZERO PUSH2 0x2BE JUMPI DUP1 PUSH1 0x1F LT PUSH2 0x293 JUMPI PUSH2 0x100 DUP1 DUP4 SLOAD DIV MUL DUP4 MSTORE SWAP2 PUSH1 0x20 ADD SWAP2 PUSH2 0x2BE JUMP JUMPDEST DUP3 ADD SWAP2 SWAP1 PUSH1 0x0 MSTORE PUSH1 0x20 PUSH1 0x0 KECCAK256 SWAP1 JUMPDEST DUP2 SLOAD DUP2 MSTORE SWAP1 PUSH1 0x1 ADD SWAP1 PUSH1 0x20 ADD DUP1 DUP4 GT PUSH2 0x2A1 JUMPI DUP3 SWAP1 SUB PUSH1 0x1F AND DUP3 ADD SWAP2 JUMPDEST POP POP POP POP POP SWAP1 DUP1 PUSH1 0x2 ADD DUP1 SLOAD PUSH2 0x2D3 SWAP1 PUSH2 0x7A5 JUMP JUMPDEST DUP1 PUSH1 0x1F ADD PUSH1 0x20 DUP1 SWAP2 DIV MUL PUSH1 0x20 ADD PUSH1 0x40 MLOAD SWAP1 DUP2 ADD PUSH1 0x40 MSTORE DUP1 SWAP3 SWAP2 SWAP1 DUP2 DUP2 MSTORE PUSH1 0x20 ADD DUP3 DUP1 SLOAD PUSH2 0x2FF SWAP1 PUSH2 0x7A5 JUMP JUMPDEST DUP1 ISZERO PUSH2 0x34C JUMPI DUP1 PUSH1 0x1F LT PUSH2 0x321 JUMPI PUSH2 0x100 DUP1 DUP4 SLOAD DIV MUL DUP4 MSTORE SWAP2 PUSH1 0x20 ADD SWAP2 PUSH2 0x34C JUMP JUMPDEST DUP3 ADD SWAP2 SWAP1 PUSH1 0x0 MSTORE PUSH1 0x20 PUSH1 0x0 KECCAK256 SWAP1 JUMPDEST DUP2 SLOAD DUP2 MSTORE SWAP1 PUSH1 0x1 ADD SWAP1 PUSH1 0x20 ADD DUP1 DUP4 GT PUSH2 0x32F JUMPI DUP3 SWAP1 SUB PUSH1 0x1F AND DUP3 ADD SWAP2 JUMPDEST POP POP POP POP POP SWAP1 DUP1 PUSH1 0x3 ADD SLOAD SWAP1 DUP1 PUSH1 0x4 ADD SLOAD SWAP1 DUP1 PUSH1 0x5 ADD PUSH1 0x0 SWAP1 SLOAD SWAP1 PUSH2 0x100 EXP SWAP1 DIV PUSH1 0xFF AND SWAP1 POP DUP7 JUMP JUMPDEST DUP3 DUP1 SLOAD PUSH2 0x381 SWAP1 PUSH2 0x7A5 JUMP JUMPDEST SWAP1 PUSH1 0x0 MSTORE PUSH1 0x20 PUSH1 0x0 KECCAK256 SWAP1 PUSH1 0x1F ADD PUSH1 0x20 SWAP1 DIV DUP2 ADD SWAP3 DUP3 PUSH2 0x3A3 JUMPI PUSH1 0x0 DUP6 SSTORE PUSH2 0x3EA JUMP JUMPDEST DUP3 PUSH1 0x1F LT PUSH2 0x3BC JUMPI DUP1 MLOAD PUSH1 0xFF NOT AND DUP4 DUP1 ADD OR DUP6 SSTORE PUSH2 0x3EA JUMP JUMPDEST DUP3 DUP1 ADD PUSH1 0x1 ADD DUP6 SSTORE DUP3 ISZERO PUSH2 0x3EA JUMPI SWAP2 DUP3 ADD JUMPDEST DUP3 DUP2 GT ISZERO PUSH2 0x3E9 JUMPI DUP3 MLOAD DUP3 SSTORE SWAP2 PUSH1 0x20 ADD SWAP2 SWAP1 PUSH1 0x1 ADD SWAP1 PUSH2 0x3CE JUMP JUMPDEST JUMPDEST POP SWAP1 POP PUSH2 0x3F7 SWAP2 SWAP1 PUSH2 0x3FB JUMP JUMPDEST POP SWAP1 JUMP JUMPDEST JUMPDEST DUP1 DUP3 GT ISZERO PUSH2 0x414 JUMPI PUSH1 0x0 DUP2 PUSH1 0x0 SWAP1 SSTORE POP PUSH1 0x1 ADD PUSH2 0x3FC JUMP JUMPDEST POP SWAP1 JUMP JUMPDEST PUSH1 0x0 PUSH2 0x42B PUSH2 0x426 DUP5 PUSH2 0x6CE JUMP JUMPDEST PUSH2 0x6A9 JUMP JUMPDEST SWAP1 POP DUP3 DUP2 MSTORE PUSH1 0x20 DUP2 ADD DUP5 DUP5 DUP5 ADD GT ISZERO PUSH2 0x447 JUMPI PUSH2 0x446 PUSH2 0x86B JUMP JUMPDEST JUMPDEST PUSH2 0x452 DUP5 DUP3 DUP6 PUSH2 0x763 JUMP JUMPDEST POP SWAP4 SWAP3 POP POP POP JUMP JUMPDEST PUSH1 0x0 DUP2 CALLDATALOAD SWAP1 POP PUSH2 0x469 DUP2 PUSH2 0x88B JUMP JUMPDEST SWAP3 SWAP2 POP POP JUMP JUMPDEST PUSH1 0x0 DUP2 CALLDATALOAD SWAP1 POP PUSH2 0x47E DUP2 PUSH2 0x8A2 JUMP JUMPDEST SWAP3 SWAP2 POP POP JUMP JUMPDEST PUSH1 0x0 DUP3 PUSH1 0x1F DUP4 ADD SLT PUSH2 0x499 JUMPI PUSH2 0x498 PUSH2 0x866 JUMP JUMPDEST JUMPDEST DUP2 CALLDATALOAD PUSH2 0x4A9 DUP5 DUP3 PUSH1 0x20 DUP7 ADD PUSH2 0x418 JUMP JUMPDEST SWAP2 POP POP SWAP3 SWAP2 POP POP JUMP JUMPDEST PUSH1 0x0 DUP2 CALLDATALOAD SWAP1 POP PUSH2 0x4C1 DUP2 PUSH2 0x8B9 JUMP JUMPDEST SWAP3 SWAP2 POP POP JUMP JUMPDEST PUSH1 0x0 DUP1 PUSH1 0x0 DUP1 PUSH1 0x0 DUP1 PUSH1 0xC0 DUP8 DUP10 SUB SLT ISZERO PUSH2 0x4E4 JUMPI PUSH2 0x4E3 PUSH2 0x875 JUMP JUMPDEST JUMPDEST PUSH1 0x0 PUSH2 0x4F2 DUP10 DUP3 DUP11 ADD PUSH2 0x45A JUMP JUMPDEST SWAP7 POP POP PUSH1 0x20 DUP8 ADD CALLDATALOAD PUSH8 0xFFFFFFFFFFFFFFFF DUP2 GT ISZERO PUSH2 0x513 JUMPI PUSH2 0x512 PUSH2 0x870 JUMP JUMPDEST JUMPDEST PUSH2 0x51F DUP10 DUP3 DUP11 ADD PUSH2 0x484 JUMP JUMPDEST SWAP6 POP POP PUSH1 0x40 DUP8 ADD CALLDATALOAD PUSH8 0xFFFFFFFFFFFFFFFF DUP2 GT ISZERO PUSH2 0x540 JUMPI PUSH2 0x53F PUSH2 0x870 JUMP JUMPDEST JUMPDEST PUSH2 0x54C DUP10 DUP3 DUP11 ADD PUSH2 0x484 JUMP JUMPDEST SWAP5 POP POP PUSH1 0x60 PUSH2 0x55D DUP10 DUP3 DUP11 ADD PUSH2 0x4B2 JUMP JUMPDEST SWAP4 POP POP PUSH1 0x80 PUSH2 0x56E DUP10 DUP3 DUP11 ADD PUSH2 0x4B2 JUMP JUMPDEST SWAP3 POP POP PUSH1 0xA0 PUSH2 0x57F DUP10 DUP3 DUP11 ADD PUSH2 0x46F JUMP JUMPDEST SWAP2 POP POP SWAP3 SWAP6 POP SWAP3 SWAP6 POP SWAP3 SWAP6 JUMP JUMPDEST PUSH1 0x0 PUSH1 0x20 DUP3 DUP5 SUB SLT ISZERO PUSH2 0x5A2 JUMPI PUSH2 0x5A1 PUSH2 0x875 JUMP JUMPDEST JUMPDEST PUSH1 0x0 PUSH2 0x5B0 DUP5 DUP3 DUP6 ADD PUSH2 0x4B2 JUMP JUMPDEST SWAP2 POP POP SWAP3 SWAP2 POP POP JUMP JUMPDEST PUSH2 0x5C2 DUP2 PUSH2 0x71B JUMP JUMPDEST DUP3 MSTORE POP POP JUMP JUMPDEST PUSH2 0x5D1 DUP2 PUSH2 0x72D JUMP JUMPDEST DUP3 MSTORE POP POP JUMP JUMPDEST PUSH1 0x0 PUSH2 0x5E2 DUP3 PUSH2 0x6FF JUMP JUMPDEST PUSH2 0x5EC DUP2 DUP6 PUSH2 0x70A JUMP JUMPDEST SWAP4 POP PUSH2 0x5FC DUP2 DUP6 PUSH1 0x20 DUP7 ADD PUSH2 0x772 JUMP JUMPDEST PUSH2 0x605 DUP2 PUSH2 0x87A JUMP JUMPDEST DUP5 ADD SWAP2 POP POP SWAP3 SWAP2 POP POP JUMP JUMPDEST PUSH2 0x619 DUP2 PUSH2 0x759 JUMP JUMPDEST DUP3 MSTORE POP POP JUMP JUMPDEST PUSH1 0x0 PUSH1 0xC0 DUP3 ADD SWAP1 POP PUSH2 0x634 PUSH1 0x0 DUP4 ADD DUP10 PUSH2 0x5B9 JUMP JUMPDEST DUP2 DUP2 SUB PUSH1 0x20 DUP4 ADD MSTORE PUSH2 0x646 DUP2 DUP9 PUSH2 0x5D7 JUMP JUMPDEST SWAP1 POP DUP2 DUP2 SUB PUSH1 0x40 DUP4 ADD MSTORE PUSH2 0x65A DUP2 DUP8 PUSH2 0x5D7 JUMP JUMPDEST SWAP1 POP PUSH2 0x669 PUSH1 0x60 DUP4 ADD DUP7 PUSH2 0x610 JUMP JUMPDEST PUSH2 0x676 PUSH1 0x80 DUP4 ADD DUP6 PUSH2 0x610 JUMP JUMPDEST PUSH2 0x683 PUSH1 0xA0 DUP4 ADD DUP5 PUSH2 0x5C8 JUMP JUMPDEST SWAP8 SWAP7 POP POP POP POP POP POP POP JUMP JUMPDEST PUSH1 0x0 PUSH1 0x20 DUP3 ADD SWAP1 POP PUSH2 0x6A3 PUSH1 0x0 DUP4 ADD DUP5 PUSH2 0x610 JUMP JUMPDEST SWAP3 SWAP2 POP POP JUMP JUMPDEST PUSH1 0x0 PUSH2 0x6B3 PUSH2 0x6C4 JUMP JUMPDEST SWAP1 POP PUSH2 0x6BF DUP3 DUP3 PUSH2 0x7D7 JUMP JUMPDEST SWAP2 SWAP1 POP JUMP JUMPDEST PUSH1 0x0 PUSH1 0x40 MLOAD SWAP1 POP SWAP1 JUMP JUMPDEST PUSH1 0x0 PUSH8 0xFFFFFFFFFFFFFFFF DUP3 GT ISZERO PUSH2 0x6E9 JUMPI PUSH2 0x6E8 PUSH2 0x837 JUMP JUMPDEST JUMPDEST PUSH2 0x6F2 DUP3 PUSH2 0x87A JUMP JUMPDEST SWAP1 POP PUSH1 0x20 DUP2 ADD SWAP1 POP SWAP2 SWAP1 POP JUMP JUMPDEST PUSH1 0x0 DUP2 MLOAD SWAP1 POP SWAP2 SWAP1 POP JUMP JUMPDEST PUSH1 0x0 DUP3 DUP3 MSTORE PUSH1 0x20 DUP3 ADD SWAP1 POP SWAP3 SWAP2 POP POP JUMP JUMPDEST PUSH1 0x0 PUSH2 0x726 DUP3 PUSH2 0x739 JUMP JUMPDEST SWAP1 POP SWAP2 SWAP1 POP JUMP JUMPDEST PUSH1 0x0 DUP2 ISZERO ISZERO SWAP1 POP SWAP2 SWAP1 POP JUMP JUMPDEST PUSH1 0x0 PUSH20 0xFFFFFFFFFFFFFFFFFFFFFFFFFFFFFFFFFFFFFFFF DUP3 AND SWAP1 POP SWAP2 SWAP1 POP JUMP JUMPDEST PUSH1 0x0 DUP2 SWAP1 POP SWAP2 SWAP1 POP JUMP JUMPDEST DUP3 DUP2 DUP4 CALLDATACOPY PUSH1 0x0 DUP4 DUP4 ADD MSTORE POP POP POP JUMP JUMPDEST PUSH1 0x0 JUMPDEST DUP4 DUP2 LT ISZERO PUSH2 0x790 JUMPI DUP1 DUP3 ADD MLOAD DUP2 DUP5 ADD MSTORE PUSH1 0x20 DUP2 ADD SWAP1 POP PUSH2 0x775 JUMP JUMPDEST DUP4 DUP2 GT ISZERO PUSH2 0x79F JUMPI PUSH1 0x0 DUP5 DUP5 ADD MSTORE JUMPDEST POP POP POP POP JUMP JUMPDEST PUSH1 0x0 PUSH1 0x2 DUP3 DIV SWAP1 POP PUSH1 0x1 DUP3 AND DUP1 PUSH2 0x7BD JUMPI PUSH1 0x7F DUP3 AND SWAP2 POP JUMPDEST PUSH1 0x20 DUP3 LT DUP2 EQ ISZERO PUSH2 0x7D1 JUMPI PUSH2 0x7D0 PUSH2 0x808 JUMP JUMPDEST JUMPDEST POP SWAP2 SWAP1 POP JUMP JUMPDEST PUSH2 0x7E0 DUP3 PUSH2 0x87A JUMP JUMPDEST DUP2 ADD DUP2 DUP2 LT PUSH8 0xFFFFFFFFFFFFFFFF DUP3 GT OR ISZERO PUSH2 0x7FF JUMPI PUSH2 0x7FE PUSH2 0x837 JUMP JUMPDEST JUMPDEST DUP1 PUSH1 0x40 MSTORE POP POP POP JUMP JUMPDEST PUSH32 0x4E487B7100000000000000000000000000000000000000000000000000000000 PUSH1 0x0 MSTORE PUSH1 0x22 PUSH1 0x4 MSTORE PUSH1 0x24 PUSH1 0x0 REVERT JUMPDEST PUSH32 0x4E487B7100000000000000000000000000000000000000000000000000000000 PUSH1 0x0 MSTORE PUSH1 0x41 PUSH1 0x4 MSTORE PUSH1 0x24 PUSH1 0x0 REVERT JUMPDEST PUSH1 0x0 DUP1 REVERT JUMPDEST PUSH1 0x0 DUP1 REVERT JUMPDEST PUSH1 0x0 DUP1 REVERT JUMPDEST PUSH1 0x0 DUP1 REVERT JUMPDEST PUSH1 0x0 PUSH1 0x1F NOT PUSH1 0x1F DUP4 ADD AND SWAP1 POP SWAP2 SWAP1 POP JUMP JUMPDEST PUSH2 0x894 DUP2 PUSH2 0x71B JUMP JUMPDEST DUP2 EQ PUSH2 0x89F JUMPI PUSH1 0x0 DUP1 REVERT JUMPDEST POP JUMP JUMPDEST PUSH2 0x8AB DUP2 PUSH2 0x72D JUMP JUMPDEST DUP2 EQ PUSH2 0x8B6 JUMPI PUSH1 0x0 DUP1 REVERT JUMPDEST POP JUMP JUMPDEST PUSH2 0x8C2 DUP2 PUSH2 0x759 JUMP JUMPDEST DUP2 EQ PUSH2 0x8CD JUMPI PUSH1 0x0 DUP1 REVERT JUMPDEST POP JUMP INVALID LOG2 PUSH5 0x6970667358 0x22 SLT KECCAK256 0x23 MULMOD 0xF7 MULMOD 0xF7 PUSH22 0x5AB1BE2081C55E03EA82BB1BEC8C5D6AE033694D5CA1 ISZERO 0xD4 DUP14 0xCE PUSH5 0x736F6C6343 STOP ADDMOD SMOD STOP CALLER "
				},
				"gasEstimates": {
					"creation": {
						"codeDepositCost": "462000",
						"executionCost": "24765",
						"totalCost": "486765"
					},
					"external": {
						"addKid(address,string,string,uint256,uint256,bool)": "infinite",
						"balanceOf()": "339",
						"kids(uint256)": "infinite"
					}
				},
				"methodIdentifiers": {
					"addKid(address,string,string,uint256,uint256,bool)": "31d575c5",
					"balanceOf()": "722713f7",
					"kids(uint256)": "7285fd3a"
				}
			},
			"storageLayout": {
				"storage": [
					{
						"astId": 3,
						"contract": "contracts/CryptoKids.sol:CryptoKids",
						"label": "owner",
						"offset": 0,
						"slot": "0",
						"type": "t_address"
					},
					{
						"astId": 29,
						"contract": "contracts/CryptoKids.sol:CryptoKids",
						"label": "kids",
						"offset": 0,
						"slot": "1",
						"type": "t_array(t_struct(Kid)25_storage)dyn_storage"
					}
				],
				"types": {
					"t_address": {
						"encoding": "inplace",
						"label": "address",
						"numberOfBytes": "20"
					},
					"t_array(t_struct(Kid)25_storage)dyn_storage": {
						"base": "t_struct(Kid)25_storage",
						"encoding": "dynamic_array",
						"label": "struct CryptoKids.Kid[]",
						"numberOfBytes": "32"
					},
					"t_bool": {
						"encoding": "inplace",
						"label": "bool",
						"numberOfBytes": "1"
					},
					"t_string_storage": {
						"encoding": "bytes",
						"label": "string",
						"numberOfBytes": "32"
					},
					"t_struct(Kid)25_storage": {
						"encoding": "inplace",
						"label": "struct CryptoKids.Kid",
						"members": [
							{
								"astId": 14,
								"contract": "contracts/CryptoKids.sol:CryptoKids",
								"label": "walletAddress",
								"offset": 0,
								"slot": "0",
								"type": "t_address"
							},
							{
								"astId": 16,
								"contract": "contracts/CryptoKids.sol:CryptoKids",
								"label": "firstName",
								"offset": 0,
								"slot": "1",
								"type": "t_string_storage"
							},
							{
								"astId": 18,
								"contract": "contracts/CryptoKids.sol:CryptoKids",
								"label": "lasName",
								"offset": 0,
								"slot": "2",
								"type": "t_string_storage"
							},
							{
								"astId": 20,
								"contract": "contracts/CryptoKids.sol:CryptoKids",
								"label": "releaseTime",
								"offset": 0,
								"slot": "3",
								"type": "t_uint256"
							},
							{
								"astId": 22,
								"contract": "contracts/CryptoKids.sol:CryptoKids",
								"label": "amount",
								"offset": 0,
								"slot": "4",
								"type": "t_uint256"
							},
							{
								"astId": 24,
								"contract": "contracts/CryptoKids.sol:CryptoKids",
								"label": "canWithdraw",
								"offset": 0,
								"slot": "5",
								"type": "t_bool"
							}
						],
						"numberOfBytes": "192"
					},
					"t_uint256": {
						"encoding": "inplace",
						"label": "uint256",
						"numberOfBytes": "32"
					}
				}
			},
			"userdoc": {
				"kind": "user",
				"methods": {},
				"version": 1
			}
		}
	}
}