{
	"contracts/CryptoKids.sol": {
		"CryptoKids": {
			"abi": [
				{
					"inputs": [],
					"stateMutability": "nonpayable",
					"type": "constructor"
				},
				{
					"inputs": [
						{
							"internalType": "address payable",
							"name": "walletAddress",
							"type": "address"
						},
						{
							"internalType": "string",
							"name": "firstName",
							"type": "string"
						},
						{
							"internalType": "string",
							"name": "lasName",
							"type": "string"
						},
						{
							"internalType": "uint256",
							"name": "releaseTime",
							"type": "uint256"
						},
						{
							"internalType": "uint256",
							"name": "amount",
							"type": "uint256"
						},
						{
							"internalType": "bool",
							"name": "canWithdraw",
							"type": "bool"
						}
					],
					"name": "addKid",
					"outputs": [],
					"stateMutability": "nonpayable",
					"type": "function"
				},
				{
					"inputs": [
						{
							"internalType": "address",
							"name": "walletAddress",
							"type": "address"
						}
					],
					"name": "availableToWithdraw",
					"outputs": [
						{
							"internalType": "bool",
							"name": "",
							"type": "bool"
						}
					],
					"stateMutability": "nonpayable",
					"type": "function"
				},
				{
					"inputs": [],
					"name": "balanceOf",
					"outputs": [
						{
							"internalType": "uint256",
							"name": "",
							"type": "uint256"
						}
					],
					"stateMutability": "view",
					"type": "function"
				},
				{
					"inputs": [
						{
							"internalType": "address",
							"name": "walletAddress",
							"type": "address"
						}
					],
					"name": "deposit",
					"outputs": [],
					"stateMutability": "payable",
					"type": "function"
				},
				{
					"inputs": [
						{
							"internalType": "uint256",
							"name": "",
							"type": "uint256"
						}
					],
					"name": "kids",
					"outputs": [
						{
							"internalType": "address payable",
							"name": "walletAddress",
							"type": "address"
						},
						{
							"internalType": "string",
							"name": "firstName",
							"type": "string"
						},
						{
							"internalType": "string",
							"name": "lasName",
							"type": "string"
						},
						{
							"internalType": "uint256",
							"name": "releaseTime",
							"type": "uint256"
						},
						{
							"internalType": "uint256",
							"name": "amount",
							"type": "uint256"
						},
						{
							"internalType": "bool",
							"name": "canWithdraw",
							"type": "bool"
						}
					],
					"stateMutability": "view",
					"type": "function"
				},
				{
					"inputs": [
						{
							"internalType": "address payable",
							"name": "walletAddress",
							"type": "address"
						}
					],
					"name": "withdraw",
					"outputs": [],
					"stateMutability": "payable",
					"type": "function"
				}
			],
			"devdoc": {
				"kind": "dev",
				"methods": {},
				"version": 1
			},
			"evm": {
				"assembly": "    /* \"contracts/CryptoKids.sol\":64:2158  contract CryptoKids {... */\n  mstore(0x40, 0x80)\n    /* \"contracts/CryptoKids.sol\":124:172  constructor(){... */\n  callvalue\n  dup1\n  iszero\n  tag_1\n  jumpi\n  0x00\n  dup1\n  revert\ntag_1:\n  pop\n    /* \"contracts/CryptoKids.sol\":155:165  msg.sender */\n  caller\n    /* \"contracts/CryptoKids.sol\":147:152  owner */\n  0x00\n  dup1\n    /* \"contracts/CryptoKids.sol\":147:165  owner = msg.sender */\n  0x0100\n  exp\n  dup2\n  sload\n  dup2\n  0xffffffffffffffffffffffffffffffffffffffff\n  mul\n  not\n  and\n  swap1\n  dup4\n  0xffffffffffffffffffffffffffffffffffffffff\n  and\n  mul\n  or\n  swap1\n  sstore\n  pop\n    /* \"contracts/CryptoKids.sol\":64:2158  contract CryptoKids {... */\n  dataSize(sub_0)\n  dup1\n  dataOffset(sub_0)\n  0x00\n  codecopy\n  0x00\n  return\nstop\n\nsub_0: assembly {\n        /* \"contracts/CryptoKids.sol\":64:2158  contract CryptoKids {... */\n      mstore(0x40, 0x80)\n      jumpi(tag_1, lt(calldatasize, 0x04))\n      shr(0xe0, calldataload(0x00))\n      dup1\n      0x31d575c5\n      eq\n      tag_2\n      jumpi\n      dup1\n      0x51cff8d9\n      eq\n      tag_3\n      jumpi\n      dup1\n      0x722713f7\n      eq\n      tag_4\n      jumpi\n      dup1\n      0x7285fd3a\n      eq\n      tag_5\n      jumpi\n      dup1\n      0xa25db8ce\n      eq\n      tag_6\n      jumpi\n      dup1\n      0xf340fa01\n      eq\n      tag_7\n      jumpi\n    tag_1:\n      0x00\n      dup1\n      revert\n        /* \"contracts/CryptoKids.sol\":388:721  function addKid(address payable walletAddress, string memory firstName, string memory lasName, uint releaseTime, uint amount, bool canWithdraw) public {... */\n    tag_2:\n      callvalue\n      dup1\n      iszero\n      tag_8\n      jumpi\n      0x00\n      dup1\n      revert\n    tag_8:\n      pop\n      tag_9\n      0x04\n      dup1\n      calldatasize\n      sub\n      dup2\n      add\n      swap1\n      tag_10\n      swap2\n      swap1\n      tag_11\n      jump\t// in\n    tag_10:\n      tag_12\n      jump\t// in\n    tag_9:\n      stop\n        /* \"contracts/CryptoKids.sol\":1807:2155  function withdraw(address payable walletAddress) payable public{... */\n    tag_3:\n      tag_13\n      0x04\n      dup1\n      calldatasize\n      sub\n      dup2\n      add\n      swap1\n      tag_14\n      swap2\n      swap1\n      tag_15\n      jump\t// in\n    tag_14:\n      tag_16\n      jump\t// in\n    tag_13:\n      stop\n        /* \"contracts/CryptoKids.sol\":727:818  function balanceOf() public view returns(uint){... */\n    tag_4:\n      callvalue\n      dup1\n      iszero\n      tag_17\n      jumpi\n      0x00\n      dup1\n      revert\n    tag_17:\n      pop\n      tag_18\n      tag_19\n      jump\t// in\n    tag_18:\n      mload(0x40)\n      tag_20\n      swap2\n      swap1\n      tag_21\n      jump\t// in\n    tag_20:\n      mload(0x40)\n      dup1\n      swap2\n      sub\n      swap1\n      return\n        /* \"contracts/CryptoKids.sol\":364:381  Kid[] public kids */\n    tag_5:\n      callvalue\n      dup1\n      iszero\n      tag_22\n      jumpi\n      0x00\n      dup1\n      revert\n    tag_22:\n      pop\n      tag_23\n      0x04\n      dup1\n      calldatasize\n      sub\n      dup2\n      add\n      swap1\n      tag_24\n      swap2\n      swap1\n      tag_25\n      jump\t// in\n    tag_24:\n      tag_26\n      jump\t// in\n    tag_23:\n      mload(0x40)\n      tag_27\n      swap7\n      swap6\n      swap5\n      swap4\n      swap3\n      swap2\n      swap1\n      tag_28\n      jump\t// in\n    tag_27:\n      mload(0x40)\n      dup1\n      swap2\n      sub\n      swap1\n      return\n        /* \"contracts/CryptoKids.sol\":1423:1801  function availableToWithdraw(address walletAddress) public returns(bool){... */\n    tag_6:\n      callvalue\n      dup1\n      iszero\n      tag_29\n      jumpi\n      0x00\n      dup1\n      revert\n    tag_29:\n      pop\n      tag_30\n      0x04\n      dup1\n      calldatasize\n      sub\n      dup2\n      add\n      swap1\n      tag_31\n      swap2\n      swap1\n      tag_32\n      jump\t// in\n    tag_31:\n      tag_33\n      jump\t// in\n    tag_30:\n      mload(0x40)\n      tag_34\n      swap2\n      swap1\n      tag_35\n      jump\t// in\n    tag_34:\n      mload(0x40)\n      dup1\n      swap2\n      sub\n      swap1\n      return\n        /* \"contracts/CryptoKids.sol\":824:926  function deposit(address walletAddress) payable public{... */\n    tag_7:\n      tag_36\n      0x04\n      dup1\n      calldatasize\n      sub\n      dup2\n      add\n      swap1\n      tag_37\n      swap2\n      swap1\n      tag_32\n      jump\t// in\n    tag_37:\n      tag_38\n      jump\t// in\n    tag_36:\n      stop\n        /* \"contracts/CryptoKids.sol\":388:721  function addKid(address payable walletAddress, string memory firstName, string memory lasName, uint releaseTime, uint amount, bool canWithdraw) public {... */\n    tag_12:\n        /* \"contracts/CryptoKids.sol\":549:553  kids */\n      0x01\n        /* \"contracts/CryptoKids.sol\":559:713  Kid(... */\n      mload(0x40)\n      dup1\n      0xc0\n      add\n      0x40\n      mstore\n      dup1\n        /* \"contracts/CryptoKids.sol\":576:589  walletAddress */\n      dup9\n        /* \"contracts/CryptoKids.sol\":559:713  Kid(... */\n      0xffffffffffffffffffffffffffffffffffffffff\n      and\n      dup2\n      mstore\n      0x20\n      add\n        /* \"contracts/CryptoKids.sol\":603:612  firstName */\n      dup8\n        /* \"contracts/CryptoKids.sol\":559:713  Kid(... */\n      dup2\n      mstore\n      0x20\n      add\n        /* \"contracts/CryptoKids.sol\":626:633  lasName */\n      dup7\n        /* \"contracts/CryptoKids.sol\":559:713  Kid(... */\n      dup2\n      mstore\n      0x20\n      add\n        /* \"contracts/CryptoKids.sol\":647:658  releaseTime */\n      dup6\n        /* \"contracts/CryptoKids.sol\":559:713  Kid(... */\n      dup2\n      mstore\n      0x20\n      add\n        /* \"contracts/CryptoKids.sol\":672:678  amount */\n      dup5\n        /* \"contracts/CryptoKids.sol\":559:713  Kid(... */\n      dup2\n      mstore\n      0x20\n      add\n        /* \"contracts/CryptoKids.sol\":692:703  canWithdraw */\n      dup4\n        /* \"contracts/CryptoKids.sol\":559:713  Kid(... */\n      iszero\n      iszero\n      dup2\n      mstore\n      pop\n        /* \"contracts/CryptoKids.sol\":549:714  kids.push(Kid(... */\n      swap1\n      dup1\n      0x01\n      dup2\n      sload\n      add\n      dup1\n      dup3\n      sstore\n      dup1\n      swap2\n      pop\n      pop\n      0x01\n      swap1\n      sub\n      swap1\n      0x00\n      mstore\n      keccak256(0x00, 0x20)\n      swap1\n      0x06\n      mul\n      add\n      0x00\n      swap1\n      swap2\n      swap1\n      swap2\n      swap1\n      swap2\n      pop\n      0x00\n      dup3\n      add\n      mload\n      dup2\n      0x00\n      add\n      exp(0x0100, 0x00)\n      dup2\n      sload\n      dup2\n      0xffffffffffffffffffffffffffffffffffffffff\n      mul\n      not\n      and\n      swap1\n      dup4\n      0xffffffffffffffffffffffffffffffffffffffff\n      and\n      mul\n      or\n      swap1\n      sstore\n      pop\n      0x20\n      dup3\n      add\n      mload\n      dup2\n      0x01\n      add\n      swap1\n      dup1\n      mload\n      swap1\n      0x20\n      add\n      swap1\n      tag_41\n      swap3\n      swap2\n      swap1\n      tag_42\n      jump\t// in\n    tag_41:\n      pop\n      0x40\n      dup3\n      add\n      mload\n      dup2\n      0x02\n      add\n      swap1\n      dup1\n      mload\n      swap1\n      0x20\n      add\n      swap1\n      tag_43\n      swap3\n      swap2\n      swap1\n      tag_42\n      jump\t// in\n    tag_43:\n      pop\n      0x60\n      dup3\n      add\n      mload\n      dup2\n      0x03\n      add\n      sstore\n      0x80\n      dup3\n      add\n      mload\n      dup2\n      0x04\n      add\n      sstore\n      0xa0\n      dup3\n      add\n      mload\n      dup2\n      0x05\n      add\n      exp(0x0100, 0x00)\n      dup2\n      sload\n      dup2\n      0xff\n      mul\n      not\n      and\n      swap1\n      dup4\n      iszero\n      iszero\n      mul\n      or\n      swap1\n      sstore\n      pop\n      pop\n      pop\n        /* \"contracts/CryptoKids.sol\":388:721  function addKid(address payable walletAddress, string memory firstName, string memory lasName, uint releaseTime, uint amount, bool canWithdraw) public {... */\n      pop\n      pop\n      pop\n      pop\n      pop\n      pop\n      jump\t// out\n        /* \"contracts/CryptoKids.sol\":1807:2155  function withdraw(address payable walletAddress) payable public{... */\n    tag_16:\n        /* \"contracts/CryptoKids.sol\":1880:1886  uint i */\n      0x00\n        /* \"contracts/CryptoKids.sol\":1889:1912  getIndex(walletAddress) */\n      tag_45\n        /* \"contracts/CryptoKids.sol\":1898:1911  walletAddress */\n      dup3\n        /* \"contracts/CryptoKids.sol\":1889:1897  getIndex */\n      tag_46\n        /* \"contracts/CryptoKids.sol\":1889:1912  getIndex(walletAddress) */\n      jump\t// in\n    tag_45:\n        /* \"contracts/CryptoKids.sol\":1880:1912  uint i = getIndex(walletAddress) */\n      swap1\n      pop\n        /* \"contracts/CryptoKids.sol\":1944:1948  kids */\n      0x01\n        /* \"contracts/CryptoKids.sol\":1949:1950  i */\n      dup2\n        /* \"contracts/CryptoKids.sol\":1944:1951  kids[i] */\n      dup2\n      sload\n      dup2\n      lt\n      tag_47\n      jumpi\n      tag_48\n      tag_49\n      jump\t// in\n    tag_48:\n    tag_47:\n      swap1\n      0x00\n      mstore\n      keccak256(0x00, 0x20)\n      swap1\n      0x06\n      mul\n      add\n        /* \"contracts/CryptoKids.sol\":1944:1965  kids[i].walletAddress */\n      0x00\n      add\n      0x00\n      swap1\n      sload\n      swap1\n      0x0100\n      exp\n      swap1\n      div\n      0xffffffffffffffffffffffffffffffffffffffff\n      and\n        /* \"contracts/CryptoKids.sol\":1930:1965  msg.sender == kids[i].walletAddress */\n      0xffffffffffffffffffffffffffffffffffffffff\n      and\n        /* \"contracts/CryptoKids.sol\":1930:1940  msg.sender */\n      caller\n        /* \"contracts/CryptoKids.sol\":1930:1965  msg.sender == kids[i].walletAddress */\n      0xffffffffffffffffffffffffffffffffffffffff\n      and\n      eq\n        /* \"contracts/CryptoKids.sol\":1922:2001  require(msg.sender == kids[i].walletAddress, \"You must be the kid to withdraw\") */\n      tag_51\n      jumpi\n      mload(0x40)\n      0x08c379a000000000000000000000000000000000000000000000000000000000\n      dup2\n      mstore\n      0x04\n      add\n      tag_52\n      swap1\n      tag_53\n      jump\t// in\n    tag_52:\n      mload(0x40)\n      dup1\n      swap2\n      sub\n      swap1\n      revert\n    tag_51:\n        /* \"contracts/CryptoKids.sol\":2042:2046  true */\n      0x01\n        /* \"contracts/CryptoKids.sol\":2019:2046  kids[i].canWithdraw == true */\n      iszero\n      iszero\n        /* \"contracts/CryptoKids.sol\":2019:2023  kids */\n      0x01\n        /* \"contracts/CryptoKids.sol\":2024:2025  i */\n      dup3\n        /* \"contracts/CryptoKids.sol\":2019:2026  kids[i] */\n      dup2\n      sload\n      dup2\n      lt\n      tag_54\n      jumpi\n      tag_55\n      tag_49\n      jump\t// in\n    tag_55:\n    tag_54:\n      swap1\n      0x00\n      mstore\n      keccak256(0x00, 0x20)\n      swap1\n      0x06\n      mul\n      add\n        /* \"contracts/CryptoKids.sol\":2019:2038  kids[i].canWithdraw */\n      0x05\n      add\n      0x00\n      swap1\n      sload\n      swap1\n      0x0100\n      exp\n      swap1\n      div\n      0xff\n      and\n        /* \"contracts/CryptoKids.sol\":2019:2046  kids[i].canWithdraw == true */\n      iszero\n      iszero\n      eq\n        /* \"contracts/CryptoKids.sol\":2011:2092  require(kids[i].canWithdraw == true, \"You are not able to withdraw at this time\") */\n      tag_57\n      jumpi\n      mload(0x40)\n      0x08c379a000000000000000000000000000000000000000000000000000000000\n      dup2\n      mstore\n      0x04\n      add\n      tag_58\n      swap1\n      tag_59\n      jump\t// in\n    tag_58:\n      mload(0x40)\n      dup1\n      swap2\n      sub\n      swap1\n      revert\n    tag_57:\n        /* \"contracts/CryptoKids.sol\":2102:2106  kids */\n      0x01\n        /* \"contracts/CryptoKids.sol\":2107:2108  i */\n      dup2\n        /* \"contracts/CryptoKids.sol\":2102:2109  kids[i] */\n      dup2\n      sload\n      dup2\n      lt\n      tag_60\n      jumpi\n      tag_61\n      tag_49\n      jump\t// in\n    tag_61:\n    tag_60:\n      swap1\n      0x00\n      mstore\n      keccak256(0x00, 0x20)\n      swap1\n      0x06\n      mul\n      add\n        /* \"contracts/CryptoKids.sol\":2102:2123  kids[i].walletAddress */\n      0x00\n      add\n      0x00\n      swap1\n      sload\n      swap1\n      0x0100\n      exp\n      swap1\n      div\n      0xffffffffffffffffffffffffffffffffffffffff\n      and\n        /* \"contracts/CryptoKids.sol\":2102:2132  kids[i].walletAddress.transfer */\n      0xffffffffffffffffffffffffffffffffffffffff\n      and\n        /* \"contracts/CryptoKids.sol\":2102:2148  kids[i].walletAddress.transfer(kids[i].amount) */\n      0x08fc\n        /* \"contracts/CryptoKids.sol\":2133:2137  kids */\n      0x01\n        /* \"contracts/CryptoKids.sol\":2138:2139  i */\n      dup4\n        /* \"contracts/CryptoKids.sol\":2133:2140  kids[i] */\n      dup2\n      sload\n      dup2\n      lt\n      tag_63\n      jumpi\n      tag_64\n      tag_49\n      jump\t// in\n    tag_64:\n    tag_63:\n      swap1\n      0x00\n      mstore\n      keccak256(0x00, 0x20)\n      swap1\n      0x06\n      mul\n      add\n        /* \"contracts/CryptoKids.sol\":2133:2147  kids[i].amount */\n      0x04\n      add\n      sload\n        /* \"contracts/CryptoKids.sol\":2102:2148  kids[i].walletAddress.transfer(kids[i].amount) */\n      swap1\n      dup2\n      iszero\n      mul\n      swap1\n      mload(0x40)\n      0x00\n      mload(0x40)\n      dup1\n      dup4\n      sub\n      dup2\n      dup6\n      dup9\n      dup9\n      call\n      swap4\n      pop\n      pop\n      pop\n      pop\n      iszero\n      dup1\n      iszero\n      tag_67\n      jumpi\n      returndatasize\n      0x00\n      dup1\n      returndatacopy\n      revert(0x00, returndatasize)\n    tag_67:\n      pop\n        /* \"contracts/CryptoKids.sol\":1870:2155  {... */\n      pop\n        /* \"contracts/CryptoKids.sol\":1807:2155  function withdraw(address payable walletAddress) payable public{... */\n      pop\n      jump\t// out\n        /* \"contracts/CryptoKids.sol\":727:818  function balanceOf() public view returns(uint){... */\n    tag_19:\n        /* \"contracts/CryptoKids.sol\":768:772  uint */\n      0x00\n        /* \"contracts/CryptoKids.sol\":790:811  address(this).balance */\n      selfbalance\n        /* \"contracts/CryptoKids.sol\":783:811  return address(this).balance */\n      swap1\n      pop\n        /* \"contracts/CryptoKids.sol\":727:818  function balanceOf() public view returns(uint){... */\n      swap1\n      jump\t// out\n        /* \"contracts/CryptoKids.sol\":364:381  Kid[] public kids */\n    tag_26:\n      0x01\n      dup2\n      dup2\n      sload\n      dup2\n      lt\n      tag_69\n      jumpi\n      0x00\n      dup1\n      revert\n    tag_69:\n      swap1\n      0x00\n      mstore\n      keccak256(0x00, 0x20)\n      swap1\n      0x06\n      mul\n      add\n      0x00\n      swap2\n      pop\n      swap1\n      pop\n      dup1\n      0x00\n      add\n      0x00\n      swap1\n      sload\n      swap1\n      0x0100\n      exp\n      swap1\n      div\n      0xffffffffffffffffffffffffffffffffffffffff\n      and\n      swap1\n      dup1\n      0x01\n      add\n      dup1\n      sload\n      tag_71\n      swap1\n      tag_72\n      jump\t// in\n    tag_71:\n      dup1\n      0x1f\n      add\n      0x20\n      dup1\n      swap2\n      div\n      mul\n      0x20\n      add\n      mload(0x40)\n      swap1\n      dup2\n      add\n      0x40\n      mstore\n      dup1\n      swap3\n      swap2\n      swap1\n      dup2\n      dup2\n      mstore\n      0x20\n      add\n      dup3\n      dup1\n      sload\n      tag_73\n      swap1\n      tag_72\n      jump\t// in\n    tag_73:\n      dup1\n      iszero\n      tag_74\n      jumpi\n      dup1\n      0x1f\n      lt\n      tag_75\n      jumpi\n      0x0100\n      dup1\n      dup4\n      sload\n      div\n      mul\n      dup4\n      mstore\n      swap2\n      0x20\n      add\n      swap2\n      jump(tag_74)\n    tag_75:\n      dup3\n      add\n      swap2\n      swap1\n      0x00\n      mstore\n      keccak256(0x00, 0x20)\n      swap1\n    tag_76:\n      dup2\n      sload\n      dup2\n      mstore\n      swap1\n      0x01\n      add\n      swap1\n      0x20\n      add\n      dup1\n      dup4\n      gt\n      tag_76\n      jumpi\n      dup3\n      swap1\n      sub\n      0x1f\n      and\n      dup3\n      add\n      swap2\n    tag_74:\n      pop\n      pop\n      pop\n      pop\n      pop\n      swap1\n      dup1\n      0x02\n      add\n      dup1\n      sload\n      tag_77\n      swap1\n      tag_72\n      jump\t// in\n    tag_77:\n      dup1\n      0x1f\n      add\n      0x20\n      dup1\n      swap2\n      div\n      mul\n      0x20\n      add\n      mload(0x40)\n      swap1\n      dup2\n      add\n      0x40\n      mstore\n      dup1\n      swap3\n      swap2\n      swap1\n      dup2\n      dup2\n      mstore\n      0x20\n      add\n      dup3\n      dup1\n      sload\n      tag_78\n      swap1\n      tag_72\n      jump\t// in\n    tag_78:\n      dup1\n      iszero\n      tag_79\n      jumpi\n      dup1\n      0x1f\n      lt\n      tag_80\n      jumpi\n      0x0100\n      dup1\n      dup4\n      sload\n      div\n      mul\n      dup4\n      mstore\n      swap2\n      0x20\n      add\n      swap2\n      jump(tag_79)\n    tag_80:\n      dup3\n      add\n      swap2\n      swap1\n      0x00\n      mstore\n      keccak256(0x00, 0x20)\n      swap1\n    tag_81:\n      dup2\n      sload\n      dup2\n      mstore\n      swap1\n      0x01\n      add\n      swap1\n      0x20\n      add\n      dup1\n      dup4\n      gt\n      tag_81\n      jumpi\n      dup3\n      swap1\n      sub\n      0x1f\n      and\n      dup3\n      add\n      swap2\n    tag_79:\n      pop\n      pop\n      pop\n      pop\n      pop\n      swap1\n      dup1\n      0x03\n      add\n      sload\n      swap1\n      dup1\n      0x04\n      add\n      sload\n      swap1\n      dup1\n      0x05\n      add\n      0x00\n      swap1\n      sload\n      swap1\n      0x0100\n      exp\n      swap1\n      div\n      0xff\n      and\n      swap1\n      pop\n      dup7\n      jump\t// out\n        /* \"contracts/CryptoKids.sol\":1423:1801  function availableToWithdraw(address walletAddress) public returns(bool){... */\n    tag_33:\n        /* \"contracts/CryptoKids.sol\":1490:1494  bool */\n      0x00\n        /* \"contracts/CryptoKids.sol\":1505:1511  uint i */\n      dup1\n        /* \"contracts/CryptoKids.sol\":1514:1537  getIndex(walletAddress) */\n      tag_83\n        /* \"contracts/CryptoKids.sol\":1523:1536  walletAddress */\n      dup4\n        /* \"contracts/CryptoKids.sol\":1514:1522  getIndex */\n      tag_46\n        /* \"contracts/CryptoKids.sol\":1514:1537  getIndex(walletAddress) */\n      jump\t// in\n    tag_83:\n        /* \"contracts/CryptoKids.sol\":1505:1537  uint i = getIndex(walletAddress) */\n      swap1\n      pop\n        /* \"contracts/CryptoKids.sol\":1573:1577  kids */\n      0x01\n        /* \"contracts/CryptoKids.sol\":1578:1579  i */\n      dup2\n        /* \"contracts/CryptoKids.sol\":1573:1580  kids[i] */\n      dup2\n      sload\n      dup2\n      lt\n      tag_84\n      jumpi\n      tag_85\n      tag_49\n      jump\t// in\n    tag_85:\n    tag_84:\n      swap1\n      0x00\n      mstore\n      keccak256(0x00, 0x20)\n      swap1\n      0x06\n      mul\n      add\n        /* \"contracts/CryptoKids.sol\":1573:1592  kids[i].releaseTime */\n      0x03\n      add\n      sload\n        /* \"contracts/CryptoKids.sol\":1555:1570  block.timestamp */\n      timestamp\n        /* \"contracts/CryptoKids.sol\":1555:1592  block.timestamp > kids[i].releaseTime */\n      gt\n        /* \"contracts/CryptoKids.sol\":1547:1620  require(block.timestamp > kids[i].releaseTime, \"You cannot withdraw yet\") */\n      tag_87\n      jumpi\n      mload(0x40)\n      0x08c379a000000000000000000000000000000000000000000000000000000000\n      dup2\n      mstore\n      0x04\n      add\n      tag_88\n      swap1\n      tag_89\n      jump\t// in\n    tag_88:\n      mload(0x40)\n      dup1\n      swap2\n      sub\n      swap1\n      revert\n    tag_87:\n        /* \"contracts/CryptoKids.sol\":1652:1656  kids */\n      0x01\n        /* \"contracts/CryptoKids.sol\":1657:1658  i */\n      dup2\n        /* \"contracts/CryptoKids.sol\":1652:1659  kids[i] */\n      dup2\n      sload\n      dup2\n      lt\n      tag_90\n      jumpi\n      tag_91\n      tag_49\n      jump\t// in\n    tag_91:\n    tag_90:\n      swap1\n      0x00\n      mstore\n      keccak256(0x00, 0x20)\n      swap1\n      0x06\n      mul\n      add\n        /* \"contracts/CryptoKids.sol\":1652:1671  kids[i].releaseTime */\n      0x03\n      add\n      sload\n        /* \"contracts/CryptoKids.sol\":1633:1648  block.timestamp */\n      timestamp\n        /* \"contracts/CryptoKids.sol\":1633:1671  block.timestamp >= kids[i].releaseTime */\n      lt\n        /* \"contracts/CryptoKids.sol\":1630:1795  if(block.timestamp >= kids[i].releaseTime){... */\n      tag_93\n      jumpi\n        /* \"contracts/CryptoKids.sol\":1708:1712  true */\n      0x01\n        /* \"contracts/CryptoKids.sol\":1686:1690  kids */\n      dup1\n        /* \"contracts/CryptoKids.sol\":1691:1692  i */\n      dup3\n        /* \"contracts/CryptoKids.sol\":1686:1693  kids[i] */\n      dup2\n      sload\n      dup2\n      lt\n      tag_94\n      jumpi\n      tag_95\n      tag_49\n      jump\t// in\n    tag_95:\n    tag_94:\n      swap1\n      0x00\n      mstore\n      keccak256(0x00, 0x20)\n      swap1\n      0x06\n      mul\n      add\n        /* \"contracts/CryptoKids.sol\":1686:1705  kids[i].canWithdraw */\n      0x05\n      add\n      0x00\n        /* \"contracts/CryptoKids.sol\":1686:1712  kids[i].canWithdraw = true */\n      0x0100\n      exp\n      dup2\n      sload\n      dup2\n      0xff\n      mul\n      not\n      and\n      swap1\n      dup4\n      iszero\n      iszero\n      mul\n      or\n      swap1\n      sstore\n      pop\n        /* \"contracts/CryptoKids.sol\":1733:1737  true */\n      0x01\n        /* \"contracts/CryptoKids.sol\":1726:1737  return true */\n      swap2\n      pop\n      pop\n      jump(tag_82)\n        /* \"contracts/CryptoKids.sol\":1630:1795  if(block.timestamp >= kids[i].releaseTime){... */\n    tag_93:\n        /* \"contracts/CryptoKids.sol\":1783:1788  false */\n      0x00\n        /* \"contracts/CryptoKids.sol\":1776:1788  return false */\n      swap2\n      pop\n      pop\n        /* \"contracts/CryptoKids.sol\":1423:1801  function availableToWithdraw(address walletAddress) public returns(bool){... */\n    tag_82:\n      swap2\n      swap1\n      pop\n      jump\t// out\n        /* \"contracts/CryptoKids.sol\":824:926  function deposit(address walletAddress) payable public{... */\n    tag_38:\n        /* \"contracts/CryptoKids.sol\":888:919  addToKidsBalance(walletAddress) */\n      tag_99\n        /* \"contracts/CryptoKids.sol\":905:918  walletAddress */\n      dup2\n        /* \"contracts/CryptoKids.sol\":888:904  addToKidsBalance */\n      tag_100\n        /* \"contracts/CryptoKids.sol\":888:919  addToKidsBalance(walletAddress) */\n      jump\t// in\n    tag_99:\n        /* \"contracts/CryptoKids.sol\":824:926  function deposit(address walletAddress) payable public{... */\n      pop\n      jump\t// out\n        /* \"contracts/CryptoKids.sol\":1172:1417  function getIndex(address walletAddress) view private returns(uint){... */\n    tag_46:\n        /* \"contracts/CryptoKids.sol\":1234:1238  uint */\n      0x00\n        /* \"contracts/CryptoKids.sol\":1253:1259  uint i */\n      dup1\n        /* \"contracts/CryptoKids.sol\":1260:1261  0 */\n      0x00\n        /* \"contracts/CryptoKids.sol\":1253:1261  uint i=0 */\n      swap1\n      pop\n        /* \"contracts/CryptoKids.sol\":1249:1391  for(uint i=0; i< kids.length ; i++){... */\n    tag_102:\n        /* \"contracts/CryptoKids.sol\":1266:1270  kids */\n      0x01\n        /* \"contracts/CryptoKids.sol\":1266:1277  kids.length */\n      dup1\n      sload\n      swap1\n      pop\n        /* \"contracts/CryptoKids.sol\":1263:1264  i */\n      dup2\n        /* \"contracts/CryptoKids.sol\":1263:1277  i< kids.length */\n      lt\n        /* \"contracts/CryptoKids.sol\":1249:1391  for(uint i=0; i< kids.length ; i++){... */\n      iszero\n      tag_103\n      jumpi\n        /* \"contracts/CryptoKids.sol\":1326:1339  walletAddress */\n      dup3\n        /* \"contracts/CryptoKids.sol\":1301:1339  kids[i].walletAddress == walletAddress */\n      0xffffffffffffffffffffffffffffffffffffffff\n      and\n        /* \"contracts/CryptoKids.sol\":1301:1305  kids */\n      0x01\n        /* \"contracts/CryptoKids.sol\":1306:1307  i */\n      dup3\n        /* \"contracts/CryptoKids.sol\":1301:1308  kids[i] */\n      dup2\n      sload\n      dup2\n      lt\n      tag_105\n      jumpi\n      tag_106\n      tag_49\n      jump\t// in\n    tag_106:\n    tag_105:\n      swap1\n      0x00\n      mstore\n      keccak256(0x00, 0x20)\n      swap1\n      0x06\n      mul\n      add\n        /* \"contracts/CryptoKids.sol\":1301:1322  kids[i].walletAddress */\n      0x00\n      add\n      0x00\n      swap1\n      sload\n      swap1\n      0x0100\n      exp\n      swap1\n      div\n      0xffffffffffffffffffffffffffffffffffffffff\n      and\n        /* \"contracts/CryptoKids.sol\":1301:1339  kids[i].walletAddress == walletAddress */\n      0xffffffffffffffffffffffffffffffffffffffff\n      and\n      eq\n        /* \"contracts/CryptoKids.sol\":1298:1381  if(kids[i].walletAddress == walletAddress){... */\n      iszero\n      tag_108\n      jumpi\n        /* \"contracts/CryptoKids.sol\":1365:1366  i */\n      dup1\n        /* \"contracts/CryptoKids.sol\":1358:1366  return i */\n      swap2\n      pop\n      pop\n      jump(tag_101)\n        /* \"contracts/CryptoKids.sol\":1298:1381  if(kids[i].walletAddress == walletAddress){... */\n    tag_108:\n        /* \"contracts/CryptoKids.sol\":1280:1283  i++ */\n      dup1\n      dup1\n      tag_109\n      swap1\n      tag_110\n      jump\t// in\n    tag_109:\n      swap2\n      pop\n      pop\n        /* \"contracts/CryptoKids.sol\":1249:1391  for(uint i=0; i< kids.length ; i++){... */\n      jump(tag_102)\n    tag_103:\n      pop\n        /* \"contracts/CryptoKids.sol\":1407:1410  999 */\n      0x03e7\n        /* \"contracts/CryptoKids.sol\":1400:1410  return 999 */\n      swap1\n      pop\n        /* \"contracts/CryptoKids.sol\":1172:1417  function getIndex(address walletAddress) view private returns(uint){... */\n    tag_101:\n      swap2\n      swap1\n      pop\n      jump\t// out\n        /* \"contracts/CryptoKids.sol\":932:1166  function addToKidsBalance(address walletAddress) private {... */\n    tag_100:\n        /* \"contracts/CryptoKids.sol\":1003:1009  uint i */\n      0x00\n        /* \"contracts/CryptoKids.sol\":999:1160  for(uint i=0; i < kids.length; i++){... */\n    tag_112:\n        /* \"contracts/CryptoKids.sol\":1017:1021  kids */\n      0x01\n        /* \"contracts/CryptoKids.sol\":1017:1028  kids.length */\n      dup1\n      sload\n      swap1\n      pop\n        /* \"contracts/CryptoKids.sol\":1013:1014  i */\n      dup2\n        /* \"contracts/CryptoKids.sol\":1013:1028  i < kids.length */\n      lt\n        /* \"contracts/CryptoKids.sol\":999:1160  for(uint i=0; i < kids.length; i++){... */\n      iszero\n      tag_113\n      jumpi\n        /* \"contracts/CryptoKids.sol\":1076:1089  walletAddress */\n      dup2\n        /* \"contracts/CryptoKids.sol\":1051:1089  kids[i].walletAddress == walletAddress */\n      0xffffffffffffffffffffffffffffffffffffffff\n      and\n        /* \"contracts/CryptoKids.sol\":1051:1055  kids */\n      0x01\n        /* \"contracts/CryptoKids.sol\":1056:1057  i */\n      dup3\n        /* \"contracts/CryptoKids.sol\":1051:1058  kids[i] */\n      dup2\n      sload\n      dup2\n      lt\n      tag_115\n      jumpi\n      tag_116\n      tag_49\n      jump\t// in\n    tag_116:\n    tag_115:\n      swap1\n      0x00\n      mstore\n      keccak256(0x00, 0x20)\n      swap1\n      0x06\n      mul\n      add\n        /* \"contracts/CryptoKids.sol\":1051:1072  kids[i].walletAddress */\n      0x00\n      add\n      0x00\n      swap1\n      sload\n      swap1\n      0x0100\n      exp\n      swap1\n      div\n      0xffffffffffffffffffffffffffffffffffffffff\n      and\n        /* \"contracts/CryptoKids.sol\":1051:1089  kids[i].walletAddress == walletAddress */\n      0xffffffffffffffffffffffffffffffffffffffff\n      and\n      eq\n        /* \"contracts/CryptoKids.sol\":1048:1150  if(kids[i].walletAddress == walletAddress){... */\n      iszero\n      tag_118\n      jumpi\n        /* \"contracts/CryptoKids.sol\":1126:1135  msg.value */\n      callvalue\n        /* \"contracts/CryptoKids.sol\":1108:1112  kids */\n      0x01\n        /* \"contracts/CryptoKids.sol\":1113:1114  i */\n      dup3\n        /* \"contracts/CryptoKids.sol\":1108:1115  kids[i] */\n      dup2\n      sload\n      dup2\n      lt\n      tag_119\n      jumpi\n      tag_120\n      tag_49\n      jump\t// in\n    tag_120:\n    tag_119:\n      swap1\n      0x00\n      mstore\n      keccak256(0x00, 0x20)\n      swap1\n      0x06\n      mul\n      add\n        /* \"contracts/CryptoKids.sol\":1108:1122  kids[i].amount */\n      0x04\n      add\n      0x00\n        /* \"contracts/CryptoKids.sol\":1108:1135  kids[i].amount += msg.value */\n      dup3\n      dup3\n      sload\n      tag_122\n      swap2\n      swap1\n      tag_123\n      jump\t// in\n    tag_122:\n      swap3\n      pop\n      pop\n      dup2\n      swap1\n      sstore\n      pop\n        /* \"contracts/CryptoKids.sol\":1048:1150  if(kids[i].walletAddress == walletAddress){... */\n    tag_118:\n        /* \"contracts/CryptoKids.sol\":1030:1033  i++ */\n      dup1\n      dup1\n      tag_124\n      swap1\n      tag_110\n      jump\t// in\n    tag_124:\n      swap2\n      pop\n      pop\n        /* \"contracts/CryptoKids.sol\":999:1160  for(uint i=0; i < kids.length; i++){... */\n      jump(tag_112)\n    tag_113:\n      pop\n        /* \"contracts/CryptoKids.sol\":932:1166  function addToKidsBalance(address walletAddress) private {... */\n      pop\n      jump\t// out\n    tag_42:\n      dup3\n      dup1\n      sload\n      tag_125\n      swap1\n      tag_72\n      jump\t// in\n    tag_125:\n      swap1\n      0x00\n      mstore\n      keccak256(0x00, 0x20)\n      swap1\n      0x1f\n      add\n      0x20\n      swap1\n      div\n      dup2\n      add\n      swap3\n      dup3\n      tag_127\n      jumpi\n      0x00\n      dup6\n      sstore\n      jump(tag_126)\n    tag_127:\n      dup3\n      0x1f\n      lt\n      tag_128\n      jumpi\n      dup1\n      mload\n      not(0xff)\n      and\n      dup4\n      dup1\n      add\n      or\n      dup6\n      sstore\n      jump(tag_126)\n    tag_128:\n      dup3\n      dup1\n      add\n      0x01\n      add\n      dup6\n      sstore\n      dup3\n      iszero\n      tag_126\n      jumpi\n      swap2\n      dup3\n      add\n    tag_129:\n      dup3\n      dup2\n      gt\n      iszero\n      tag_130\n      jumpi\n      dup3\n      mload\n      dup3\n      sstore\n      swap2\n      0x20\n      add\n      swap2\n      swap1\n      0x01\n      add\n      swap1\n      jump(tag_129)\n    tag_130:\n    tag_126:\n      pop\n      swap1\n      pop\n      tag_131\n      swap2\n      swap1\n      tag_132\n      jump\t// in\n    tag_131:\n      pop\n      swap1\n      jump\t// out\n    tag_132:\n    tag_133:\n      dup1\n      dup3\n      gt\n      iszero\n      tag_134\n      jumpi\n      0x00\n      dup2\n      0x00\n      swap1\n      sstore\n      pop\n      0x01\n      add\n      jump(tag_133)\n    tag_134:\n      pop\n      swap1\n      jump\t// out\n        /* \"#utility.yul\":7:419   */\n    tag_136:\n        /* \"#utility.yul\":85:90   */\n      0x00\n        /* \"#utility.yul\":110:176   */\n      tag_138\n        /* \"#utility.yul\":126:175   */\n      tag_139\n        /* \"#utility.yul\":168:174   */\n      dup5\n        /* \"#utility.yul\":126:175   */\n      tag_140\n      jump\t// in\n    tag_139:\n        /* \"#utility.yul\":110:176   */\n      tag_141\n      jump\t// in\n    tag_138:\n        /* \"#utility.yul\":101:176   */\n      swap1\n      pop\n        /* \"#utility.yul\":199:205   */\n      dup3\n        /* \"#utility.yul\":192:197   */\n      dup2\n        /* \"#utility.yul\":185:206   */\n      mstore\n        /* \"#utility.yul\":237:241   */\n      0x20\n        /* \"#utility.yul\":230:235   */\n      dup2\n        /* \"#utility.yul\":226:242   */\n      add\n        /* \"#utility.yul\":275:278   */\n      dup5\n        /* \"#utility.yul\":266:272   */\n      dup5\n        /* \"#utility.yul\":261:264   */\n      dup5\n        /* \"#utility.yul\":257:273   */\n      add\n        /* \"#utility.yul\":254:279   */\n      gt\n        /* \"#utility.yul\":251:363   */\n      iszero\n      tag_142\n      jumpi\n        /* \"#utility.yul\":282:361   */\n      tag_143\n      tag_144\n      jump\t// in\n    tag_143:\n        /* \"#utility.yul\":251:363   */\n    tag_142:\n        /* \"#utility.yul\":372:413   */\n      tag_145\n        /* \"#utility.yul\":406:412   */\n      dup5\n        /* \"#utility.yul\":401:404   */\n      dup3\n        /* \"#utility.yul\":396:399   */\n      dup6\n        /* \"#utility.yul\":372:413   */\n      tag_146\n      jump\t// in\n    tag_145:\n        /* \"#utility.yul\":91:419   */\n      pop\n        /* \"#utility.yul\":7:419   */\n      swap4\n      swap3\n      pop\n      pop\n      pop\n      jump\t// out\n        /* \"#utility.yul\":425:564   */\n    tag_147:\n        /* \"#utility.yul\":471:476   */\n      0x00\n        /* \"#utility.yul\":509:515   */\n      dup2\n        /* \"#utility.yul\":496:516   */\n      calldataload\n        /* \"#utility.yul\":487:516   */\n      swap1\n      pop\n        /* \"#utility.yul\":525:558   */\n      tag_149\n        /* \"#utility.yul\":552:557   */\n      dup2\n        /* \"#utility.yul\":525:558   */\n      tag_150\n      jump\t// in\n    tag_149:\n        /* \"#utility.yul\":425:564   */\n      swap3\n      swap2\n      pop\n      pop\n      jump\t// out\n        /* \"#utility.yul\":570:725   */\n    tag_151:\n        /* \"#utility.yul\":624:629   */\n      0x00\n        /* \"#utility.yul\":662:668   */\n      dup2\n        /* \"#utility.yul\":649:669   */\n      calldataload\n        /* \"#utility.yul\":640:669   */\n      swap1\n      pop\n        /* \"#utility.yul\":678:719   */\n      tag_153\n        /* \"#utility.yul\":713:718   */\n      dup2\n        /* \"#utility.yul\":678:719   */\n      tag_154\n      jump\t// in\n    tag_153:\n        /* \"#utility.yul\":570:725   */\n      swap3\n      swap2\n      pop\n      pop\n      jump\t// out\n        /* \"#utility.yul\":731:864   */\n    tag_155:\n        /* \"#utility.yul\":774:779   */\n      0x00\n        /* \"#utility.yul\":812:818   */\n      dup2\n        /* \"#utility.yul\":799:819   */\n      calldataload\n        /* \"#utility.yul\":790:819   */\n      swap1\n      pop\n        /* \"#utility.yul\":828:858   */\n      tag_157\n        /* \"#utility.yul\":852:857   */\n      dup2\n        /* \"#utility.yul\":828:858   */\n      tag_158\n      jump\t// in\n    tag_157:\n        /* \"#utility.yul\":731:864   */\n      swap3\n      swap2\n      pop\n      pop\n      jump\t// out\n        /* \"#utility.yul\":884:1224   */\n    tag_159:\n        /* \"#utility.yul\":940:945   */\n      0x00\n        /* \"#utility.yul\":989:992   */\n      dup3\n        /* \"#utility.yul\":982:986   */\n      0x1f\n        /* \"#utility.yul\":974:980   */\n      dup4\n        /* \"#utility.yul\":970:987   */\n      add\n        /* \"#utility.yul\":966:993   */\n      slt\n        /* \"#utility.yul\":956:1078   */\n      tag_161\n      jumpi\n        /* \"#utility.yul\":997:1076   */\n      tag_162\n      tag_163\n      jump\t// in\n    tag_162:\n        /* \"#utility.yul\":956:1078   */\n    tag_161:\n        /* \"#utility.yul\":1114:1120   */\n      dup2\n        /* \"#utility.yul\":1101:1121   */\n      calldataload\n        /* \"#utility.yul\":1139:1218   */\n      tag_164\n        /* \"#utility.yul\":1214:1217   */\n      dup5\n        /* \"#utility.yul\":1206:1212   */\n      dup3\n        /* \"#utility.yul\":1199:1203   */\n      0x20\n        /* \"#utility.yul\":1191:1197   */\n      dup7\n        /* \"#utility.yul\":1187:1204   */\n      add\n        /* \"#utility.yul\":1139:1218   */\n      tag_136\n      jump\t// in\n    tag_164:\n        /* \"#utility.yul\":1130:1218   */\n      swap2\n      pop\n        /* \"#utility.yul\":946:1224   */\n      pop\n        /* \"#utility.yul\":884:1224   */\n      swap3\n      swap2\n      pop\n      pop\n      jump\t// out\n        /* \"#utility.yul\":1230:1369   */\n    tag_165:\n        /* \"#utility.yul\":1276:1281   */\n      0x00\n        /* \"#utility.yul\":1314:1320   */\n      dup2\n        /* \"#utility.yul\":1301:1321   */\n      calldataload\n        /* \"#utility.yul\":1292:1321   */\n      swap1\n      pop\n        /* \"#utility.yul\":1330:1363   */\n      tag_167\n        /* \"#utility.yul\":1357:1362   */\n      dup2\n        /* \"#utility.yul\":1330:1363   */\n      tag_168\n      jump\t// in\n    tag_167:\n        /* \"#utility.yul\":1230:1369   */\n      swap3\n      swap2\n      pop\n      pop\n      jump\t// out\n        /* \"#utility.yul\":1375:1704   */\n    tag_32:\n        /* \"#utility.yul\":1434:1440   */\n      0x00\n        /* \"#utility.yul\":1483:1485   */\n      0x20\n        /* \"#utility.yul\":1471:1480   */\n      dup3\n        /* \"#utility.yul\":1462:1469   */\n      dup5\n        /* \"#utility.yul\":1458:1481   */\n      sub\n        /* \"#utility.yul\":1454:1486   */\n      slt\n        /* \"#utility.yul\":1451:1570   */\n      iszero\n      tag_170\n      jumpi\n        /* \"#utility.yul\":1489:1568   */\n      tag_171\n      tag_172\n      jump\t// in\n    tag_171:\n        /* \"#utility.yul\":1451:1570   */\n    tag_170:\n        /* \"#utility.yul\":1609:1610   */\n      0x00\n        /* \"#utility.yul\":1634:1687   */\n      tag_173\n        /* \"#utility.yul\":1679:1686   */\n      dup5\n        /* \"#utility.yul\":1670:1676   */\n      dup3\n        /* \"#utility.yul\":1659:1668   */\n      dup6\n        /* \"#utility.yul\":1655:1677   */\n      add\n        /* \"#utility.yul\":1634:1687   */\n      tag_147\n      jump\t// in\n    tag_173:\n        /* \"#utility.yul\":1624:1687   */\n      swap2\n      pop\n        /* \"#utility.yul\":1580:1697   */\n      pop\n        /* \"#utility.yul\":1375:1704   */\n      swap3\n      swap2\n      pop\n      pop\n      jump\t// out\n        /* \"#utility.yul\":1710:2055   */\n    tag_15:\n        /* \"#utility.yul\":1777:1783   */\n      0x00\n        /* \"#utility.yul\":1826:1828   */\n      0x20\n        /* \"#utility.yul\":1814:1823   */\n      dup3\n        /* \"#utility.yul\":1805:1812   */\n      dup5\n        /* \"#utility.yul\":1801:1824   */\n      sub\n        /* \"#utility.yul\":1797:1829   */\n      slt\n        /* \"#utility.yul\":1794:1913   */\n      iszero\n      tag_175\n      jumpi\n        /* \"#utility.yul\":1832:1911   */\n      tag_176\n      tag_172\n      jump\t// in\n    tag_176:\n        /* \"#utility.yul\":1794:1913   */\n    tag_175:\n        /* \"#utility.yul\":1952:1953   */\n      0x00\n        /* \"#utility.yul\":1977:2038   */\n      tag_177\n        /* \"#utility.yul\":2030:2037   */\n      dup5\n        /* \"#utility.yul\":2021:2027   */\n      dup3\n        /* \"#utility.yul\":2010:2019   */\n      dup6\n        /* \"#utility.yul\":2006:2028   */\n      add\n        /* \"#utility.yul\":1977:2038   */\n      tag_151\n      jump\t// in\n    tag_177:\n        /* \"#utility.yul\":1967:2038   */\n      swap2\n      pop\n        /* \"#utility.yul\":1923:2048   */\n      pop\n        /* \"#utility.yul\":1710:2055   */\n      swap3\n      swap2\n      pop\n      pop\n      jump\t// out\n        /* \"#utility.yul\":2061:3488   */\n    tag_11:\n        /* \"#utility.yul\":2190:2196   */\n      0x00\n        /* \"#utility.yul\":2198:2204   */\n      dup1\n        /* \"#utility.yul\":2206:2212   */\n      0x00\n        /* \"#utility.yul\":2214:2220   */\n      dup1\n        /* \"#utility.yul\":2222:2228   */\n      0x00\n        /* \"#utility.yul\":2230:2236   */\n      dup1\n        /* \"#utility.yul\":2279:2282   */\n      0xc0\n        /* \"#utility.yul\":2267:2276   */\n      dup8\n        /* \"#utility.yul\":2258:2265   */\n      dup10\n        /* \"#utility.yul\":2254:2277   */\n      sub\n        /* \"#utility.yul\":2250:2283   */\n      slt\n        /* \"#utility.yul\":2247:2367   */\n      iszero\n      tag_179\n      jumpi\n        /* \"#utility.yul\":2286:2365   */\n      tag_180\n      tag_172\n      jump\t// in\n    tag_180:\n        /* \"#utility.yul\":2247:2367   */\n    tag_179:\n        /* \"#utility.yul\":2406:2407   */\n      0x00\n        /* \"#utility.yul\":2431:2492   */\n      tag_181\n        /* \"#utility.yul\":2484:2491   */\n      dup10\n        /* \"#utility.yul\":2475:2481   */\n      dup3\n        /* \"#utility.yul\":2464:2473   */\n      dup11\n        /* \"#utility.yul\":2460:2482   */\n      add\n        /* \"#utility.yul\":2431:2492   */\n      tag_151\n      jump\t// in\n    tag_181:\n        /* \"#utility.yul\":2421:2492   */\n      swap7\n      pop\n        /* \"#utility.yul\":2377:2502   */\n      pop\n        /* \"#utility.yul\":2569:2571   */\n      0x20\n        /* \"#utility.yul\":2558:2567   */\n      dup8\n        /* \"#utility.yul\":2554:2572   */\n      add\n        /* \"#utility.yul\":2541:2573   */\n      calldataload\n        /* \"#utility.yul\":2600:2618   */\n      0xffffffffffffffff\n        /* \"#utility.yul\":2592:2598   */\n      dup2\n        /* \"#utility.yul\":2589:2619   */\n      gt\n        /* \"#utility.yul\":2586:2703   */\n      iszero\n      tag_182\n      jumpi\n        /* \"#utility.yul\":2622:2701   */\n      tag_183\n      tag_184\n      jump\t// in\n    tag_183:\n        /* \"#utility.yul\":2586:2703   */\n    tag_182:\n        /* \"#utility.yul\":2727:2790   */\n      tag_185\n        /* \"#utility.yul\":2782:2789   */\n      dup10\n        /* \"#utility.yul\":2773:2779   */\n      dup3\n        /* \"#utility.yul\":2762:2771   */\n      dup11\n        /* \"#utility.yul\":2758:2780   */\n      add\n        /* \"#utility.yul\":2727:2790   */\n      tag_159\n      jump\t// in\n    tag_185:\n        /* \"#utility.yul\":2717:2790   */\n      swap6\n      pop\n        /* \"#utility.yul\":2512:2800   */\n      pop\n        /* \"#utility.yul\":2867:2869   */\n      0x40\n        /* \"#utility.yul\":2856:2865   */\n      dup8\n        /* \"#utility.yul\":2852:2870   */\n      add\n        /* \"#utility.yul\":2839:2871   */\n      calldataload\n        /* \"#utility.yul\":2898:2916   */\n      0xffffffffffffffff\n        /* \"#utility.yul\":2890:2896   */\n      dup2\n        /* \"#utility.yul\":2887:2917   */\n      gt\n        /* \"#utility.yul\":2884:3001   */\n      iszero\n      tag_186\n      jumpi\n        /* \"#utility.yul\":2920:2999   */\n      tag_187\n      tag_184\n      jump\t// in\n    tag_187:\n        /* \"#utility.yul\":2884:3001   */\n    tag_186:\n        /* \"#utility.yul\":3025:3088   */\n      tag_188\n        /* \"#utility.yul\":3080:3087   */\n      dup10\n        /* \"#utility.yul\":3071:3077   */\n      dup3\n        /* \"#utility.yul\":3060:3069   */\n      dup11\n        /* \"#utility.yul\":3056:3078   */\n      add\n        /* \"#utility.yul\":3025:3088   */\n      tag_159\n      jump\t// in\n    tag_188:\n        /* \"#utility.yul\":3015:3088   */\n      swap5\n      pop\n        /* \"#utility.yul\":2810:3098   */\n      pop\n        /* \"#utility.yul\":3137:3139   */\n      0x60\n        /* \"#utility.yul\":3163:3216   */\n      tag_189\n        /* \"#utility.yul\":3208:3215   */\n      dup10\n        /* \"#utility.yul\":3199:3205   */\n      dup3\n        /* \"#utility.yul\":3188:3197   */\n      dup11\n        /* \"#utility.yul\":3184:3206   */\n      add\n        /* \"#utility.yul\":3163:3216   */\n      tag_165\n      jump\t// in\n    tag_189:\n        /* \"#utility.yul\":3153:3216   */\n      swap4\n      pop\n        /* \"#utility.yul\":3108:3226   */\n      pop\n        /* \"#utility.yul\":3265:3268   */\n      0x80\n        /* \"#utility.yul\":3292:3345   */\n      tag_190\n        /* \"#utility.yul\":3337:3344   */\n      dup10\n        /* \"#utility.yul\":3328:3334   */\n      dup3\n        /* \"#utility.yul\":3317:3326   */\n      dup11\n        /* \"#utility.yul\":3313:3335   */\n      add\n        /* \"#utility.yul\":3292:3345   */\n      tag_165\n      jump\t// in\n    tag_190:\n        /* \"#utility.yul\":3282:3345   */\n      swap3\n      pop\n        /* \"#utility.yul\":3236:3355   */\n      pop\n        /* \"#utility.yul\":3394:3397   */\n      0xa0\n        /* \"#utility.yul\":3421:3471   */\n      tag_191\n        /* \"#utility.yul\":3463:3470   */\n      dup10\n        /* \"#utility.yul\":3454:3460   */\n      dup3\n        /* \"#utility.yul\":3443:3452   */\n      dup11\n        /* \"#utility.yul\":3439:3461   */\n      add\n        /* \"#utility.yul\":3421:3471   */\n      tag_155\n      jump\t// in\n    tag_191:\n        /* \"#utility.yul\":3411:3471   */\n      swap2\n      pop\n        /* \"#utility.yul\":3365:3481   */\n      pop\n        /* \"#utility.yul\":2061:3488   */\n      swap3\n      swap6\n      pop\n      swap3\n      swap6\n      pop\n      swap3\n      swap6\n      jump\t// out\n        /* \"#utility.yul\":3494:3823   */\n    tag_25:\n        /* \"#utility.yul\":3553:3559   */\n      0x00\n        /* \"#utility.yul\":3602:3604   */\n      0x20\n        /* \"#utility.yul\":3590:3599   */\n      dup3\n        /* \"#utility.yul\":3581:3588   */\n      dup5\n        /* \"#utility.yul\":3577:3600   */\n      sub\n        /* \"#utility.yul\":3573:3605   */\n      slt\n        /* \"#utility.yul\":3570:3689   */\n      iszero\n      tag_193\n      jumpi\n        /* \"#utility.yul\":3608:3687   */\n      tag_194\n      tag_172\n      jump\t// in\n    tag_194:\n        /* \"#utility.yul\":3570:3689   */\n    tag_193:\n        /* \"#utility.yul\":3728:3729   */\n      0x00\n        /* \"#utility.yul\":3753:3806   */\n      tag_195\n        /* \"#utility.yul\":3798:3805   */\n      dup5\n        /* \"#utility.yul\":3789:3795   */\n      dup3\n        /* \"#utility.yul\":3778:3787   */\n      dup6\n        /* \"#utility.yul\":3774:3796   */\n      add\n        /* \"#utility.yul\":3753:3806   */\n      tag_165\n      jump\t// in\n    tag_195:\n        /* \"#utility.yul\":3743:3806   */\n      swap2\n      pop\n        /* \"#utility.yul\":3699:3816   */\n      pop\n        /* \"#utility.yul\":3494:3823   */\n      swap3\n      swap2\n      pop\n      pop\n      jump\t// out\n        /* \"#utility.yul\":3829:3971   */\n    tag_196:\n        /* \"#utility.yul\":3932:3964   */\n      tag_198\n        /* \"#utility.yul\":3958:3963   */\n      dup2\n        /* \"#utility.yul\":3932:3964   */\n      tag_199\n      jump\t// in\n    tag_198:\n        /* \"#utility.yul\":3927:3930   */\n      dup3\n        /* \"#utility.yul\":3920:3965   */\n      mstore\n        /* \"#utility.yul\":3829:3971   */\n      pop\n      pop\n      jump\t// out\n        /* \"#utility.yul\":3977:4086   */\n    tag_200:\n        /* \"#utility.yul\":4058:4079   */\n      tag_202\n        /* \"#utility.yul\":4073:4078   */\n      dup2\n        /* \"#utility.yul\":4058:4079   */\n      tag_203\n      jump\t// in\n    tag_202:\n        /* \"#utility.yul\":4053:4056   */\n      dup3\n        /* \"#utility.yul\":4046:4080   */\n      mstore\n        /* \"#utility.yul\":3977:4086   */\n      pop\n      pop\n      jump\t// out\n        /* \"#utility.yul\":4092:4456   */\n    tag_204:\n        /* \"#utility.yul\":4180:4183   */\n      0x00\n        /* \"#utility.yul\":4208:4247   */\n      tag_206\n        /* \"#utility.yul\":4241:4246   */\n      dup3\n        /* \"#utility.yul\":4208:4247   */\n      tag_207\n      jump\t// in\n    tag_206:\n        /* \"#utility.yul\":4263:4334   */\n      tag_208\n        /* \"#utility.yul\":4327:4333   */\n      dup2\n        /* \"#utility.yul\":4322:4325   */\n      dup6\n        /* \"#utility.yul\":4263:4334   */\n      tag_209\n      jump\t// in\n    tag_208:\n        /* \"#utility.yul\":4256:4334   */\n      swap4\n      pop\n        /* \"#utility.yul\":4343:4395   */\n      tag_210\n        /* \"#utility.yul\":4388:4394   */\n      dup2\n        /* \"#utility.yul\":4383:4386   */\n      dup6\n        /* \"#utility.yul\":4376:4380   */\n      0x20\n        /* \"#utility.yul\":4369:4374   */\n      dup7\n        /* \"#utility.yul\":4365:4381   */\n      add\n        /* \"#utility.yul\":4343:4395   */\n      tag_211\n      jump\t// in\n    tag_210:\n        /* \"#utility.yul\":4420:4449   */\n      tag_212\n        /* \"#utility.yul\":4442:4448   */\n      dup2\n        /* \"#utility.yul\":4420:4449   */\n      tag_213\n      jump\t// in\n    tag_212:\n        /* \"#utility.yul\":4415:4418   */\n      dup5\n        /* \"#utility.yul\":4411:4450   */\n      add\n        /* \"#utility.yul\":4404:4450   */\n      swap2\n      pop\n        /* \"#utility.yul\":4184:4456   */\n      pop\n        /* \"#utility.yul\":4092:4456   */\n      swap3\n      swap2\n      pop\n      pop\n      jump\t// out\n        /* \"#utility.yul\":4462:4828   */\n    tag_214:\n        /* \"#utility.yul\":4604:4607   */\n      0x00\n        /* \"#utility.yul\":4625:4692   */\n      tag_216\n        /* \"#utility.yul\":4689:4691   */\n      0x17\n        /* \"#utility.yul\":4684:4687   */\n      dup4\n        /* \"#utility.yul\":4625:4692   */\n      tag_209\n      jump\t// in\n    tag_216:\n        /* \"#utility.yul\":4618:4692   */\n      swap2\n      pop\n        /* \"#utility.yul\":4701:4794   */\n      tag_217\n        /* \"#utility.yul\":4790:4793   */\n      dup3\n        /* \"#utility.yul\":4701:4794   */\n      tag_218\n      jump\t// in\n    tag_217:\n        /* \"#utility.yul\":4819:4821   */\n      0x20\n        /* \"#utility.yul\":4814:4817   */\n      dup3\n        /* \"#utility.yul\":4810:4822   */\n      add\n        /* \"#utility.yul\":4803:4822   */\n      swap1\n      pop\n        /* \"#utility.yul\":4462:4828   */\n      swap2\n      swap1\n      pop\n      jump\t// out\n        /* \"#utility.yul\":4834:5200   */\n    tag_219:\n        /* \"#utility.yul\":4976:4979   */\n      0x00\n        /* \"#utility.yul\":4997:5064   */\n      tag_221\n        /* \"#utility.yul\":5061:5063   */\n      0x29\n        /* \"#utility.yul\":5056:5059   */\n      dup4\n        /* \"#utility.yul\":4997:5064   */\n      tag_209\n      jump\t// in\n    tag_221:\n        /* \"#utility.yul\":4990:5064   */\n      swap2\n      pop\n        /* \"#utility.yul\":5073:5166   */\n      tag_222\n        /* \"#utility.yul\":5162:5165   */\n      dup3\n        /* \"#utility.yul\":5073:5166   */\n      tag_223\n      jump\t// in\n    tag_222:\n        /* \"#utility.yul\":5191:5193   */\n      0x40\n        /* \"#utility.yul\":5186:5189   */\n      dup3\n        /* \"#utility.yul\":5182:5194   */\n      add\n        /* \"#utility.yul\":5175:5194   */\n      swap1\n      pop\n        /* \"#utility.yul\":4834:5200   */\n      swap2\n      swap1\n      pop\n      jump\t// out\n        /* \"#utility.yul\":5206:5572   */\n    tag_224:\n        /* \"#utility.yul\":5348:5351   */\n      0x00\n        /* \"#utility.yul\":5369:5436   */\n      tag_226\n        /* \"#utility.yul\":5433:5435   */\n      0x1f\n        /* \"#utility.yul\":5428:5431   */\n      dup4\n        /* \"#utility.yul\":5369:5436   */\n      tag_209\n      jump\t// in\n    tag_226:\n        /* \"#utility.yul\":5362:5436   */\n      swap2\n      pop\n        /* \"#utility.yul\":5445:5538   */\n      tag_227\n        /* \"#utility.yul\":5534:5537   */\n      dup3\n        /* \"#utility.yul\":5445:5538   */\n      tag_228\n      jump\t// in\n    tag_227:\n        /* \"#utility.yul\":5563:5565   */\n      0x20\n        /* \"#utility.yul\":5558:5561   */\n      dup3\n        /* \"#utility.yul\":5554:5566   */\n      add\n        /* \"#utility.yul\":5547:5566   */\n      swap1\n      pop\n        /* \"#utility.yul\":5206:5572   */\n      swap2\n      swap1\n      pop\n      jump\t// out\n        /* \"#utility.yul\":5578:5696   */\n    tag_229:\n        /* \"#utility.yul\":5665:5689   */\n      tag_231\n        /* \"#utility.yul\":5683:5688   */\n      dup2\n        /* \"#utility.yul\":5665:5689   */\n      tag_232\n      jump\t// in\n    tag_231:\n        /* \"#utility.yul\":5660:5663   */\n      dup3\n        /* \"#utility.yul\":5653:5690   */\n      mstore\n        /* \"#utility.yul\":5578:5696   */\n      pop\n      pop\n      jump\t// out\n        /* \"#utility.yul\":5702:6679   */\n    tag_28:\n        /* \"#utility.yul\":5985:5989   */\n      0x00\n        /* \"#utility.yul\":6023:6026   */\n      0xc0\n        /* \"#utility.yul\":6012:6021   */\n      dup3\n        /* \"#utility.yul\":6008:6027   */\n      add\n        /* \"#utility.yul\":6000:6027   */\n      swap1\n      pop\n        /* \"#utility.yul\":6037:6124   */\n      tag_234\n        /* \"#utility.yul\":6121:6122   */\n      0x00\n        /* \"#utility.yul\":6110:6119   */\n      dup4\n        /* \"#utility.yul\":6106:6123   */\n      add\n        /* \"#utility.yul\":6097:6103   */\n      dup10\n        /* \"#utility.yul\":6037:6124   */\n      tag_196\n      jump\t// in\n    tag_234:\n        /* \"#utility.yul\":6171:6180   */\n      dup2\n        /* \"#utility.yul\":6165:6169   */\n      dup2\n        /* \"#utility.yul\":6161:6181   */\n      sub\n        /* \"#utility.yul\":6156:6158   */\n      0x20\n        /* \"#utility.yul\":6145:6154   */\n      dup4\n        /* \"#utility.yul\":6141:6159   */\n      add\n        /* \"#utility.yul\":6134:6182   */\n      mstore\n        /* \"#utility.yul\":6199:6277   */\n      tag_235\n        /* \"#utility.yul\":6272:6276   */\n      dup2\n        /* \"#utility.yul\":6263:6269   */\n      dup9\n        /* \"#utility.yul\":6199:6277   */\n      tag_204\n      jump\t// in\n    tag_235:\n        /* \"#utility.yul\":6191:6277   */\n      swap1\n      pop\n        /* \"#utility.yul\":6324:6333   */\n      dup2\n        /* \"#utility.yul\":6318:6322   */\n      dup2\n        /* \"#utility.yul\":6314:6334   */\n      sub\n        /* \"#utility.yul\":6309:6311   */\n      0x40\n        /* \"#utility.yul\":6298:6307   */\n      dup4\n        /* \"#utility.yul\":6294:6312   */\n      add\n        /* \"#utility.yul\":6287:6335   */\n      mstore\n        /* \"#utility.yul\":6352:6430   */\n      tag_236\n        /* \"#utility.yul\":6425:6429   */\n      dup2\n        /* \"#utility.yul\":6416:6422   */\n      dup8\n        /* \"#utility.yul\":6352:6430   */\n      tag_204\n      jump\t// in\n    tag_236:\n        /* \"#utility.yul\":6344:6430   */\n      swap1\n      pop\n        /* \"#utility.yul\":6440:6512   */\n      tag_237\n        /* \"#utility.yul\":6508:6510   */\n      0x60\n        /* \"#utility.yul\":6497:6506   */\n      dup4\n        /* \"#utility.yul\":6493:6511   */\n      add\n        /* \"#utility.yul\":6484:6490   */\n      dup7\n        /* \"#utility.yul\":6440:6512   */\n      tag_229\n      jump\t// in\n    tag_237:\n        /* \"#utility.yul\":6522:6595   */\n      tag_238\n        /* \"#utility.yul\":6590:6593   */\n      0x80\n        /* \"#utility.yul\":6579:6588   */\n      dup4\n        /* \"#utility.yul\":6575:6594   */\n      add\n        /* \"#utility.yul\":6566:6572   */\n      dup6\n        /* \"#utility.yul\":6522:6595   */\n      tag_229\n      jump\t// in\n    tag_238:\n        /* \"#utility.yul\":6605:6672   */\n      tag_239\n        /* \"#utility.yul\":6667:6670   */\n      0xa0\n        /* \"#utility.yul\":6656:6665   */\n      dup4\n        /* \"#utility.yul\":6652:6671   */\n      add\n        /* \"#utility.yul\":6643:6649   */\n      dup5\n        /* \"#utility.yul\":6605:6672   */\n      tag_200\n      jump\t// in\n    tag_239:\n        /* \"#utility.yul\":5702:6679   */\n      swap8\n      swap7\n      pop\n      pop\n      pop\n      pop\n      pop\n      pop\n      pop\n      jump\t// out\n        /* \"#utility.yul\":6685:6895   */\n    tag_35:\n        /* \"#utility.yul\":6772:6776   */\n      0x00\n        /* \"#utility.yul\":6810:6812   */\n      0x20\n        /* \"#utility.yul\":6799:6808   */\n      dup3\n        /* \"#utility.yul\":6795:6813   */\n      add\n        /* \"#utility.yul\":6787:6813   */\n      swap1\n      pop\n        /* \"#utility.yul\":6823:6888   */\n      tag_241\n        /* \"#utility.yul\":6885:6886   */\n      0x00\n        /* \"#utility.yul\":6874:6883   */\n      dup4\n        /* \"#utility.yul\":6870:6887   */\n      add\n        /* \"#utility.yul\":6861:6867   */\n      dup5\n        /* \"#utility.yul\":6823:6888   */\n      tag_200\n      jump\t// in\n    tag_241:\n        /* \"#utility.yul\":6685:6895   */\n      swap3\n      swap2\n      pop\n      pop\n      jump\t// out\n        /* \"#utility.yul\":6901:7320   */\n    tag_89:\n        /* \"#utility.yul\":7067:7071   */\n      0x00\n        /* \"#utility.yul\":7105:7107   */\n      0x20\n        /* \"#utility.yul\":7094:7103   */\n      dup3\n        /* \"#utility.yul\":7090:7108   */\n      add\n        /* \"#utility.yul\":7082:7108   */\n      swap1\n      pop\n        /* \"#utility.yul\":7154:7163   */\n      dup2\n        /* \"#utility.yul\":7148:7152   */\n      dup2\n        /* \"#utility.yul\":7144:7164   */\n      sub\n        /* \"#utility.yul\":7140:7141   */\n      0x00\n        /* \"#utility.yul\":7129:7138   */\n      dup4\n        /* \"#utility.yul\":7125:7142   */\n      add\n        /* \"#utility.yul\":7118:7165   */\n      mstore\n        /* \"#utility.yul\":7182:7313   */\n      tag_243\n        /* \"#utility.yul\":7308:7312   */\n      dup2\n        /* \"#utility.yul\":7182:7313   */\n      tag_214\n      jump\t// in\n    tag_243:\n        /* \"#utility.yul\":7174:7313   */\n      swap1\n      pop\n        /* \"#utility.yul\":6901:7320   */\n      swap2\n      swap1\n      pop\n      jump\t// out\n        /* \"#utility.yul\":7326:7745   */\n    tag_59:\n        /* \"#utility.yul\":7492:7496   */\n      0x00\n        /* \"#utility.yul\":7530:7532   */\n      0x20\n        /* \"#utility.yul\":7519:7528   */\n      dup3\n        /* \"#utility.yul\":7515:7533   */\n      add\n        /* \"#utility.yul\":7507:7533   */\n      swap1\n      pop\n        /* \"#utility.yul\":7579:7588   */\n      dup2\n        /* \"#utility.yul\":7573:7577   */\n      dup2\n        /* \"#utility.yul\":7569:7589   */\n      sub\n        /* \"#utility.yul\":7565:7566   */\n      0x00\n        /* \"#utility.yul\":7554:7563   */\n      dup4\n        /* \"#utility.yul\":7550:7567   */\n      add\n        /* \"#utility.yul\":7543:7590   */\n      mstore\n        /* \"#utility.yul\":7607:7738   */\n      tag_245\n        /* \"#utility.yul\":7733:7737   */\n      dup2\n        /* \"#utility.yul\":7607:7738   */\n      tag_219\n      jump\t// in\n    tag_245:\n        /* \"#utility.yul\":7599:7738   */\n      swap1\n      pop\n        /* \"#utility.yul\":7326:7745   */\n      swap2\n      swap1\n      pop\n      jump\t// out\n        /* \"#utility.yul\":7751:8170   */\n    tag_53:\n        /* \"#utility.yul\":7917:7921   */\n      0x00\n        /* \"#utility.yul\":7955:7957   */\n      0x20\n        /* \"#utility.yul\":7944:7953   */\n      dup3\n        /* \"#utility.yul\":7940:7958   */\n      add\n        /* \"#utility.yul\":7932:7958   */\n      swap1\n      pop\n        /* \"#utility.yul\":8004:8013   */\n      dup2\n        /* \"#utility.yul\":7998:8002   */\n      dup2\n        /* \"#utility.yul\":7994:8014   */\n      sub\n        /* \"#utility.yul\":7990:7991   */\n      0x00\n        /* \"#utility.yul\":7979:7988   */\n      dup4\n        /* \"#utility.yul\":7975:7992   */\n      add\n        /* \"#utility.yul\":7968:8015   */\n      mstore\n        /* \"#utility.yul\":8032:8163   */\n      tag_247\n        /* \"#utility.yul\":8158:8162   */\n      dup2\n        /* \"#utility.yul\":8032:8163   */\n      tag_224\n      jump\t// in\n    tag_247:\n        /* \"#utility.yul\":8024:8163   */\n      swap1\n      pop\n        /* \"#utility.yul\":7751:8170   */\n      swap2\n      swap1\n      pop\n      jump\t// out\n        /* \"#utility.yul\":8176:8398   */\n    tag_21:\n        /* \"#utility.yul\":8269:8273   */\n      0x00\n        /* \"#utility.yul\":8307:8309   */\n      0x20\n        /* \"#utility.yul\":8296:8305   */\n      dup3\n        /* \"#utility.yul\":8292:8310   */\n      add\n        /* \"#utility.yul\":8284:8310   */\n      swap1\n      pop\n        /* \"#utility.yul\":8320:8391   */\n      tag_249\n        /* \"#utility.yul\":8388:8389   */\n      0x00\n        /* \"#utility.yul\":8377:8386   */\n      dup4\n        /* \"#utility.yul\":8373:8390   */\n      add\n        /* \"#utility.yul\":8364:8370   */\n      dup5\n        /* \"#utility.yul\":8320:8391   */\n      tag_229\n      jump\t// in\n    tag_249:\n        /* \"#utility.yul\":8176:8398   */\n      swap3\n      swap2\n      pop\n      pop\n      jump\t// out\n        /* \"#utility.yul\":8404:8533   */\n    tag_141:\n        /* \"#utility.yul\":8438:8444   */\n      0x00\n        /* \"#utility.yul\":8465:8485   */\n      tag_251\n      tag_252\n      jump\t// in\n    tag_251:\n        /* \"#utility.yul\":8455:8485   */\n      swap1\n      pop\n        /* \"#utility.yul\":8494:8527   */\n      tag_253\n        /* \"#utility.yul\":8522:8526   */\n      dup3\n        /* \"#utility.yul\":8514:8520   */\n      dup3\n        /* \"#utility.yul\":8494:8527   */\n      tag_254\n      jump\t// in\n    tag_253:\n        /* \"#utility.yul\":8404:8533   */\n      swap2\n      swap1\n      pop\n      jump\t// out\n        /* \"#utility.yul\":8539:8614   */\n    tag_252:\n        /* \"#utility.yul\":8572:8578   */\n      0x00\n        /* \"#utility.yul\":8605:8607   */\n      0x40\n        /* \"#utility.yul\":8599:8608   */\n      mload\n        /* \"#utility.yul\":8589:8608   */\n      swap1\n      pop\n        /* \"#utility.yul\":8539:8614   */\n      swap1\n      jump\t// out\n        /* \"#utility.yul\":8620:8928   */\n    tag_140:\n        /* \"#utility.yul\":8682:8686   */\n      0x00\n        /* \"#utility.yul\":8772:8790   */\n      0xffffffffffffffff\n        /* \"#utility.yul\":8764:8770   */\n      dup3\n        /* \"#utility.yul\":8761:8791   */\n      gt\n        /* \"#utility.yul\":8758:8814   */\n      iszero\n      tag_257\n      jumpi\n        /* \"#utility.yul\":8794:8812   */\n      tag_258\n      tag_259\n      jump\t// in\n    tag_258:\n        /* \"#utility.yul\":8758:8814   */\n    tag_257:\n        /* \"#utility.yul\":8832:8861   */\n      tag_260\n        /* \"#utility.yul\":8854:8860   */\n      dup3\n        /* \"#utility.yul\":8832:8861   */\n      tag_213\n      jump\t// in\n    tag_260:\n        /* \"#utility.yul\":8824:8861   */\n      swap1\n      pop\n        /* \"#utility.yul\":8916:8920   */\n      0x20\n        /* \"#utility.yul\":8910:8914   */\n      dup2\n        /* \"#utility.yul\":8906:8921   */\n      add\n        /* \"#utility.yul\":8898:8921   */\n      swap1\n      pop\n        /* \"#utility.yul\":8620:8928   */\n      swap2\n      swap1\n      pop\n      jump\t// out\n        /* \"#utility.yul\":8934:9033   */\n    tag_207:\n        /* \"#utility.yul\":8986:8992   */\n      0x00\n        /* \"#utility.yul\":9020:9025   */\n      dup2\n        /* \"#utility.yul\":9014:9026   */\n      mload\n        /* \"#utility.yul\":9004:9026   */\n      swap1\n      pop\n        /* \"#utility.yul\":8934:9033   */\n      swap2\n      swap1\n      pop\n      jump\t// out\n        /* \"#utility.yul\":9039:9208   */\n    tag_209:\n        /* \"#utility.yul\":9123:9134   */\n      0x00\n        /* \"#utility.yul\":9157:9163   */\n      dup3\n        /* \"#utility.yul\":9152:9155   */\n      dup3\n        /* \"#utility.yul\":9145:9164   */\n      mstore\n        /* \"#utility.yul\":9197:9201   */\n      0x20\n        /* \"#utility.yul\":9192:9195   */\n      dup3\n        /* \"#utility.yul\":9188:9202   */\n      add\n        /* \"#utility.yul\":9173:9202   */\n      swap1\n      pop\n        /* \"#utility.yul\":9039:9208   */\n      swap3\n      swap2\n      pop\n      pop\n      jump\t// out\n        /* \"#utility.yul\":9214:9519   */\n    tag_123:\n        /* \"#utility.yul\":9254:9257   */\n      0x00\n        /* \"#utility.yul\":9273:9293   */\n      tag_264\n        /* \"#utility.yul\":9291:9292   */\n      dup3\n        /* \"#utility.yul\":9273:9293   */\n      tag_232\n      jump\t// in\n    tag_264:\n        /* \"#utility.yul\":9268:9293   */\n      swap2\n      pop\n        /* \"#utility.yul\":9307:9327   */\n      tag_265\n        /* \"#utility.yul\":9325:9326   */\n      dup4\n        /* \"#utility.yul\":9307:9327   */\n      tag_232\n      jump\t// in\n    tag_265:\n        /* \"#utility.yul\":9302:9327   */\n      swap3\n      pop\n        /* \"#utility.yul\":9461:9462   */\n      dup3\n        /* \"#utility.yul\":9393:9459   */\n      0xffffffffffffffffffffffffffffffffffffffffffffffffffffffffffffffff\n        /* \"#utility.yul\":9389:9463   */\n      sub\n        /* \"#utility.yul\":9386:9387   */\n      dup3\n        /* \"#utility.yul\":9383:9464   */\n      gt\n        /* \"#utility.yul\":9380:9487   */\n      iszero\n      tag_266\n      jumpi\n        /* \"#utility.yul\":9467:9485   */\n      tag_267\n      tag_268\n      jump\t// in\n    tag_267:\n        /* \"#utility.yul\":9380:9487   */\n    tag_266:\n        /* \"#utility.yul\":9511:9512   */\n      dup3\n        /* \"#utility.yul\":9508:9509   */\n      dup3\n        /* \"#utility.yul\":9504:9513   */\n      add\n        /* \"#utility.yul\":9497:9513   */\n      swap1\n      pop\n        /* \"#utility.yul\":9214:9519   */\n      swap3\n      swap2\n      pop\n      pop\n      jump\t// out\n        /* \"#utility.yul\":9525:9621   */\n    tag_269:\n        /* \"#utility.yul\":9562:9569   */\n      0x00\n        /* \"#utility.yul\":9591:9615   */\n      tag_271\n        /* \"#utility.yul\":9609:9614   */\n      dup3\n        /* \"#utility.yul\":9591:9615   */\n      tag_272\n      jump\t// in\n    tag_271:\n        /* \"#utility.yul\":9580:9615   */\n      swap1\n      pop\n        /* \"#utility.yul\":9525:9621   */\n      swap2\n      swap1\n      pop\n      jump\t// out\n        /* \"#utility.yul\":9627:9731   */\n    tag_199:\n        /* \"#utility.yul\":9672:9679   */\n      0x00\n        /* \"#utility.yul\":9701:9725   */\n      tag_274\n        /* \"#utility.yul\":9719:9724   */\n      dup3\n        /* \"#utility.yul\":9701:9725   */\n      tag_272\n      jump\t// in\n    tag_274:\n        /* \"#utility.yul\":9690:9725   */\n      swap1\n      pop\n        /* \"#utility.yul\":9627:9731   */\n      swap2\n      swap1\n      pop\n      jump\t// out\n        /* \"#utility.yul\":9737:9827   */\n    tag_203:\n        /* \"#utility.yul\":9771:9778   */\n      0x00\n        /* \"#utility.yul\":9814:9819   */\n      dup2\n        /* \"#utility.yul\":9807:9820   */\n      iszero\n        /* \"#utility.yul\":9800:9821   */\n      iszero\n        /* \"#utility.yul\":9789:9821   */\n      swap1\n      pop\n        /* \"#utility.yul\":9737:9827   */\n      swap2\n      swap1\n      pop\n      jump\t// out\n        /* \"#utility.yul\":9833:9959   */\n    tag_272:\n        /* \"#utility.yul\":9870:9877   */\n      0x00\n        /* \"#utility.yul\":9910:9952   */\n      0xffffffffffffffffffffffffffffffffffffffff\n        /* \"#utility.yul\":9903:9908   */\n      dup3\n        /* \"#utility.yul\":9899:9953   */\n      and\n        /* \"#utility.yul\":9888:9953   */\n      swap1\n      pop\n        /* \"#utility.yul\":9833:9959   */\n      swap2\n      swap1\n      pop\n      jump\t// out\n        /* \"#utility.yul\":9965:10042   */\n    tag_232:\n        /* \"#utility.yul\":10002:10009   */\n      0x00\n        /* \"#utility.yul\":10031:10036   */\n      dup2\n        /* \"#utility.yul\":10020:10036   */\n      swap1\n      pop\n        /* \"#utility.yul\":9965:10042   */\n      swap2\n      swap1\n      pop\n      jump\t// out\n        /* \"#utility.yul\":10048:10202   */\n    tag_146:\n        /* \"#utility.yul\":10132:10138   */\n      dup3\n        /* \"#utility.yul\":10127:10130   */\n      dup2\n        /* \"#utility.yul\":10122:10125   */\n      dup4\n        /* \"#utility.yul\":10109:10139   */\n      calldatacopy\n        /* \"#utility.yul\":10194:10195   */\n      0x00\n        /* \"#utility.yul\":10185:10191   */\n      dup4\n        /* \"#utility.yul\":10180:10183   */\n      dup4\n        /* \"#utility.yul\":10176:10192   */\n      add\n        /* \"#utility.yul\":10169:10196   */\n      mstore\n        /* \"#utility.yul\":10048:10202   */\n      pop\n      pop\n      pop\n      jump\t// out\n        /* \"#utility.yul\":10208:10515   */\n    tag_211:\n        /* \"#utility.yul\":10276:10277   */\n      0x00\n        /* \"#utility.yul\":10286:10399   */\n    tag_280:\n        /* \"#utility.yul\":10300:10306   */\n      dup4\n        /* \"#utility.yul\":10297:10298   */\n      dup2\n        /* \"#utility.yul\":10294:10307   */\n      lt\n        /* \"#utility.yul\":10286:10399   */\n      iszero\n      tag_282\n      jumpi\n        /* \"#utility.yul\":10385:10386   */\n      dup1\n        /* \"#utility.yul\":10380:10383   */\n      dup3\n        /* \"#utility.yul\":10376:10387   */\n      add\n        /* \"#utility.yul\":10370:10388   */\n      mload\n        /* \"#utility.yul\":10366:10367   */\n      dup2\n        /* \"#utility.yul\":10361:10364   */\n      dup5\n        /* \"#utility.yul\":10357:10368   */\n      add\n        /* \"#utility.yul\":10350:10389   */\n      mstore\n        /* \"#utility.yul\":10322:10324   */\n      0x20\n        /* \"#utility.yul\":10319:10320   */\n      dup2\n        /* \"#utility.yul\":10315:10325   */\n      add\n        /* \"#utility.yul\":10310:10325   */\n      swap1\n      pop\n        /* \"#utility.yul\":10286:10399   */\n      jump(tag_280)\n    tag_282:\n        /* \"#utility.yul\":10417:10423   */\n      dup4\n        /* \"#utility.yul\":10414:10415   */\n      dup2\n        /* \"#utility.yul\":10411:10424   */\n      gt\n        /* \"#utility.yul\":10408:10509   */\n      iszero\n      tag_283\n      jumpi\n        /* \"#utility.yul\":10497:10498   */\n      0x00\n        /* \"#utility.yul\":10488:10494   */\n      dup5\n        /* \"#utility.yul\":10483:10486   */\n      dup5\n        /* \"#utility.yul\":10479:10495   */\n      add\n        /* \"#utility.yul\":10472:10499   */\n      mstore\n        /* \"#utility.yul\":10408:10509   */\n    tag_283:\n        /* \"#utility.yul\":10257:10515   */\n      pop\n        /* \"#utility.yul\":10208:10515   */\n      pop\n      pop\n      pop\n      jump\t// out\n        /* \"#utility.yul\":10521:10841   */\n    tag_72:\n        /* \"#utility.yul\":10565:10571   */\n      0x00\n        /* \"#utility.yul\":10602:10603   */\n      0x02\n        /* \"#utility.yul\":10596:10600   */\n      dup3\n        /* \"#utility.yul\":10592:10604   */\n      div\n        /* \"#utility.yul\":10582:10604   */\n      swap1\n      pop\n        /* \"#utility.yul\":10649:10650   */\n      0x01\n        /* \"#utility.yul\":10643:10647   */\n      dup3\n        /* \"#utility.yul\":10639:10651   */\n      and\n        /* \"#utility.yul\":10670:10688   */\n      dup1\n        /* \"#utility.yul\":10660:10741   */\n      tag_285\n      jumpi\n        /* \"#utility.yul\":10726:10730   */\n      0x7f\n        /* \"#utility.yul\":10718:10724   */\n      dup3\n        /* \"#utility.yul\":10714:10731   */\n      and\n        /* \"#utility.yul\":10704:10731   */\n      swap2\n      pop\n        /* \"#utility.yul\":10660:10741   */\n    tag_285:\n        /* \"#utility.yul\":10788:10790   */\n      0x20\n        /* \"#utility.yul\":10780:10786   */\n      dup3\n        /* \"#utility.yul\":10777:10791   */\n      lt\n        /* \"#utility.yul\":10757:10775   */\n      dup2\n        /* \"#utility.yul\":10754:10792   */\n      eq\n        /* \"#utility.yul\":10751:10835   */\n      iszero\n      tag_286\n      jumpi\n        /* \"#utility.yul\":10807:10825   */\n      tag_287\n      tag_288\n      jump\t// in\n    tag_287:\n        /* \"#utility.yul\":10751:10835   */\n    tag_286:\n        /* \"#utility.yul\":10572:10841   */\n      pop\n        /* \"#utility.yul\":10521:10841   */\n      swap2\n      swap1\n      pop\n      jump\t// out\n        /* \"#utility.yul\":10847:11128   */\n    tag_254:\n        /* \"#utility.yul\":10930:10957   */\n      tag_290\n        /* \"#utility.yul\":10952:10956   */\n      dup3\n        /* \"#utility.yul\":10930:10957   */\n      tag_213\n      jump\t// in\n    tag_290:\n        /* \"#utility.yul\":10922:10928   */\n      dup2\n        /* \"#utility.yul\":10918:10958   */\n      add\n        /* \"#utility.yul\":11060:11066   */\n      dup2\n        /* \"#utility.yul\":11048:11058   */\n      dup2\n        /* \"#utility.yul\":11045:11067   */\n      lt\n        /* \"#utility.yul\":11024:11042   */\n      0xffffffffffffffff\n        /* \"#utility.yul\":11012:11022   */\n      dup3\n        /* \"#utility.yul\":11009:11043   */\n      gt\n        /* \"#utility.yul\":11006:11068   */\n      or\n        /* \"#utility.yul\":11003:11091   */\n      iszero\n      tag_291\n      jumpi\n        /* \"#utility.yul\":11071:11089   */\n      tag_292\n      tag_259\n      jump\t// in\n    tag_292:\n        /* \"#utility.yul\":11003:11091   */\n    tag_291:\n        /* \"#utility.yul\":11111:11121   */\n      dup1\n        /* \"#utility.yul\":11107:11109   */\n      0x40\n        /* \"#utility.yul\":11100:11122   */\n      mstore\n        /* \"#utility.yul\":10890:11128   */\n      pop\n        /* \"#utility.yul\":10847:11128   */\n      pop\n      pop\n      jump\t// out\n        /* \"#utility.yul\":11134:11367   */\n    tag_110:\n        /* \"#utility.yul\":11173:11176   */\n      0x00\n        /* \"#utility.yul\":11196:11220   */\n      tag_294\n        /* \"#utility.yul\":11214:11219   */\n      dup3\n        /* \"#utility.yul\":11196:11220   */\n      tag_232\n      jump\t// in\n    tag_294:\n        /* \"#utility.yul\":11187:11220   */\n      swap2\n      pop\n        /* \"#utility.yul\":11242:11308   */\n      0xffffffffffffffffffffffffffffffffffffffffffffffffffffffffffffffff\n        /* \"#utility.yul\":11235:11240   */\n      dup3\n        /* \"#utility.yul\":11232:11309   */\n      eq\n        /* \"#utility.yul\":11229:11332   */\n      iszero\n      tag_295\n      jumpi\n        /* \"#utility.yul\":11312:11330   */\n      tag_296\n      tag_268\n      jump\t// in\n    tag_296:\n        /* \"#utility.yul\":11229:11332   */\n    tag_295:\n        /* \"#utility.yul\":11359:11360   */\n      0x01\n        /* \"#utility.yul\":11352:11357   */\n      dup3\n        /* \"#utility.yul\":11348:11361   */\n      add\n        /* \"#utility.yul\":11341:11361   */\n      swap1\n      pop\n        /* \"#utility.yul\":11134:11367   */\n      swap2\n      swap1\n      pop\n      jump\t// out\n        /* \"#utility.yul\":11373:11553   */\n    tag_268:\n        /* \"#utility.yul\":11421:11498   */\n      0x4e487b7100000000000000000000000000000000000000000000000000000000\n        /* \"#utility.yul\":11418:11419   */\n      0x00\n        /* \"#utility.yul\":11411:11499   */\n      mstore\n        /* \"#utility.yul\":11518:11522   */\n      0x11\n        /* \"#utility.yul\":11515:11516   */\n      0x04\n        /* \"#utility.yul\":11508:11523   */\n      mstore\n        /* \"#utility.yul\":11542:11546   */\n      0x24\n        /* \"#utility.yul\":11539:11540   */\n      0x00\n        /* \"#utility.yul\":11532:11547   */\n      revert\n        /* \"#utility.yul\":11559:11739   */\n    tag_288:\n        /* \"#utility.yul\":11607:11684   */\n      0x4e487b7100000000000000000000000000000000000000000000000000000000\n        /* \"#utility.yul\":11604:11605   */\n      0x00\n        /* \"#utility.yul\":11597:11685   */\n      mstore\n        /* \"#utility.yul\":11704:11708   */\n      0x22\n        /* \"#utility.yul\":11701:11702   */\n      0x04\n        /* \"#utility.yul\":11694:11709   */\n      mstore\n        /* \"#utility.yul\":11728:11732   */\n      0x24\n        /* \"#utility.yul\":11725:11726   */\n      0x00\n        /* \"#utility.yul\":11718:11733   */\n      revert\n        /* \"#utility.yul\":11745:11925   */\n    tag_49:\n        /* \"#utility.yul\":11793:11870   */\n      0x4e487b7100000000000000000000000000000000000000000000000000000000\n        /* \"#utility.yul\":11790:11791   */\n      0x00\n        /* \"#utility.yul\":11783:11871   */\n      mstore\n        /* \"#utility.yul\":11890:11894   */\n      0x32\n        /* \"#utility.yul\":11887:11888   */\n      0x04\n        /* \"#utility.yul\":11880:11895   */\n      mstore\n        /* \"#utility.yul\":11914:11918   */\n      0x24\n        /* \"#utility.yul\":11911:11912   */\n      0x00\n        /* \"#utility.yul\":11904:11919   */\n      revert\n        /* \"#utility.yul\":11931:12111   */\n    tag_259:\n        /* \"#utility.yul\":11979:12056   */\n      0x4e487b7100000000000000000000000000000000000000000000000000000000\n        /* \"#utility.yul\":11976:11977   */\n      0x00\n        /* \"#utility.yul\":11969:12057   */\n      mstore\n        /* \"#utility.yul\":12076:12080   */\n      0x41\n        /* \"#utility.yul\":12073:12074   */\n      0x04\n        /* \"#utility.yul\":12066:12081   */\n      mstore\n        /* \"#utility.yul\":12100:12104   */\n      0x24\n        /* \"#utility.yul\":12097:12098   */\n      0x00\n        /* \"#utility.yul\":12090:12105   */\n      revert\n        /* \"#utility.yul\":12117:12234   */\n    tag_163:\n        /* \"#utility.yul\":12226:12227   */\n      0x00\n        /* \"#utility.yul\":12223:12224   */\n      dup1\n        /* \"#utility.yul\":12216:12228   */\n      revert\n        /* \"#utility.yul\":12240:12357   */\n    tag_144:\n        /* \"#utility.yul\":12349:12350   */\n      0x00\n        /* \"#utility.yul\":12346:12347   */\n      dup1\n        /* \"#utility.yul\":12339:12351   */\n      revert\n        /* \"#utility.yul\":12363:12480   */\n    tag_184:\n        /* \"#utility.yul\":12472:12473   */\n      0x00\n        /* \"#utility.yul\":12469:12470   */\n      dup1\n        /* \"#utility.yul\":12462:12474   */\n      revert\n        /* \"#utility.yul\":12486:12603   */\n    tag_172:\n        /* \"#utility.yul\":12595:12596   */\n      0x00\n        /* \"#utility.yul\":12592:12593   */\n      dup1\n        /* \"#utility.yul\":12585:12597   */\n      revert\n        /* \"#utility.yul\":12609:12711   */\n    tag_213:\n        /* \"#utility.yul\":12650:12656   */\n      0x00\n        /* \"#utility.yul\":12701:12703   */\n      0x1f\n        /* \"#utility.yul\":12697:12704   */\n      not\n        /* \"#utility.yul\":12692:12694   */\n      0x1f\n        /* \"#utility.yul\":12685:12690   */\n      dup4\n        /* \"#utility.yul\":12681:12695   */\n      add\n        /* \"#utility.yul\":12677:12705   */\n      and\n        /* \"#utility.yul\":12667:12705   */\n      swap1\n      pop\n        /* \"#utility.yul\":12609:12711   */\n      swap2\n      swap1\n      pop\n      jump\t// out\n        /* \"#utility.yul\":12717:12890   */\n    tag_218:\n        /* \"#utility.yul\":12857:12882   */\n      0x596f752063616e6e6f7420776974686472617720796574000000000000000000\n        /* \"#utility.yul\":12853:12854   */\n      0x00\n        /* \"#utility.yul\":12845:12851   */\n      dup3\n        /* \"#utility.yul\":12841:12855   */\n      add\n        /* \"#utility.yul\":12834:12883   */\n      mstore\n        /* \"#utility.yul\":12717:12890   */\n      pop\n      jump\t// out\n        /* \"#utility.yul\":12896:13124   */\n    tag_223:\n        /* \"#utility.yul\":13036:13070   */\n      0x596f7520617265206e6f742061626c6520746f20776974686472617720617420\n        /* \"#utility.yul\":13032:13033   */\n      0x00\n        /* \"#utility.yul\":13024:13030   */\n      dup3\n        /* \"#utility.yul\":13020:13034   */\n      add\n        /* \"#utility.yul\":13013:13071   */\n      mstore\n        /* \"#utility.yul\":13105:13116   */\n      0x746869732074696d650000000000000000000000000000000000000000000000\n        /* \"#utility.yul\":13100:13102   */\n      0x20\n        /* \"#utility.yul\":13092:13098   */\n      dup3\n        /* \"#utility.yul\":13088:13103   */\n      add\n        /* \"#utility.yul\":13081:13117   */\n      mstore\n        /* \"#utility.yul\":12896:13124   */\n      pop\n      jump\t// out\n        /* \"#utility.yul\":13130:13311   */\n    tag_228:\n        /* \"#utility.yul\":13270:13303   */\n      0x596f75206d75737420626520746865206b696420746f20776974686472617700\n        /* \"#utility.yul\":13266:13267   */\n      0x00\n        /* \"#utility.yul\":13258:13264   */\n      dup3\n        /* \"#utility.yul\":13254:13268   */\n      add\n        /* \"#utility.yul\":13247:13304   */\n      mstore\n        /* \"#utility.yul\":13130:13311   */\n      pop\n      jump\t// out\n        /* \"#utility.yul\":13317:13439   */\n    tag_150:\n        /* \"#utility.yul\":13390:13414   */\n      tag_310\n        /* \"#utility.yul\":13408:13413   */\n      dup2\n        /* \"#utility.yul\":13390:13414   */\n      tag_269\n      jump\t// in\n    tag_310:\n        /* \"#utility.yul\":13383:13388   */\n      dup2\n        /* \"#utility.yul\":13380:13415   */\n      eq\n        /* \"#utility.yul\":13370:13433   */\n      tag_311\n      jumpi\n        /* \"#utility.yul\":13429:13430   */\n      0x00\n        /* \"#utility.yul\":13426:13427   */\n      dup1\n        /* \"#utility.yul\":13419:13431   */\n      revert\n        /* \"#utility.yul\":13370:13433   */\n    tag_311:\n        /* \"#utility.yul\":13317:13439   */\n      pop\n      jump\t// out\n        /* \"#utility.yul\":13445:13583   */\n    tag_154:\n        /* \"#utility.yul\":13526:13558   */\n      tag_313\n        /* \"#utility.yul\":13552:13557   */\n      dup2\n        /* \"#utility.yul\":13526:13558   */\n      tag_199\n      jump\t// in\n    tag_313:\n        /* \"#utility.yul\":13519:13524   */\n      dup2\n        /* \"#utility.yul\":13516:13559   */\n      eq\n        /* \"#utility.yul\":13506:13577   */\n      tag_314\n      jumpi\n        /* \"#utility.yul\":13573:13574   */\n      0x00\n        /* \"#utility.yul\":13570:13571   */\n      dup1\n        /* \"#utility.yul\":13563:13575   */\n      revert\n        /* \"#utility.yul\":13506:13577   */\n    tag_314:\n        /* \"#utility.yul\":13445:13583   */\n      pop\n      jump\t// out\n        /* \"#utility.yul\":13589:13705   */\n    tag_158:\n        /* \"#utility.yul\":13659:13680   */\n      tag_316\n        /* \"#utility.yul\":13674:13679   */\n      dup2\n        /* \"#utility.yul\":13659:13680   */\n      tag_203\n      jump\t// in\n    tag_316:\n        /* \"#utility.yul\":13652:13657   */\n      dup2\n        /* \"#utility.yul\":13649:13681   */\n      eq\n        /* \"#utility.yul\":13639:13699   */\n      tag_317\n      jumpi\n        /* \"#utility.yul\":13695:13696   */\n      0x00\n        /* \"#utility.yul\":13692:13693   */\n      dup1\n        /* \"#utility.yul\":13685:13697   */\n      revert\n        /* \"#utility.yul\":13639:13699   */\n    tag_317:\n        /* \"#utility.yul\":13589:13705   */\n      pop\n      jump\t// out\n        /* \"#utility.yul\":13711:13833   */\n    tag_168:\n        /* \"#utility.yul\":13784:13808   */\n      tag_319\n        /* \"#utility.yul\":13802:13807   */\n      dup2\n        /* \"#utility.yul\":13784:13808   */\n      tag_232\n      jump\t// in\n    tag_319:\n        /* \"#utility.yul\":13777:13782   */\n      dup2\n        /* \"#utility.yul\":13774:13809   */\n      eq\n        /* \"#utility.yul\":13764:13827   */\n      tag_320\n      jumpi\n        /* \"#utility.yul\":13823:13824   */\n      0x00\n        /* \"#utility.yul\":13820:13821   */\n      dup1\n        /* \"#utility.yul\":13813:13825   */\n      revert\n        /* \"#utility.yul\":13764:13827   */\n    tag_320:\n        /* \"#utility.yul\":13711:13833   */\n      pop\n      jump\t// out\n\n    auxdata: 0xa2646970667358221220a56afb4f7a6f62c826048d6bee0d7028f0e3a5e40b999307c7953d8965e75eb964736f6c63430008070033\n}\n",
				"bytecode": {
					"linkReferences": {},
					"object": "608060405234801561001057600080fd5b50336000806101000a81548173ffffffffffffffffffffffffffffffffffffffff021916908373ffffffffffffffffffffffffffffffffffffffff160217905550611150806100606000396000f3fe6080604052600436106100555760003560e01c806331d575c51461005a57806351cff8d914610083578063722713f71461009f5780637285fd3a146100ca578063a25db8ce1461010c578063f340fa0114610149575b600080fd5b34801561006657600080fd5b50610081600480360381019061007c9190610a66565b610165565b005b61009d60048036038101906100989190610a39565b610294565b005b3480156100ab57600080fd5b506100b4610482565b6040516100c19190610d11565b60405180910390f35b3480156100d657600080fd5b506100f160048036038101906100ec9190610b2b565b61048a565b60405161010396959493929190610c27565b60405180910390f35b34801561011857600080fd5b50610133600480360381019061012e9190610a0c565b610613565b6040516101409190610c96565b60405180910390f35b610163600480360381019061015e9190610a0c565b610706565b005b60016040518060c001604052808873ffffffffffffffffffffffffffffffffffffffff168152602001878152602001868152602001858152602001848152602001831515815250908060018154018082558091505060019003906000526020600020906006020160009091909190915060008201518160000160006101000a81548173ffffffffffffffffffffffffffffffffffffffff021916908373ffffffffffffffffffffffffffffffffffffffff16021790555060208201518160010190805190602001906102389291906108a5565b5060408201518160020190805190602001906102559291906108a5565b50606082015181600301556080820151816004015560a08201518160050160006101000a81548160ff0219169083151502179055505050505050505050565b600061029f82610712565b9050600181815481106102b5576102b4610f9a565b5b906000526020600020906006020160000160009054906101000a900473ffffffffffffffffffffffffffffffffffffffff1673ffffffffffffffffffffffffffffffffffffffff163373ffffffffffffffffffffffffffffffffffffffff1614610354576040517f08c379a000000000000000000000000000000000000000000000000000000000815260040161034b90610cf1565b60405180910390fd5b600115156001828154811061036c5761036b610f9a565b5b906000526020600020906006020160050160009054906101000a900460ff161515146103cd576040517f08c379a00000000000000000000000000000000000000000000000000000000081526004016103c490610cd1565b60405180910390fd5b600181815481106103e1576103e0610f9a565b5b906000526020600020906006020160000160009054906101000a900473ffffffffffffffffffffffffffffffffffffffff1673ffffffffffffffffffffffffffffffffffffffff166108fc600183815481106104405761043f610f9a565b5b9060005260206000209060060201600401549081150290604051600060405180830381858888f1935050505015801561047d573d6000803e3d6000fd5b505050565b600047905090565b6001818154811061049a57600080fd5b90600052602060002090600602016000915090508060000160009054906101000a900473ffffffffffffffffffffffffffffffffffffffff16908060010180546104e390610e90565b80601f016020809104026020016040519081016040528092919081815260200182805461050f90610e90565b801561055c5780601f106105315761010080835404028352916020019161055c565b820191906000526020600020905b81548152906001019060200180831161053f57829003601f168201915b50505050509080600201805461057190610e90565b80601f016020809104026020016040519081016040528092919081815260200182805461059d90610e90565b80156105ea5780601f106105bf576101008083540402835291602001916105ea565b820191906000526020600020905b8154815290600101906020018083116105cd57829003601f168201915b5050505050908060030154908060040154908060050160009054906101000a900460ff16905086565b60008061061f83610712565b90506001818154811061063557610634610f9a565b5b9060005260206000209060060201600301544211610688576040517f08c379a000000000000000000000000000000000000000000000000000000000815260040161067f90610cb1565b60405180910390fd5b6001818154811061069c5761069b610f9a565b5b90600052602060002090600602016003015442106106fb5760018082815481106106c9576106c8610f9a565b5b906000526020600020906006020160050160006101000a81548160ff0219169083151502179055506001915050610701565b60009150505b919050565b61070f816107c8565b50565b600080600090505b6001805490508110156107bc578273ffffffffffffffffffffffffffffffffffffffff166001828154811061075257610751610f9a565b5b906000526020600020906006020160000160009054906101000a900473ffffffffffffffffffffffffffffffffffffffff1673ffffffffffffffffffffffffffffffffffffffff1614156107a957809150506107c3565b80806107b490610ef3565b91505061071a565b506103e790505b919050565b60005b6001805490508110156108a1578173ffffffffffffffffffffffffffffffffffffffff166001828154811061080357610802610f9a565b5b906000526020600020906006020160000160009054906101000a900473ffffffffffffffffffffffffffffffffffffffff1673ffffffffffffffffffffffffffffffffffffffff16141561088e57346001828154811061086657610865610f9a565b5b906000526020600020906006020160040160008282546108869190610d9e565b925050819055505b808061089990610ef3565b9150506107cb565b5050565b8280546108b190610e90565b90600052602060002090601f0160209004810192826108d3576000855561091a565b82601f106108ec57805160ff191683800117855561091a565b8280016001018555821561091a579182015b828111156109195782518255916020019190600101906108fe565b5b509050610927919061092b565b5090565b5b8082111561094457600081600090555060010161092c565b5090565b600061095b61095684610d51565b610d2c565b90508281526020810184848401111561097757610976610ffd565b5b610982848285610e4e565b509392505050565b600081359050610999816110be565b92915050565b6000813590506109ae816110d5565b92915050565b6000813590506109c3816110ec565b92915050565b600082601f8301126109de576109dd610ff8565b5b81356109ee848260208601610948565b91505092915050565b600081359050610a0681611103565b92915050565b600060208284031215610a2257610a21611007565b5b6000610a308482850161098a565b91505092915050565b600060208284031215610a4f57610a4e611007565b5b6000610a5d8482850161099f565b91505092915050565b60008060008060008060c08789031215610a8357610a82611007565b5b6000610a9189828a0161099f565b965050602087013567ffffffffffffffff811115610ab257610ab1611002565b5b610abe89828a016109c9565b955050604087013567ffffffffffffffff811115610adf57610ade611002565b5b610aeb89828a016109c9565b9450506060610afc89828a016109f7565b9350506080610b0d89828a016109f7565b92505060a0610b1e89828a016109b4565b9150509295509295509295565b600060208284031215610b4157610b40611007565b5b6000610b4f848285016109f7565b91505092915050565b610b6181610e06565b82525050565b610b7081610e18565b82525050565b6000610b8182610d82565b610b8b8185610d8d565b9350610b9b818560208601610e5d565b610ba48161100c565b840191505092915050565b6000610bbc601783610d8d565b9150610bc78261101d565b602082019050919050565b6000610bdf602983610d8d565b9150610bea82611046565b604082019050919050565b6000610c02601f83610d8d565b9150610c0d82611095565b602082019050919050565b610c2181610e44565b82525050565b600060c082019050610c3c6000830189610b58565b8181036020830152610c4e8188610b76565b90508181036040830152610c628187610b76565b9050610c716060830186610c18565b610c7e6080830185610c18565b610c8b60a0830184610b67565b979650505050505050565b6000602082019050610cab6000830184610b67565b92915050565b60006020820190508181036000830152610cca81610baf565b9050919050565b60006020820190508181036000830152610cea81610bd2565b9050919050565b60006020820190508181036000830152610d0a81610bf5565b9050919050565b6000602082019050610d266000830184610c18565b92915050565b6000610d36610d47565b9050610d428282610ec2565b919050565b6000604051905090565b600067ffffffffffffffff821115610d6c57610d6b610fc9565b5b610d758261100c565b9050602081019050919050565b600081519050919050565b600082825260208201905092915050565b6000610da982610e44565b9150610db483610e44565b9250827fffffffffffffffffffffffffffffffffffffffffffffffffffffffffffffffff03821115610de957610de8610f3c565b5b828201905092915050565b6000610dff82610e24565b9050919050565b6000610e1182610e24565b9050919050565b60008115159050919050565b600073ffffffffffffffffffffffffffffffffffffffff82169050919050565b6000819050919050565b82818337600083830152505050565b60005b83811015610e7b578082015181840152602081019050610e60565b83811115610e8a576000848401525b50505050565b60006002820490506001821680610ea857607f821691505b60208210811415610ebc57610ebb610f6b565b5b50919050565b610ecb8261100c565b810181811067ffffffffffffffff82111715610eea57610ee9610fc9565b5b80604052505050565b6000610efe82610e44565b91507fffffffffffffffffffffffffffffffffffffffffffffffffffffffffffffffff821415610f3157610f30610f3c565b5b600182019050919050565b7f4e487b7100000000000000000000000000000000000000000000000000000000600052601160045260246000fd5b7f4e487b7100000000000000000000000000000000000000000000000000000000600052602260045260246000fd5b7f4e487b7100000000000000000000000000000000000000000000000000000000600052603260045260246000fd5b7f4e487b7100000000000000000000000000000000000000000000000000000000600052604160045260246000fd5b600080fd5b600080fd5b600080fd5b600080fd5b6000601f19601f8301169050919050565b7f596f752063616e6e6f7420776974686472617720796574000000000000000000600082015250565b7f596f7520617265206e6f742061626c6520746f2077697468647261772061742060008201527f746869732074696d650000000000000000000000000000000000000000000000602082015250565b7f596f75206d75737420626520746865206b696420746f20776974686472617700600082015250565b6110c781610df4565b81146110d257600080fd5b50565b6110de81610e06565b81146110e957600080fd5b50565b6110f581610e18565b811461110057600080fd5b50565b61110c81610e44565b811461111757600080fd5b5056fea2646970667358221220a56afb4f7a6f62c826048d6bee0d7028f0e3a5e40b999307c7953d8965e75eb964736f6c63430008070033",
					"opcodes": "PUSH1 0x80 PUSH1 0x40 MSTORE CALLVALUE DUP1 ISZERO PUSH2 0x10 JUMPI PUSH1 0x0 DUP1 REVERT JUMPDEST POP CALLER PUSH1 0x0 DUP1 PUSH2 0x100 EXP DUP2 SLOAD DUP2 PUSH20 0xFFFFFFFFFFFFFFFFFFFFFFFFFFFFFFFFFFFFFFFF MUL NOT AND SWAP1 DUP4 PUSH20 0xFFFFFFFFFFFFFFFFFFFFFFFFFFFFFFFFFFFFFFFF AND MUL OR SWAP1 SSTORE POP PUSH2 0x1150 DUP1 PUSH2 0x60 PUSH1 0x0 CODECOPY PUSH1 0x0 RETURN INVALID PUSH1 0x80 PUSH1 0x40 MSTORE PUSH1 0x4 CALLDATASIZE LT PUSH2 0x55 JUMPI PUSH1 0x0 CALLDATALOAD PUSH1 0xE0 SHR DUP1 PUSH4 0x31D575C5 EQ PUSH2 0x5A JUMPI DUP1 PUSH4 0x51CFF8D9 EQ PUSH2 0x83 JUMPI DUP1 PUSH4 0x722713F7 EQ PUSH2 0x9F JUMPI DUP1 PUSH4 0x7285FD3A EQ PUSH2 0xCA JUMPI DUP1 PUSH4 0xA25DB8CE EQ PUSH2 0x10C JUMPI DUP1 PUSH4 0xF340FA01 EQ PUSH2 0x149 JUMPI JUMPDEST PUSH1 0x0 DUP1 REVERT JUMPDEST CALLVALUE DUP1 ISZERO PUSH2 0x66 JUMPI PUSH1 0x0 DUP1 REVERT JUMPDEST POP PUSH2 0x81 PUSH1 0x4 DUP1 CALLDATASIZE SUB DUP2 ADD SWAP1 PUSH2 0x7C SWAP2 SWAP1 PUSH2 0xA66 JUMP JUMPDEST PUSH2 0x165 JUMP JUMPDEST STOP JUMPDEST PUSH2 0x9D PUSH1 0x4 DUP1 CALLDATASIZE SUB DUP2 ADD SWAP1 PUSH2 0x98 SWAP2 SWAP1 PUSH2 0xA39 JUMP JUMPDEST PUSH2 0x294 JUMP JUMPDEST STOP JUMPDEST CALLVALUE DUP1 ISZERO PUSH2 0xAB JUMPI PUSH1 0x0 DUP1 REVERT JUMPDEST POP PUSH2 0xB4 PUSH2 0x482 JUMP JUMPDEST PUSH1 0x40 MLOAD PUSH2 0xC1 SWAP2 SWAP1 PUSH2 0xD11 JUMP JUMPDEST PUSH1 0x40 MLOAD DUP1 SWAP2 SUB SWAP1 RETURN JUMPDEST CALLVALUE DUP1 ISZERO PUSH2 0xD6 JUMPI PUSH1 0x0 DUP1 REVERT JUMPDEST POP PUSH2 0xF1 PUSH1 0x4 DUP1 CALLDATASIZE SUB DUP2 ADD SWAP1 PUSH2 0xEC SWAP2 SWAP1 PUSH2 0xB2B JUMP JUMPDEST PUSH2 0x48A JUMP JUMPDEST PUSH1 0x40 MLOAD PUSH2 0x103 SWAP7 SWAP6 SWAP5 SWAP4 SWAP3 SWAP2 SWAP1 PUSH2 0xC27 JUMP JUMPDEST PUSH1 0x40 MLOAD DUP1 SWAP2 SUB SWAP1 RETURN JUMPDEST CALLVALUE DUP1 ISZERO PUSH2 0x118 JUMPI PUSH1 0x0 DUP1 REVERT JUMPDEST POP PUSH2 0x133 PUSH1 0x4 DUP1 CALLDATASIZE SUB DUP2 ADD SWAP1 PUSH2 0x12E SWAP2 SWAP1 PUSH2 0xA0C JUMP JUMPDEST PUSH2 0x613 JUMP JUMPDEST PUSH1 0x40 MLOAD PUSH2 0x140 SWAP2 SWAP1 PUSH2 0xC96 JUMP JUMPDEST PUSH1 0x40 MLOAD DUP1 SWAP2 SUB SWAP1 RETURN JUMPDEST PUSH2 0x163 PUSH1 0x4 DUP1 CALLDATASIZE SUB DUP2 ADD SWAP1 PUSH2 0x15E SWAP2 SWAP1 PUSH2 0xA0C JUMP JUMPDEST PUSH2 0x706 JUMP JUMPDEST STOP JUMPDEST PUSH1 0x1 PUSH1 0x40 MLOAD DUP1 PUSH1 0xC0 ADD PUSH1 0x40 MSTORE DUP1 DUP9 PUSH20 0xFFFFFFFFFFFFFFFFFFFFFFFFFFFFFFFFFFFFFFFF AND DUP2 MSTORE PUSH1 0x20 ADD DUP8 DUP2 MSTORE PUSH1 0x20 ADD DUP7 DUP2 MSTORE PUSH1 0x20 ADD DUP6 DUP2 MSTORE PUSH1 0x20 ADD DUP5 DUP2 MSTORE PUSH1 0x20 ADD DUP4 ISZERO ISZERO DUP2 MSTORE POP SWAP1 DUP1 PUSH1 0x1 DUP2 SLOAD ADD DUP1 DUP3 SSTORE DUP1 SWAP2 POP POP PUSH1 0x1 SWAP1 SUB SWAP1 PUSH1 0x0 MSTORE PUSH1 0x20 PUSH1 0x0 KECCAK256 SWAP1 PUSH1 0x6 MUL ADD PUSH1 0x0 SWAP1 SWAP2 SWAP1 SWAP2 SWAP1 SWAP2 POP PUSH1 0x0 DUP3 ADD MLOAD DUP2 PUSH1 0x0 ADD PUSH1 0x0 PUSH2 0x100 EXP DUP2 SLOAD DUP2 PUSH20 0xFFFFFFFFFFFFFFFFFFFFFFFFFFFFFFFFFFFFFFFF MUL NOT AND SWAP1 DUP4 PUSH20 0xFFFFFFFFFFFFFFFFFFFFFFFFFFFFFFFFFFFFFFFF AND MUL OR SWAP1 SSTORE POP PUSH1 0x20 DUP3 ADD MLOAD DUP2 PUSH1 0x1 ADD SWAP1 DUP1 MLOAD SWAP1 PUSH1 0x20 ADD SWAP1 PUSH2 0x238 SWAP3 SWAP2 SWAP1 PUSH2 0x8A5 JUMP JUMPDEST POP PUSH1 0x40 DUP3 ADD MLOAD DUP2 PUSH1 0x2 ADD SWAP1 DUP1 MLOAD SWAP1 PUSH1 0x20 ADD SWAP1 PUSH2 0x255 SWAP3 SWAP2 SWAP1 PUSH2 0x8A5 JUMP JUMPDEST POP PUSH1 0x60 DUP3 ADD MLOAD DUP2 PUSH1 0x3 ADD SSTORE PUSH1 0x80 DUP3 ADD MLOAD DUP2 PUSH1 0x4 ADD SSTORE PUSH1 0xA0 DUP3 ADD MLOAD DUP2 PUSH1 0x5 ADD PUSH1 0x0 PUSH2 0x100 EXP DUP2 SLOAD DUP2 PUSH1 0xFF MUL NOT AND SWAP1 DUP4 ISZERO ISZERO MUL OR SWAP1 SSTORE POP POP POP POP POP POP POP POP POP JUMP JUMPDEST PUSH1 0x0 PUSH2 0x29F DUP3 PUSH2 0x712 JUMP JUMPDEST SWAP1 POP PUSH1 0x1 DUP2 DUP2 SLOAD DUP2 LT PUSH2 0x2B5 JUMPI PUSH2 0x2B4 PUSH2 0xF9A JUMP JUMPDEST JUMPDEST SWAP1 PUSH1 0x0 MSTORE PUSH1 0x20 PUSH1 0x0 KECCAK256 SWAP1 PUSH1 0x6 MUL ADD PUSH1 0x0 ADD PUSH1 0x0 SWAP1 SLOAD SWAP1 PUSH2 0x100 EXP SWAP1 DIV PUSH20 0xFFFFFFFFFFFFFFFFFFFFFFFFFFFFFFFFFFFFFFFF AND PUSH20 0xFFFFFFFFFFFFFFFFFFFFFFFFFFFFFFFFFFFFFFFF AND CALLER PUSH20 0xFFFFFFFFFFFFFFFFFFFFFFFFFFFFFFFFFFFFFFFF AND EQ PUSH2 0x354 JUMPI PUSH1 0x40 MLOAD PUSH32 0x8C379A000000000000000000000000000000000000000000000000000000000 DUP2 MSTORE PUSH1 0x4 ADD PUSH2 0x34B SWAP1 PUSH2 0xCF1 JUMP JUMPDEST PUSH1 0x40 MLOAD DUP1 SWAP2 SUB SWAP1 REVERT JUMPDEST PUSH1 0x1 ISZERO ISZERO PUSH1 0x1 DUP3 DUP2 SLOAD DUP2 LT PUSH2 0x36C JUMPI PUSH2 0x36B PUSH2 0xF9A JUMP JUMPDEST JUMPDEST SWAP1 PUSH1 0x0 MSTORE PUSH1 0x20 PUSH1 0x0 KECCAK256 SWAP1 PUSH1 0x6 MUL ADD PUSH1 0x5 ADD PUSH1 0x0 SWAP1 SLOAD SWAP1 PUSH2 0x100 EXP SWAP1 DIV PUSH1 0xFF AND ISZERO ISZERO EQ PUSH2 0x3CD JUMPI PUSH1 0x40 MLOAD PUSH32 0x8C379A000000000000000000000000000000000000000000000000000000000 DUP2 MSTORE PUSH1 0x4 ADD PUSH2 0x3C4 SWAP1 PUSH2 0xCD1 JUMP JUMPDEST PUSH1 0x40 MLOAD DUP1 SWAP2 SUB SWAP1 REVERT JUMPDEST PUSH1 0x1 DUP2 DUP2 SLOAD DUP2 LT PUSH2 0x3E1 JUMPI PUSH2 0x3E0 PUSH2 0xF9A JUMP JUMPDEST JUMPDEST SWAP1 PUSH1 0x0 MSTORE PUSH1 0x20 PUSH1 0x0 KECCAK256 SWAP1 PUSH1 0x6 MUL ADD PUSH1 0x0 ADD PUSH1 0x0 SWAP1 SLOAD SWAP1 PUSH2 0x100 EXP SWAP1 DIV PUSH20 0xFFFFFFFFFFFFFFFFFFFFFFFFFFFFFFFFFFFFFFFF AND PUSH20 0xFFFFFFFFFFFFFFFFFFFFFFFFFFFFFFFFFFFFFFFF AND PUSH2 0x8FC PUSH1 0x1 DUP4 DUP2 SLOAD DUP2 LT PUSH2 0x440 JUMPI PUSH2 0x43F PUSH2 0xF9A JUMP JUMPDEST JUMPDEST SWAP1 PUSH1 0x0 MSTORE PUSH1 0x20 PUSH1 0x0 KECCAK256 SWAP1 PUSH1 0x6 MUL ADD PUSH1 0x4 ADD SLOAD SWAP1 DUP2 ISZERO MUL SWAP1 PUSH1 0x40 MLOAD PUSH1 0x0 PUSH1 0x40 MLOAD DUP1 DUP4 SUB DUP2 DUP6 DUP9 DUP9 CALL SWAP4 POP POP POP POP ISZERO DUP1 ISZERO PUSH2 0x47D JUMPI RETURNDATASIZE PUSH1 0x0 DUP1 RETURNDATACOPY RETURNDATASIZE PUSH1 0x0 REVERT JUMPDEST POP POP POP JUMP JUMPDEST PUSH1 0x0 SELFBALANCE SWAP1 POP SWAP1 JUMP JUMPDEST PUSH1 0x1 DUP2 DUP2 SLOAD DUP2 LT PUSH2 0x49A JUMPI PUSH1 0x0 DUP1 REVERT JUMPDEST SWAP1 PUSH1 0x0 MSTORE PUSH1 0x20 PUSH1 0x0 KECCAK256 SWAP1 PUSH1 0x6 MUL ADD PUSH1 0x0 SWAP2 POP SWAP1 POP DUP1 PUSH1 0x0 ADD PUSH1 0x0 SWAP1 SLOAD SWAP1 PUSH2 0x100 EXP SWAP1 DIV PUSH20 0xFFFFFFFFFFFFFFFFFFFFFFFFFFFFFFFFFFFFFFFF AND SWAP1 DUP1 PUSH1 0x1 ADD DUP1 SLOAD PUSH2 0x4E3 SWAP1 PUSH2 0xE90 JUMP JUMPDEST DUP1 PUSH1 0x1F ADD PUSH1 0x20 DUP1 SWAP2 DIV MUL PUSH1 0x20 ADD PUSH1 0x40 MLOAD SWAP1 DUP2 ADD PUSH1 0x40 MSTORE DUP1 SWAP3 SWAP2 SWAP1 DUP2 DUP2 MSTORE PUSH1 0x20 ADD DUP3 DUP1 SLOAD PUSH2 0x50F SWAP1 PUSH2 0xE90 JUMP JUMPDEST DUP1 ISZERO PUSH2 0x55C JUMPI DUP1 PUSH1 0x1F LT PUSH2 0x531 JUMPI PUSH2 0x100 DUP1 DUP4 SLOAD DIV MUL DUP4 MSTORE SWAP2 PUSH1 0x20 ADD SWAP2 PUSH2 0x55C JUMP JUMPDEST DUP3 ADD SWAP2 SWAP1 PUSH1 0x0 MSTORE PUSH1 0x20 PUSH1 0x0 KECCAK256 SWAP1 JUMPDEST DUP2 SLOAD DUP2 MSTORE SWAP1 PUSH1 0x1 ADD SWAP1 PUSH1 0x20 ADD DUP1 DUP4 GT PUSH2 0x53F JUMPI DUP3 SWAP1 SUB PUSH1 0x1F AND DUP3 ADD SWAP2 JUMPDEST POP POP POP POP POP SWAP1 DUP1 PUSH1 0x2 ADD DUP1 SLOAD PUSH2 0x571 SWAP1 PUSH2 0xE90 JUMP JUMPDEST DUP1 PUSH1 0x1F ADD PUSH1 0x20 DUP1 SWAP2 DIV MUL PUSH1 0x20 ADD PUSH1 0x40 MLOAD SWAP1 DUP2 ADD PUSH1 0x40 MSTORE DUP1 SWAP3 SWAP2 SWAP1 DUP2 DUP2 MSTORE PUSH1 0x20 ADD DUP3 DUP1 SLOAD PUSH2 0x59D SWAP1 PUSH2 0xE90 JUMP JUMPDEST DUP1 ISZERO PUSH2 0x5EA JUMPI DUP1 PUSH1 0x1F LT PUSH2 0x5BF JUMPI PUSH2 0x100 DUP1 DUP4 SLOAD DIV MUL DUP4 MSTORE SWAP2 PUSH1 0x20 ADD SWAP2 PUSH2 0x5EA JUMP JUMPDEST DUP3 ADD SWAP2 SWAP1 PUSH1 0x0 MSTORE PUSH1 0x20 PUSH1 0x0 KECCAK256 SWAP1 JUMPDEST DUP2 SLOAD DUP2 MSTORE SWAP1 PUSH1 0x1 ADD SWAP1 PUSH1 0x20 ADD DUP1 DUP4 GT PUSH2 0x5CD JUMPI DUP3 SWAP1 SUB PUSH1 0x1F AND DUP3 ADD SWAP2 JUMPDEST POP POP POP POP POP SWAP1 DUP1 PUSH1 0x3 ADD SLOAD SWAP1 DUP1 PUSH1 0x4 ADD SLOAD SWAP1 DUP1 PUSH1 0x5 ADD PUSH1 0x0 SWAP1 SLOAD SWAP1 PUSH2 0x100 EXP SWAP1 DIV PUSH1 0xFF AND SWAP1 POP DUP7 JUMP JUMPDEST PUSH1 0x0 DUP1 PUSH2 0x61F DUP4 PUSH2 0x712 JUMP JUMPDEST SWAP1 POP PUSH1 0x1 DUP2 DUP2 SLOAD DUP2 LT PUSH2 0x635 JUMPI PUSH2 0x634 PUSH2 0xF9A JUMP JUMPDEST JUMPDEST SWAP1 PUSH1 0x0 MSTORE PUSH1 0x20 PUSH1 0x0 KECCAK256 SWAP1 PUSH1 0x6 MUL ADD PUSH1 0x3 ADD SLOAD TIMESTAMP GT PUSH2 0x688 JUMPI PUSH1 0x40 MLOAD PUSH32 0x8C379A000000000000000000000000000000000000000000000000000000000 DUP2 MSTORE PUSH1 0x4 ADD PUSH2 0x67F SWAP1 PUSH2 0xCB1 JUMP JUMPDEST PUSH1 0x40 MLOAD DUP1 SWAP2 SUB SWAP1 REVERT JUMPDEST PUSH1 0x1 DUP2 DUP2 SLOAD DUP2 LT PUSH2 0x69C JUMPI PUSH2 0x69B PUSH2 0xF9A JUMP JUMPDEST JUMPDEST SWAP1 PUSH1 0x0 MSTORE PUSH1 0x20 PUSH1 0x0 KECCAK256 SWAP1 PUSH1 0x6 MUL ADD PUSH1 0x3 ADD SLOAD TIMESTAMP LT PUSH2 0x6FB JUMPI PUSH1 0x1 DUP1 DUP3 DUP2 SLOAD DUP2 LT PUSH2 0x6C9 JUMPI PUSH2 0x6C8 PUSH2 0xF9A JUMP JUMPDEST JUMPDEST SWAP1 PUSH1 0x0 MSTORE PUSH1 0x20 PUSH1 0x0 KECCAK256 SWAP1 PUSH1 0x6 MUL ADD PUSH1 0x5 ADD PUSH1 0x0 PUSH2 0x100 EXP DUP2 SLOAD DUP2 PUSH1 0xFF MUL NOT AND SWAP1 DUP4 ISZERO ISZERO MUL OR SWAP1 SSTORE POP PUSH1 0x1 SWAP2 POP POP PUSH2 0x701 JUMP JUMPDEST PUSH1 0x0 SWAP2 POP POP JUMPDEST SWAP2 SWAP1 POP JUMP JUMPDEST PUSH2 0x70F DUP2 PUSH2 0x7C8 JUMP JUMPDEST POP JUMP JUMPDEST PUSH1 0x0 DUP1 PUSH1 0x0 SWAP1 POP JUMPDEST PUSH1 0x1 DUP1 SLOAD SWAP1 POP DUP2 LT ISZERO PUSH2 0x7BC JUMPI DUP3 PUSH20 0xFFFFFFFFFFFFFFFFFFFFFFFFFFFFFFFFFFFFFFFF AND PUSH1 0x1 DUP3 DUP2 SLOAD DUP2 LT PUSH2 0x752 JUMPI PUSH2 0x751 PUSH2 0xF9A JUMP JUMPDEST JUMPDEST SWAP1 PUSH1 0x0 MSTORE PUSH1 0x20 PUSH1 0x0 KECCAK256 SWAP1 PUSH1 0x6 MUL ADD PUSH1 0x0 ADD PUSH1 0x0 SWAP1 SLOAD SWAP1 PUSH2 0x100 EXP SWAP1 DIV PUSH20 0xFFFFFFFFFFFFFFFFFFFFFFFFFFFFFFFFFFFFFFFF AND PUSH20 0xFFFFFFFFFFFFFFFFFFFFFFFFFFFFFFFFFFFFFFFF AND EQ ISZERO PUSH2 0x7A9 JUMPI DUP1 SWAP2 POP POP PUSH2 0x7C3 JUMP JUMPDEST DUP1 DUP1 PUSH2 0x7B4 SWAP1 PUSH2 0xEF3 JUMP JUMPDEST SWAP2 POP POP PUSH2 0x71A JUMP JUMPDEST POP PUSH2 0x3E7 SWAP1 POP JUMPDEST SWAP2 SWAP1 POP JUMP JUMPDEST PUSH1 0x0 JUMPDEST PUSH1 0x1 DUP1 SLOAD SWAP1 POP DUP2 LT ISZERO PUSH2 0x8A1 JUMPI DUP2 PUSH20 0xFFFFFFFFFFFFFFFFFFFFFFFFFFFFFFFFFFFFFFFF AND PUSH1 0x1 DUP3 DUP2 SLOAD DUP2 LT PUSH2 0x803 JUMPI PUSH2 0x802 PUSH2 0xF9A JUMP JUMPDEST JUMPDEST SWAP1 PUSH1 0x0 MSTORE PUSH1 0x20 PUSH1 0x0 KECCAK256 SWAP1 PUSH1 0x6 MUL ADD PUSH1 0x0 ADD PUSH1 0x0 SWAP1 SLOAD SWAP1 PUSH2 0x100 EXP SWAP1 DIV PUSH20 0xFFFFFFFFFFFFFFFFFFFFFFFFFFFFFFFFFFFFFFFF AND PUSH20 0xFFFFFFFFFFFFFFFFFFFFFFFFFFFFFFFFFFFFFFFF AND EQ ISZERO PUSH2 0x88E JUMPI CALLVALUE PUSH1 0x1 DUP3 DUP2 SLOAD DUP2 LT PUSH2 0x866 JUMPI PUSH2 0x865 PUSH2 0xF9A JUMP JUMPDEST JUMPDEST SWAP1 PUSH1 0x0 MSTORE PUSH1 0x20 PUSH1 0x0 KECCAK256 SWAP1 PUSH1 0x6 MUL ADD PUSH1 0x4 ADD PUSH1 0x0 DUP3 DUP3 SLOAD PUSH2 0x886 SWAP2 SWAP1 PUSH2 0xD9E JUMP JUMPDEST SWAP3 POP POP DUP2 SWAP1 SSTORE POP JUMPDEST DUP1 DUP1 PUSH2 0x899 SWAP1 PUSH2 0xEF3 JUMP JUMPDEST SWAP2 POP POP PUSH2 0x7CB JUMP JUMPDEST POP POP JUMP JUMPDEST DUP3 DUP1 SLOAD PUSH2 0x8B1 SWAP1 PUSH2 0xE90 JUMP JUMPDEST SWAP1 PUSH1 0x0 MSTORE PUSH1 0x20 PUSH1 0x0 KECCAK256 SWAP1 PUSH1 0x1F ADD PUSH1 0x20 SWAP1 DIV DUP2 ADD SWAP3 DUP3 PUSH2 0x8D3 JUMPI PUSH1 0x0 DUP6 SSTORE PUSH2 0x91A JUMP JUMPDEST DUP3 PUSH1 0x1F LT PUSH2 0x8EC JUMPI DUP1 MLOAD PUSH1 0xFF NOT AND DUP4 DUP1 ADD OR DUP6 SSTORE PUSH2 0x91A JUMP JUMPDEST DUP3 DUP1 ADD PUSH1 0x1 ADD DUP6 SSTORE DUP3 ISZERO PUSH2 0x91A JUMPI SWAP2 DUP3 ADD JUMPDEST DUP3 DUP2 GT ISZERO PUSH2 0x919 JUMPI DUP3 MLOAD DUP3 SSTORE SWAP2 PUSH1 0x20 ADD SWAP2 SWAP1 PUSH1 0x1 ADD SWAP1 PUSH2 0x8FE JUMP JUMPDEST JUMPDEST POP SWAP1 POP PUSH2 0x927 SWAP2 SWAP1 PUSH2 0x92B JUMP JUMPDEST POP SWAP1 JUMP JUMPDEST JUMPDEST DUP1 DUP3 GT ISZERO PUSH2 0x944 JUMPI PUSH1 0x0 DUP2 PUSH1 0x0 SWAP1 SSTORE POP PUSH1 0x1 ADD PUSH2 0x92C JUMP JUMPDEST POP SWAP1 JUMP JUMPDEST PUSH1 0x0 PUSH2 0x95B PUSH2 0x956 DUP5 PUSH2 0xD51 JUMP JUMPDEST PUSH2 0xD2C JUMP JUMPDEST SWAP1 POP DUP3 DUP2 MSTORE PUSH1 0x20 DUP2 ADD DUP5 DUP5 DUP5 ADD GT ISZERO PUSH2 0x977 JUMPI PUSH2 0x976 PUSH2 0xFFD JUMP JUMPDEST JUMPDEST PUSH2 0x982 DUP5 DUP3 DUP6 PUSH2 0xE4E JUMP JUMPDEST POP SWAP4 SWAP3 POP POP POP JUMP JUMPDEST PUSH1 0x0 DUP2 CALLDATALOAD SWAP1 POP PUSH2 0x999 DUP2 PUSH2 0x10BE JUMP JUMPDEST SWAP3 SWAP2 POP POP JUMP JUMPDEST PUSH1 0x0 DUP2 CALLDATALOAD SWAP1 POP PUSH2 0x9AE DUP2 PUSH2 0x10D5 JUMP JUMPDEST SWAP3 SWAP2 POP POP JUMP JUMPDEST PUSH1 0x0 DUP2 CALLDATALOAD SWAP1 POP PUSH2 0x9C3 DUP2 PUSH2 0x10EC JUMP JUMPDEST SWAP3 SWAP2 POP POP JUMP JUMPDEST PUSH1 0x0 DUP3 PUSH1 0x1F DUP4 ADD SLT PUSH2 0x9DE JUMPI PUSH2 0x9DD PUSH2 0xFF8 JUMP JUMPDEST JUMPDEST DUP2 CALLDATALOAD PUSH2 0x9EE DUP5 DUP3 PUSH1 0x20 DUP7 ADD PUSH2 0x948 JUMP JUMPDEST SWAP2 POP POP SWAP3 SWAP2 POP POP JUMP JUMPDEST PUSH1 0x0 DUP2 CALLDATALOAD SWAP1 POP PUSH2 0xA06 DUP2 PUSH2 0x1103 JUMP JUMPDEST SWAP3 SWAP2 POP POP JUMP JUMPDEST PUSH1 0x0 PUSH1 0x20 DUP3 DUP5 SUB SLT ISZERO PUSH2 0xA22 JUMPI PUSH2 0xA21 PUSH2 0x1007 JUMP JUMPDEST JUMPDEST PUSH1 0x0 PUSH2 0xA30 DUP5 DUP3 DUP6 ADD PUSH2 0x98A JUMP JUMPDEST SWAP2 POP POP SWAP3 SWAP2 POP POP JUMP JUMPDEST PUSH1 0x0 PUSH1 0x20 DUP3 DUP5 SUB SLT ISZERO PUSH2 0xA4F JUMPI PUSH2 0xA4E PUSH2 0x1007 JUMP JUMPDEST JUMPDEST PUSH1 0x0 PUSH2 0xA5D DUP5 DUP3 DUP6 ADD PUSH2 0x99F JUMP JUMPDEST SWAP2 POP POP SWAP3 SWAP2 POP POP JUMP JUMPDEST PUSH1 0x0 DUP1 PUSH1 0x0 DUP1 PUSH1 0x0 DUP1 PUSH1 0xC0 DUP8 DUP10 SUB SLT ISZERO PUSH2 0xA83 JUMPI PUSH2 0xA82 PUSH2 0x1007 JUMP JUMPDEST JUMPDEST PUSH1 0x0 PUSH2 0xA91 DUP10 DUP3 DUP11 ADD PUSH2 0x99F JUMP JUMPDEST SWAP7 POP POP PUSH1 0x20 DUP8 ADD CALLDATALOAD PUSH8 0xFFFFFFFFFFFFFFFF DUP2 GT ISZERO PUSH2 0xAB2 JUMPI PUSH2 0xAB1 PUSH2 0x1002 JUMP JUMPDEST JUMPDEST PUSH2 0xABE DUP10 DUP3 DUP11 ADD PUSH2 0x9C9 JUMP JUMPDEST SWAP6 POP POP PUSH1 0x40 DUP8 ADD CALLDATALOAD PUSH8 0xFFFFFFFFFFFFFFFF DUP2 GT ISZERO PUSH2 0xADF JUMPI PUSH2 0xADE PUSH2 0x1002 JUMP JUMPDEST JUMPDEST PUSH2 0xAEB DUP10 DUP3 DUP11 ADD PUSH2 0x9C9 JUMP JUMPDEST SWAP5 POP POP PUSH1 0x60 PUSH2 0xAFC DUP10 DUP3 DUP11 ADD PUSH2 0x9F7 JUMP JUMPDEST SWAP4 POP POP PUSH1 0x80 PUSH2 0xB0D DUP10 DUP3 DUP11 ADD PUSH2 0x9F7 JUMP JUMPDEST SWAP3 POP POP PUSH1 0xA0 PUSH2 0xB1E DUP10 DUP3 DUP11 ADD PUSH2 0x9B4 JUMP JUMPDEST SWAP2 POP POP SWAP3 SWAP6 POP SWAP3 SWAP6 POP SWAP3 SWAP6 JUMP JUMPDEST PUSH1 0x0 PUSH1 0x20 DUP3 DUP5 SUB SLT ISZERO PUSH2 0xB41 JUMPI PUSH2 0xB40 PUSH2 0x1007 JUMP JUMPDEST JUMPDEST PUSH1 0x0 PUSH2 0xB4F DUP5 DUP3 DUP6 ADD PUSH2 0x9F7 JUMP JUMPDEST SWAP2 POP POP SWAP3 SWAP2 POP POP JUMP JUMPDEST PUSH2 0xB61 DUP2 PUSH2 0xE06 JUMP JUMPDEST DUP3 MSTORE POP POP JUMP JUMPDEST PUSH2 0xB70 DUP2 PUSH2 0xE18 JUMP JUMPDEST DUP3 MSTORE POP POP JUMP JUMPDEST PUSH1 0x0 PUSH2 0xB81 DUP3 PUSH2 0xD82 JUMP JUMPDEST PUSH2 0xB8B DUP2 DUP6 PUSH2 0xD8D JUMP JUMPDEST SWAP4 POP PUSH2 0xB9B DUP2 DUP6 PUSH1 0x20 DUP7 ADD PUSH2 0xE5D JUMP JUMPDEST PUSH2 0xBA4 DUP2 PUSH2 0x100C JUMP JUMPDEST DUP5 ADD SWAP2 POP POP SWAP3 SWAP2 POP POP JUMP JUMPDEST PUSH1 0x0 PUSH2 0xBBC PUSH1 0x17 DUP4 PUSH2 0xD8D JUMP JUMPDEST SWAP2 POP PUSH2 0xBC7 DUP3 PUSH2 0x101D JUMP JUMPDEST PUSH1 0x20 DUP3 ADD SWAP1 POP SWAP2 SWAP1 POP JUMP JUMPDEST PUSH1 0x0 PUSH2 0xBDF PUSH1 0x29 DUP4 PUSH2 0xD8D JUMP JUMPDEST SWAP2 POP PUSH2 0xBEA DUP3 PUSH2 0x1046 JUMP JUMPDEST PUSH1 0x40 DUP3 ADD SWAP1 POP SWAP2 SWAP1 POP JUMP JUMPDEST PUSH1 0x0 PUSH2 0xC02 PUSH1 0x1F DUP4 PUSH2 0xD8D JUMP JUMPDEST SWAP2 POP PUSH2 0xC0D DUP3 PUSH2 0x1095 JUMP JUMPDEST PUSH1 0x20 DUP3 ADD SWAP1 POP SWAP2 SWAP1 POP JUMP JUMPDEST PUSH2 0xC21 DUP2 PUSH2 0xE44 JUMP JUMPDEST DUP3 MSTORE POP POP JUMP JUMPDEST PUSH1 0x0 PUSH1 0xC0 DUP3 ADD SWAP1 POP PUSH2 0xC3C PUSH1 0x0 DUP4 ADD DUP10 PUSH2 0xB58 JUMP JUMPDEST DUP2 DUP2 SUB PUSH1 0x20 DUP4 ADD MSTORE PUSH2 0xC4E DUP2 DUP9 PUSH2 0xB76 JUMP JUMPDEST SWAP1 POP DUP2 DUP2 SUB PUSH1 0x40 DUP4 ADD MSTORE PUSH2 0xC62 DUP2 DUP8 PUSH2 0xB76 JUMP JUMPDEST SWAP1 POP PUSH2 0xC71 PUSH1 0x60 DUP4 ADD DUP7 PUSH2 0xC18 JUMP JUMPDEST PUSH2 0xC7E PUSH1 0x80 DUP4 ADD DUP6 PUSH2 0xC18 JUMP JUMPDEST PUSH2 0xC8B PUSH1 0xA0 DUP4 ADD DUP5 PUSH2 0xB67 JUMP JUMPDEST SWAP8 SWAP7 POP POP POP POP POP POP POP JUMP JUMPDEST PUSH1 0x0 PUSH1 0x20 DUP3 ADD SWAP1 POP PUSH2 0xCAB PUSH1 0x0 DUP4 ADD DUP5 PUSH2 0xB67 JUMP JUMPDEST SWAP3 SWAP2 POP POP JUMP JUMPDEST PUSH1 0x0 PUSH1 0x20 DUP3 ADD SWAP1 POP DUP2 DUP2 SUB PUSH1 0x0 DUP4 ADD MSTORE PUSH2 0xCCA DUP2 PUSH2 0xBAF JUMP JUMPDEST SWAP1 POP SWAP2 SWAP1 POP JUMP JUMPDEST PUSH1 0x0 PUSH1 0x20 DUP3 ADD SWAP1 POP DUP2 DUP2 SUB PUSH1 0x0 DUP4 ADD MSTORE PUSH2 0xCEA DUP2 PUSH2 0xBD2 JUMP JUMPDEST SWAP1 POP SWAP2 SWAP1 POP JUMP JUMPDEST PUSH1 0x0 PUSH1 0x20 DUP3 ADD SWAP1 POP DUP2 DUP2 SUB PUSH1 0x0 DUP4 ADD MSTORE PUSH2 0xD0A DUP2 PUSH2 0xBF5 JUMP JUMPDEST SWAP1 POP SWAP2 SWAP1 POP JUMP JUMPDEST PUSH1 0x0 PUSH1 0x20 DUP3 ADD SWAP1 POP PUSH2 0xD26 PUSH1 0x0 DUP4 ADD DUP5 PUSH2 0xC18 JUMP JUMPDEST SWAP3 SWAP2 POP POP JUMP JUMPDEST PUSH1 0x0 PUSH2 0xD36 PUSH2 0xD47 JUMP JUMPDEST SWAP1 POP PUSH2 0xD42 DUP3 DUP3 PUSH2 0xEC2 JUMP JUMPDEST SWAP2 SWAP1 POP JUMP JUMPDEST PUSH1 0x0 PUSH1 0x40 MLOAD SWAP1 POP SWAP1 JUMP JUMPDEST PUSH1 0x0 PUSH8 0xFFFFFFFFFFFFFFFF DUP3 GT ISZERO PUSH2 0xD6C JUMPI PUSH2 0xD6B PUSH2 0xFC9 JUMP JUMPDEST JUMPDEST PUSH2 0xD75 DUP3 PUSH2 0x100C JUMP JUMPDEST SWAP1 POP PUSH1 0x20 DUP2 ADD SWAP1 POP SWAP2 SWAP1 POP JUMP JUMPDEST PUSH1 0x0 DUP2 MLOAD SWAP1 POP SWAP2 SWAP1 POP JUMP JUMPDEST PUSH1 0x0 DUP3 DUP3 MSTORE PUSH1 0x20 DUP3 ADD SWAP1 POP SWAP3 SWAP2 POP POP JUMP JUMPDEST PUSH1 0x0 PUSH2 0xDA9 DUP3 PUSH2 0xE44 JUMP JUMPDEST SWAP2 POP PUSH2 0xDB4 DUP4 PUSH2 0xE44 JUMP JUMPDEST SWAP3 POP DUP3 PUSH32 0xFFFFFFFFFFFFFFFFFFFFFFFFFFFFFFFFFFFFFFFFFFFFFFFFFFFFFFFFFFFFFFFF SUB DUP3 GT ISZERO PUSH2 0xDE9 JUMPI PUSH2 0xDE8 PUSH2 0xF3C JUMP JUMPDEST JUMPDEST DUP3 DUP3 ADD SWAP1 POP SWAP3 SWAP2 POP POP JUMP JUMPDEST PUSH1 0x0 PUSH2 0xDFF DUP3 PUSH2 0xE24 JUMP JUMPDEST SWAP1 POP SWAP2 SWAP1 POP JUMP JUMPDEST PUSH1 0x0 PUSH2 0xE11 DUP3 PUSH2 0xE24 JUMP JUMPDEST SWAP1 POP SWAP2 SWAP1 POP JUMP JUMPDEST PUSH1 0x0 DUP2 ISZERO ISZERO SWAP1 POP SWAP2 SWAP1 POP JUMP JUMPDEST PUSH1 0x0 PUSH20 0xFFFFFFFFFFFFFFFFFFFFFFFFFFFFFFFFFFFFFFFF DUP3 AND SWAP1 POP SWAP2 SWAP1 POP JUMP JUMPDEST PUSH1 0x0 DUP2 SWAP1 POP SWAP2 SWAP1 POP JUMP JUMPDEST DUP3 DUP2 DUP4 CALLDATACOPY PUSH1 0x0 DUP4 DUP4 ADD MSTORE POP POP POP JUMP JUMPDEST PUSH1 0x0 JUMPDEST DUP4 DUP2 LT ISZERO PUSH2 0xE7B JUMPI DUP1 DUP3 ADD MLOAD DUP2 DUP5 ADD MSTORE PUSH1 0x20 DUP2 ADD SWAP1 POP PUSH2 0xE60 JUMP JUMPDEST DUP4 DUP2 GT ISZERO PUSH2 0xE8A JUMPI PUSH1 0x0 DUP5 DUP5 ADD MSTORE JUMPDEST POP POP POP POP JUMP JUMPDEST PUSH1 0x0 PUSH1 0x2 DUP3 DIV SWAP1 POP PUSH1 0x1 DUP3 AND DUP1 PUSH2 0xEA8 JUMPI PUSH1 0x7F DUP3 AND SWAP2 POP JUMPDEST PUSH1 0x20 DUP3 LT DUP2 EQ ISZERO PUSH2 0xEBC JUMPI PUSH2 0xEBB PUSH2 0xF6B JUMP JUMPDEST JUMPDEST POP SWAP2 SWAP1 POP JUMP JUMPDEST PUSH2 0xECB DUP3 PUSH2 0x100C JUMP JUMPDEST DUP2 ADD DUP2 DUP2 LT PUSH8 0xFFFFFFFFFFFFFFFF DUP3 GT OR ISZERO PUSH2 0xEEA JUMPI PUSH2 0xEE9 PUSH2 0xFC9 JUMP JUMPDEST JUMPDEST DUP1 PUSH1 0x40 MSTORE POP POP POP JUMP JUMPDEST PUSH1 0x0 PUSH2 0xEFE DUP3 PUSH2 0xE44 JUMP JUMPDEST SWAP2 POP PUSH32 0xFFFFFFFFFFFFFFFFFFFFFFFFFFFFFFFFFFFFFFFFFFFFFFFFFFFFFFFFFFFFFFFF DUP3 EQ ISZERO PUSH2 0xF31 JUMPI PUSH2 0xF30 PUSH2 0xF3C JUMP JUMPDEST JUMPDEST PUSH1 0x1 DUP3 ADD SWAP1 POP SWAP2 SWAP1 POP JUMP JUMPDEST PUSH32 0x4E487B7100000000000000000000000000000000000000000000000000000000 PUSH1 0x0 MSTORE PUSH1 0x11 PUSH1 0x4 MSTORE PUSH1 0x24 PUSH1 0x0 REVERT JUMPDEST PUSH32 0x4E487B7100000000000000000000000000000000000000000000000000000000 PUSH1 0x0 MSTORE PUSH1 0x22 PUSH1 0x4 MSTORE PUSH1 0x24 PUSH1 0x0 REVERT JUMPDEST PUSH32 0x4E487B7100000000000000000000000000000000000000000000000000000000 PUSH1 0x0 MSTORE PUSH1 0x32 PUSH1 0x4 MSTORE PUSH1 0x24 PUSH1 0x0 REVERT JUMPDEST PUSH32 0x4E487B7100000000000000000000000000000000000000000000000000000000 PUSH1 0x0 MSTORE PUSH1 0x41 PUSH1 0x4 MSTORE PUSH1 0x24 PUSH1 0x0 REVERT JUMPDEST PUSH1 0x0 DUP1 REVERT JUMPDEST PUSH1 0x0 DUP1 REVERT JUMPDEST PUSH1 0x0 DUP1 REVERT JUMPDEST PUSH1 0x0 DUP1 REVERT JUMPDEST PUSH1 0x0 PUSH1 0x1F NOT PUSH1 0x1F DUP4 ADD AND SWAP1 POP SWAP2 SWAP1 POP JUMP JUMPDEST PUSH32 0x596F752063616E6E6F7420776974686472617720796574000000000000000000 PUSH1 0x0 DUP3 ADD MSTORE POP JUMP JUMPDEST PUSH32 0x596F7520617265206E6F742061626C6520746F20776974686472617720617420 PUSH1 0x0 DUP3 ADD MSTORE PUSH32 0x746869732074696D650000000000000000000000000000000000000000000000 PUSH1 0x20 DUP3 ADD MSTORE POP JUMP JUMPDEST PUSH32 0x596F75206D75737420626520746865206B696420746F20776974686472617700 PUSH1 0x0 DUP3 ADD MSTORE POP JUMP JUMPDEST PUSH2 0x10C7 DUP2 PUSH2 0xDF4 JUMP JUMPDEST DUP2 EQ PUSH2 0x10D2 JUMPI PUSH1 0x0 DUP1 REVERT JUMPDEST POP JUMP JUMPDEST PUSH2 0x10DE DUP2 PUSH2 0xE06 JUMP JUMPDEST DUP2 EQ PUSH2 0x10E9 JUMPI PUSH1 0x0 DUP1 REVERT JUMPDEST POP JUMP JUMPDEST PUSH2 0x10F5 DUP2 PUSH2 0xE18 JUMP JUMPDEST DUP2 EQ PUSH2 0x1100 JUMPI PUSH1 0x0 DUP1 REVERT JUMPDEST POP JUMP JUMPDEST PUSH2 0x110C DUP2 PUSH2 0xE44 JUMP JUMPDEST DUP2 EQ PUSH2 0x1117 JUMPI PUSH1 0x0 DUP1 REVERT JUMPDEST POP JUMP INVALID LOG2 PUSH5 0x6970667358 0x22 SLT KECCAK256 0xA5 PUSH11 0xFB4F7A6F62C826048D6BEE 0xD PUSH17 0x28F0E3A5E40B999307C7953D8965E75EB9 PUSH5 0x736F6C6343 STOP ADDMOD SMOD STOP CALLER "
				},
				"gasEstimates": {
					"creation": {
						"codeDepositCost": "886400",
						"executionCost": "25188",
						"totalCost": "911588"
					},
					"external": {
						"addKid(address,string,string,uint256,uint256,bool)": "infinite",
						"availableToWithdraw(address)": "infinite",
						"balanceOf()": "361",
						"deposit(address)": "infinite",
						"kids(uint256)": "infinite",
						"withdraw(address)": "infinite"
					},
					"internal": {
						"addToKidsBalance(address)": "infinite",
						"getIndex(address)": "infinite"
					}
				},
				"methodIdentifiers": {
					"addKid(address,string,string,uint256,uint256,bool)": "31d575c5",
					"availableToWithdraw(address)": "a25db8ce",
					"balanceOf()": "722713f7",
					"deposit(address)": "f340fa01",
					"kids(uint256)": "7285fd3a",
					"withdraw(address)": "51cff8d9"
				}
			},
			"storageLayout": {
				"storage": [
					{
						"astId": 3,
						"contract": "contracts/CryptoKids.sol:CryptoKids",
						"label": "owner",
						"offset": 0,
						"slot": "0",
						"type": "t_address"
					},
					{
						"astId": 29,
						"contract": "contracts/CryptoKids.sol:CryptoKids",
						"label": "kids",
						"offset": 0,
						"slot": "1",
						"type": "t_array(t_struct(Kid)25_storage)dyn_storage"
					}
				],
				"types": {
					"t_address": {
						"encoding": "inplace",
						"label": "address",
						"numberOfBytes": "20"
					},
					"t_address_payable": {
						"encoding": "inplace",
						"label": "address payable",
						"numberOfBytes": "20"
					},
					"t_array(t_struct(Kid)25_storage)dyn_storage": {
						"base": "t_struct(Kid)25_storage",
						"encoding": "dynamic_array",
						"label": "struct CryptoKids.Kid[]",
						"numberOfBytes": "32"
					},
					"t_bool": {
						"encoding": "inplace",
						"label": "bool",
						"numberOfBytes": "1"
					},
					"t_string_storage": {
						"encoding": "bytes",
						"label": "string",
						"numberOfBytes": "32"
					},
					"t_struct(Kid)25_storage": {
						"encoding": "inplace",
						"label": "struct CryptoKids.Kid",
						"members": [
							{
								"astId": 14,
								"contract": "contracts/CryptoKids.sol:CryptoKids",
								"label": "walletAddress",
								"offset": 0,
								"slot": "0",
								"type": "t_address_payable"
							},
							{
								"astId": 16,
								"contract": "contracts/CryptoKids.sol:CryptoKids",
								"label": "firstName",
								"offset": 0,
								"slot": "1",
								"type": "t_string_storage"
							},
							{
								"astId": 18,
								"contract": "contracts/CryptoKids.sol:CryptoKids",
								"label": "lasName",
								"offset": 0,
								"slot": "2",
								"type": "t_string_storage"
							},
							{
								"astId": 20,
								"contract": "contracts/CryptoKids.sol:CryptoKids",
								"label": "releaseTime",
								"offset": 0,
								"slot": "3",
								"type": "t_uint256"
							},
							{
								"astId": 22,
								"contract": "contracts/CryptoKids.sol:CryptoKids",
								"label": "amount",
								"offset": 0,
								"slot": "4",
								"type": "t_uint256"
							},
							{
								"astId": 24,
								"contract": "contracts/CryptoKids.sol:CryptoKids",
								"label": "canWithdraw",
								"offset": 0,
								"slot": "5",
								"type": "t_bool"
							}
						],
						"numberOfBytes": "192"
					},
					"t_uint256": {
						"encoding": "inplace",
						"label": "uint256",
						"numberOfBytes": "32"
					}
				}
			},
			"userdoc": {
				"kind": "user",
				"methods": {},
				"version": 1
			}
		}
	}
}